
ClimaticChamberControl_V1.0.elf:     file format elf32-littlearm

Sections:
Idx Name          Size      VMA       LMA       File off  Algn
  0 .isr_vector   000000c0  08000000  08000000  00010000  2**0
                  CONTENTS, ALLOC, LOAD, READONLY, DATA
  1 .text         00007614  080000c0  080000c0  000100c0  2**2
                  CONTENTS, ALLOC, LOAD, READONLY, CODE
  2 .rodata       000001f4  080076d4  080076d4  000176d4  2**2
                  CONTENTS, ALLOC, LOAD, READONLY, DATA
  3 .init_array   00000004  080078c8  080078c8  000178c8  2**2
                  CONTENTS, ALLOC, LOAD, DATA
  4 .fini_array   00000004  080078cc  080078cc  000178cc  2**2
                  CONTENTS, ALLOC, LOAD, DATA
  5 .data         000001e4  20000000  080078d0  00020000  2**2
                  CONTENTS, ALLOC, LOAD, DATA
  6 .bss          0000127c  200001e4  08007ab4  000201e4  2**2
                  ALLOC
  7 ._user_heap_stack 00000600  20001460  08007ab4  00021460  2**0
                  ALLOC
  8 .ARM.attributes 00000028  00000000  00000000  000201e4  2**0
                  CONTENTS, READONLY
  9 .debug_info   000238a0  00000000  00000000  0002020c  2**0
                  CONTENTS, READONLY, DEBUGGING
 10 .debug_abbrev 00005439  00000000  00000000  00043aac  2**0
                  CONTENTS, READONLY, DEBUGGING
 11 .debug_loc    0000fed6  00000000  00000000  00048ee5  2**0
                  CONTENTS, READONLY, DEBUGGING
 12 .debug_aranges 000013b0  00000000  00000000  00058dc0  2**3
                  CONTENTS, READONLY, DEBUGGING
 13 .debug_ranges 00001ac8  00000000  00000000  0005a170  2**3
                  CONTENTS, READONLY, DEBUGGING
 14 .debug_line   0000d7d3  00000000  00000000  0005bc38  2**0
                  CONTENTS, READONLY, DEBUGGING
 15 .debug_str    00006b9f  00000000  00000000  0006940b  2**0
                  CONTENTS, READONLY, DEBUGGING
 16 .comment      0000007c  00000000  00000000  0006ffaa  2**0
                  CONTENTS, READONLY
 17 .debug_frame  00004388  00000000  00000000  00070028  2**2
                  CONTENTS, READONLY, DEBUGGING

Disassembly of section .text:

080000c0 <__do_global_dtors_aux>:
 80000c0:	b510      	push	{r4, lr}
 80000c2:	4c06      	ldr	r4, [pc, #24]	; (80000dc <__do_global_dtors_aux+0x1c>)
 80000c4:	7823      	ldrb	r3, [r4, #0]
 80000c6:	2b00      	cmp	r3, #0
 80000c8:	d107      	bne.n	80000da <__do_global_dtors_aux+0x1a>
 80000ca:	4b05      	ldr	r3, [pc, #20]	; (80000e0 <__do_global_dtors_aux+0x20>)
 80000cc:	2b00      	cmp	r3, #0
 80000ce:	d002      	beq.n	80000d6 <__do_global_dtors_aux+0x16>
 80000d0:	4804      	ldr	r0, [pc, #16]	; (80000e4 <__do_global_dtors_aux+0x24>)
 80000d2:	e000      	b.n	80000d6 <__do_global_dtors_aux+0x16>
 80000d4:	bf00      	nop
 80000d6:	2301      	movs	r3, #1
 80000d8:	7023      	strb	r3, [r4, #0]
 80000da:	bd10      	pop	{r4, pc}
 80000dc:	200001e4 	.word	0x200001e4
 80000e0:	00000000 	.word	0x00000000
 80000e4:	080076bc 	.word	0x080076bc

080000e8 <frame_dummy>:
 80000e8:	4b04      	ldr	r3, [pc, #16]	; (80000fc <frame_dummy+0x14>)
 80000ea:	b510      	push	{r4, lr}
 80000ec:	2b00      	cmp	r3, #0
 80000ee:	d003      	beq.n	80000f8 <frame_dummy+0x10>
 80000f0:	4903      	ldr	r1, [pc, #12]	; (8000100 <frame_dummy+0x18>)
 80000f2:	4804      	ldr	r0, [pc, #16]	; (8000104 <frame_dummy+0x1c>)
 80000f4:	e000      	b.n	80000f8 <frame_dummy+0x10>
 80000f6:	bf00      	nop
 80000f8:	bd10      	pop	{r4, pc}
 80000fa:	46c0      	nop			; (mov r8, r8)
 80000fc:	00000000 	.word	0x00000000
 8000100:	200001e8 	.word	0x200001e8
 8000104:	080076bc 	.word	0x080076bc

08000108 <strcmp>:
 8000108:	7802      	ldrb	r2, [r0, #0]
 800010a:	780b      	ldrb	r3, [r1, #0]
 800010c:	2a00      	cmp	r2, #0
 800010e:	d003      	beq.n	8000118 <strcmp+0x10>
 8000110:	3001      	adds	r0, #1
 8000112:	3101      	adds	r1, #1
 8000114:	429a      	cmp	r2, r3
 8000116:	d0f7      	beq.n	8000108 <strcmp>
 8000118:	1ad0      	subs	r0, r2, r3
 800011a:	4770      	bx	lr

0800011c <strlen>:
 800011c:	2300      	movs	r3, #0
 800011e:	5cc2      	ldrb	r2, [r0, r3]
 8000120:	3301      	adds	r3, #1
 8000122:	2a00      	cmp	r2, #0
 8000124:	d1fb      	bne.n	800011e <strlen+0x2>
 8000126:	1e58      	subs	r0, r3, #1
 8000128:	4770      	bx	lr
	...

0800012c <__gnu_thumb1_case_uqi>:
 800012c:	b402      	push	{r1}
 800012e:	4671      	mov	r1, lr
 8000130:	0849      	lsrs	r1, r1, #1
 8000132:	0049      	lsls	r1, r1, #1
 8000134:	5c09      	ldrb	r1, [r1, r0]
 8000136:	0049      	lsls	r1, r1, #1
 8000138:	448e      	add	lr, r1
 800013a:	bc02      	pop	{r1}
 800013c:	4770      	bx	lr
 800013e:	46c0      	nop			; (mov r8, r8)

08000140 <__gnu_thumb1_case_uhi>:
 8000140:	b403      	push	{r0, r1}
 8000142:	4671      	mov	r1, lr
 8000144:	0849      	lsrs	r1, r1, #1
 8000146:	0040      	lsls	r0, r0, #1
 8000148:	0049      	lsls	r1, r1, #1
 800014a:	5a09      	ldrh	r1, [r1, r0]
 800014c:	0049      	lsls	r1, r1, #1
 800014e:	448e      	add	lr, r1
 8000150:	bc03      	pop	{r0, r1}
 8000152:	4770      	bx	lr

08000154 <__udivsi3>:
 8000154:	2200      	movs	r2, #0
 8000156:	0843      	lsrs	r3, r0, #1
 8000158:	428b      	cmp	r3, r1
 800015a:	d374      	bcc.n	8000246 <__udivsi3+0xf2>
 800015c:	0903      	lsrs	r3, r0, #4
 800015e:	428b      	cmp	r3, r1
 8000160:	d35f      	bcc.n	8000222 <__udivsi3+0xce>
 8000162:	0a03      	lsrs	r3, r0, #8
 8000164:	428b      	cmp	r3, r1
 8000166:	d344      	bcc.n	80001f2 <__udivsi3+0x9e>
 8000168:	0b03      	lsrs	r3, r0, #12
 800016a:	428b      	cmp	r3, r1
 800016c:	d328      	bcc.n	80001c0 <__udivsi3+0x6c>
 800016e:	0c03      	lsrs	r3, r0, #16
 8000170:	428b      	cmp	r3, r1
 8000172:	d30d      	bcc.n	8000190 <__udivsi3+0x3c>
 8000174:	22ff      	movs	r2, #255	; 0xff
 8000176:	0209      	lsls	r1, r1, #8
 8000178:	ba12      	rev	r2, r2
 800017a:	0c03      	lsrs	r3, r0, #16
 800017c:	428b      	cmp	r3, r1
 800017e:	d302      	bcc.n	8000186 <__udivsi3+0x32>
 8000180:	1212      	asrs	r2, r2, #8
 8000182:	0209      	lsls	r1, r1, #8
 8000184:	d065      	beq.n	8000252 <__udivsi3+0xfe>
 8000186:	0b03      	lsrs	r3, r0, #12
 8000188:	428b      	cmp	r3, r1
 800018a:	d319      	bcc.n	80001c0 <__udivsi3+0x6c>
 800018c:	e000      	b.n	8000190 <__udivsi3+0x3c>
 800018e:	0a09      	lsrs	r1, r1, #8
 8000190:	0bc3      	lsrs	r3, r0, #15
 8000192:	428b      	cmp	r3, r1
 8000194:	d301      	bcc.n	800019a <__udivsi3+0x46>
 8000196:	03cb      	lsls	r3, r1, #15
 8000198:	1ac0      	subs	r0, r0, r3
 800019a:	4152      	adcs	r2, r2
 800019c:	0b83      	lsrs	r3, r0, #14
 800019e:	428b      	cmp	r3, r1
 80001a0:	d301      	bcc.n	80001a6 <__udivsi3+0x52>
 80001a2:	038b      	lsls	r3, r1, #14
 80001a4:	1ac0      	subs	r0, r0, r3
 80001a6:	4152      	adcs	r2, r2
 80001a8:	0b43      	lsrs	r3, r0, #13
 80001aa:	428b      	cmp	r3, r1
 80001ac:	d301      	bcc.n	80001b2 <__udivsi3+0x5e>
 80001ae:	034b      	lsls	r3, r1, #13
 80001b0:	1ac0      	subs	r0, r0, r3
 80001b2:	4152      	adcs	r2, r2
 80001b4:	0b03      	lsrs	r3, r0, #12
 80001b6:	428b      	cmp	r3, r1
 80001b8:	d301      	bcc.n	80001be <__udivsi3+0x6a>
 80001ba:	030b      	lsls	r3, r1, #12
 80001bc:	1ac0      	subs	r0, r0, r3
 80001be:	4152      	adcs	r2, r2
 80001c0:	0ac3      	lsrs	r3, r0, #11
 80001c2:	428b      	cmp	r3, r1
 80001c4:	d301      	bcc.n	80001ca <__udivsi3+0x76>
 80001c6:	02cb      	lsls	r3, r1, #11
 80001c8:	1ac0      	subs	r0, r0, r3
 80001ca:	4152      	adcs	r2, r2
 80001cc:	0a83      	lsrs	r3, r0, #10
 80001ce:	428b      	cmp	r3, r1
 80001d0:	d301      	bcc.n	80001d6 <__udivsi3+0x82>
 80001d2:	028b      	lsls	r3, r1, #10
 80001d4:	1ac0      	subs	r0, r0, r3
 80001d6:	4152      	adcs	r2, r2
 80001d8:	0a43      	lsrs	r3, r0, #9
 80001da:	428b      	cmp	r3, r1
 80001dc:	d301      	bcc.n	80001e2 <__udivsi3+0x8e>
 80001de:	024b      	lsls	r3, r1, #9
 80001e0:	1ac0      	subs	r0, r0, r3
 80001e2:	4152      	adcs	r2, r2
 80001e4:	0a03      	lsrs	r3, r0, #8
 80001e6:	428b      	cmp	r3, r1
 80001e8:	d301      	bcc.n	80001ee <__udivsi3+0x9a>
 80001ea:	020b      	lsls	r3, r1, #8
 80001ec:	1ac0      	subs	r0, r0, r3
 80001ee:	4152      	adcs	r2, r2
 80001f0:	d2cd      	bcs.n	800018e <__udivsi3+0x3a>
 80001f2:	09c3      	lsrs	r3, r0, #7
 80001f4:	428b      	cmp	r3, r1
 80001f6:	d301      	bcc.n	80001fc <__udivsi3+0xa8>
 80001f8:	01cb      	lsls	r3, r1, #7
 80001fa:	1ac0      	subs	r0, r0, r3
 80001fc:	4152      	adcs	r2, r2
 80001fe:	0983      	lsrs	r3, r0, #6
 8000200:	428b      	cmp	r3, r1
 8000202:	d301      	bcc.n	8000208 <__udivsi3+0xb4>
 8000204:	018b      	lsls	r3, r1, #6
 8000206:	1ac0      	subs	r0, r0, r3
 8000208:	4152      	adcs	r2, r2
 800020a:	0943      	lsrs	r3, r0, #5
 800020c:	428b      	cmp	r3, r1
 800020e:	d301      	bcc.n	8000214 <__udivsi3+0xc0>
 8000210:	014b      	lsls	r3, r1, #5
 8000212:	1ac0      	subs	r0, r0, r3
 8000214:	4152      	adcs	r2, r2
 8000216:	0903      	lsrs	r3, r0, #4
 8000218:	428b      	cmp	r3, r1
 800021a:	d301      	bcc.n	8000220 <__udivsi3+0xcc>
 800021c:	010b      	lsls	r3, r1, #4
 800021e:	1ac0      	subs	r0, r0, r3
 8000220:	4152      	adcs	r2, r2
 8000222:	08c3      	lsrs	r3, r0, #3
 8000224:	428b      	cmp	r3, r1
 8000226:	d301      	bcc.n	800022c <__udivsi3+0xd8>
 8000228:	00cb      	lsls	r3, r1, #3
 800022a:	1ac0      	subs	r0, r0, r3
 800022c:	4152      	adcs	r2, r2
 800022e:	0883      	lsrs	r3, r0, #2
 8000230:	428b      	cmp	r3, r1
 8000232:	d301      	bcc.n	8000238 <__udivsi3+0xe4>
 8000234:	008b      	lsls	r3, r1, #2
 8000236:	1ac0      	subs	r0, r0, r3
 8000238:	4152      	adcs	r2, r2
 800023a:	0843      	lsrs	r3, r0, #1
 800023c:	428b      	cmp	r3, r1
 800023e:	d301      	bcc.n	8000244 <__udivsi3+0xf0>
 8000240:	004b      	lsls	r3, r1, #1
 8000242:	1ac0      	subs	r0, r0, r3
 8000244:	4152      	adcs	r2, r2
 8000246:	1a41      	subs	r1, r0, r1
 8000248:	d200      	bcs.n	800024c <__udivsi3+0xf8>
 800024a:	4601      	mov	r1, r0
 800024c:	4152      	adcs	r2, r2
 800024e:	4610      	mov	r0, r2
 8000250:	4770      	bx	lr
 8000252:	e7ff      	b.n	8000254 <__udivsi3+0x100>
 8000254:	b501      	push	{r0, lr}
 8000256:	2000      	movs	r0, #0
 8000258:	f000 f806 	bl	8000268 <__aeabi_idiv0>
 800025c:	bd02      	pop	{r1, pc}
 800025e:	46c0      	nop			; (mov r8, r8)

08000260 <__aeabi_uidivmod>:
 8000260:	2900      	cmp	r1, #0
 8000262:	d0f7      	beq.n	8000254 <__udivsi3+0x100>
 8000264:	e776      	b.n	8000154 <__udivsi3>
 8000266:	4770      	bx	lr

08000268 <__aeabi_idiv0>:
 8000268:	4770      	bx	lr
 800026a:	46c0      	nop			; (mov r8, r8)

0800026c <__aeabi_fmul>:
 800026c:	b5f8      	push	{r3, r4, r5, r6, r7, lr}
 800026e:	4657      	mov	r7, sl
 8000270:	464e      	mov	r6, r9
 8000272:	4645      	mov	r5, r8
 8000274:	46de      	mov	lr, fp
 8000276:	b5e0      	push	{r5, r6, r7, lr}
 8000278:	0247      	lsls	r7, r0, #9
 800027a:	0046      	lsls	r6, r0, #1
 800027c:	4688      	mov	r8, r1
 800027e:	0a7f      	lsrs	r7, r7, #9
 8000280:	0e36      	lsrs	r6, r6, #24
 8000282:	0fc4      	lsrs	r4, r0, #31
 8000284:	2e00      	cmp	r6, #0
 8000286:	d047      	beq.n	8000318 <__aeabi_fmul+0xac>
 8000288:	2eff      	cmp	r6, #255	; 0xff
 800028a:	d024      	beq.n	80002d6 <__aeabi_fmul+0x6a>
 800028c:	00fb      	lsls	r3, r7, #3
 800028e:	2780      	movs	r7, #128	; 0x80
 8000290:	04ff      	lsls	r7, r7, #19
 8000292:	431f      	orrs	r7, r3
 8000294:	2300      	movs	r3, #0
 8000296:	4699      	mov	r9, r3
 8000298:	469a      	mov	sl, r3
 800029a:	3e7f      	subs	r6, #127	; 0x7f
 800029c:	4643      	mov	r3, r8
 800029e:	025d      	lsls	r5, r3, #9
 80002a0:	0058      	lsls	r0, r3, #1
 80002a2:	0fdb      	lsrs	r3, r3, #31
 80002a4:	0a6d      	lsrs	r5, r5, #9
 80002a6:	0e00      	lsrs	r0, r0, #24
 80002a8:	4698      	mov	r8, r3
 80002aa:	d043      	beq.n	8000334 <__aeabi_fmul+0xc8>
 80002ac:	28ff      	cmp	r0, #255	; 0xff
 80002ae:	d03b      	beq.n	8000328 <__aeabi_fmul+0xbc>
 80002b0:	00eb      	lsls	r3, r5, #3
 80002b2:	2580      	movs	r5, #128	; 0x80
 80002b4:	2200      	movs	r2, #0
 80002b6:	04ed      	lsls	r5, r5, #19
 80002b8:	431d      	orrs	r5, r3
 80002ba:	387f      	subs	r0, #127	; 0x7f
 80002bc:	1836      	adds	r6, r6, r0
 80002be:	1c73      	adds	r3, r6, #1
 80002c0:	4641      	mov	r1, r8
 80002c2:	469b      	mov	fp, r3
 80002c4:	464b      	mov	r3, r9
 80002c6:	4061      	eors	r1, r4
 80002c8:	4313      	orrs	r3, r2
 80002ca:	2b0f      	cmp	r3, #15
 80002cc:	d864      	bhi.n	8000398 <__aeabi_fmul+0x12c>
 80002ce:	4875      	ldr	r0, [pc, #468]	; (80004a4 <__aeabi_fmul+0x238>)
 80002d0:	009b      	lsls	r3, r3, #2
 80002d2:	58c3      	ldr	r3, [r0, r3]
 80002d4:	469f      	mov	pc, r3
 80002d6:	2f00      	cmp	r7, #0
 80002d8:	d142      	bne.n	8000360 <__aeabi_fmul+0xf4>
 80002da:	2308      	movs	r3, #8
 80002dc:	4699      	mov	r9, r3
 80002de:	3b06      	subs	r3, #6
 80002e0:	26ff      	movs	r6, #255	; 0xff
 80002e2:	469a      	mov	sl, r3
 80002e4:	e7da      	b.n	800029c <__aeabi_fmul+0x30>
 80002e6:	4641      	mov	r1, r8
 80002e8:	2a02      	cmp	r2, #2
 80002ea:	d028      	beq.n	800033e <__aeabi_fmul+0xd2>
 80002ec:	2a03      	cmp	r2, #3
 80002ee:	d100      	bne.n	80002f2 <__aeabi_fmul+0x86>
 80002f0:	e0ce      	b.n	8000490 <__aeabi_fmul+0x224>
 80002f2:	2a01      	cmp	r2, #1
 80002f4:	d000      	beq.n	80002f8 <__aeabi_fmul+0x8c>
 80002f6:	e0ac      	b.n	8000452 <__aeabi_fmul+0x1e6>
 80002f8:	4011      	ands	r1, r2
 80002fa:	2000      	movs	r0, #0
 80002fc:	2200      	movs	r2, #0
 80002fe:	b2cc      	uxtb	r4, r1
 8000300:	0240      	lsls	r0, r0, #9
 8000302:	05d2      	lsls	r2, r2, #23
 8000304:	0a40      	lsrs	r0, r0, #9
 8000306:	07e4      	lsls	r4, r4, #31
 8000308:	4310      	orrs	r0, r2
 800030a:	4320      	orrs	r0, r4
 800030c:	bc3c      	pop	{r2, r3, r4, r5}
 800030e:	4690      	mov	r8, r2
 8000310:	4699      	mov	r9, r3
 8000312:	46a2      	mov	sl, r4
 8000314:	46ab      	mov	fp, r5
 8000316:	bdf8      	pop	{r3, r4, r5, r6, r7, pc}
 8000318:	2f00      	cmp	r7, #0
 800031a:	d115      	bne.n	8000348 <__aeabi_fmul+0xdc>
 800031c:	2304      	movs	r3, #4
 800031e:	4699      	mov	r9, r3
 8000320:	3b03      	subs	r3, #3
 8000322:	2600      	movs	r6, #0
 8000324:	469a      	mov	sl, r3
 8000326:	e7b9      	b.n	800029c <__aeabi_fmul+0x30>
 8000328:	20ff      	movs	r0, #255	; 0xff
 800032a:	2202      	movs	r2, #2
 800032c:	2d00      	cmp	r5, #0
 800032e:	d0c5      	beq.n	80002bc <__aeabi_fmul+0x50>
 8000330:	2203      	movs	r2, #3
 8000332:	e7c3      	b.n	80002bc <__aeabi_fmul+0x50>
 8000334:	2d00      	cmp	r5, #0
 8000336:	d119      	bne.n	800036c <__aeabi_fmul+0x100>
 8000338:	2000      	movs	r0, #0
 800033a:	2201      	movs	r2, #1
 800033c:	e7be      	b.n	80002bc <__aeabi_fmul+0x50>
 800033e:	2401      	movs	r4, #1
 8000340:	22ff      	movs	r2, #255	; 0xff
 8000342:	400c      	ands	r4, r1
 8000344:	2000      	movs	r0, #0
 8000346:	e7db      	b.n	8000300 <__aeabi_fmul+0x94>
 8000348:	0038      	movs	r0, r7
 800034a:	f001 fc83 	bl	8001c54 <__clzsi2>
 800034e:	2676      	movs	r6, #118	; 0x76
 8000350:	1f43      	subs	r3, r0, #5
 8000352:	409f      	lsls	r7, r3
 8000354:	2300      	movs	r3, #0
 8000356:	4276      	negs	r6, r6
 8000358:	1a36      	subs	r6, r6, r0
 800035a:	4699      	mov	r9, r3
 800035c:	469a      	mov	sl, r3
 800035e:	e79d      	b.n	800029c <__aeabi_fmul+0x30>
 8000360:	230c      	movs	r3, #12
 8000362:	4699      	mov	r9, r3
 8000364:	3b09      	subs	r3, #9
 8000366:	26ff      	movs	r6, #255	; 0xff
 8000368:	469a      	mov	sl, r3
 800036a:	e797      	b.n	800029c <__aeabi_fmul+0x30>
 800036c:	0028      	movs	r0, r5
 800036e:	f001 fc71 	bl	8001c54 <__clzsi2>
 8000372:	1f43      	subs	r3, r0, #5
 8000374:	409d      	lsls	r5, r3
 8000376:	2376      	movs	r3, #118	; 0x76
 8000378:	425b      	negs	r3, r3
 800037a:	1a18      	subs	r0, r3, r0
 800037c:	2200      	movs	r2, #0
 800037e:	e79d      	b.n	80002bc <__aeabi_fmul+0x50>
 8000380:	2080      	movs	r0, #128	; 0x80
 8000382:	2400      	movs	r4, #0
 8000384:	03c0      	lsls	r0, r0, #15
 8000386:	22ff      	movs	r2, #255	; 0xff
 8000388:	e7ba      	b.n	8000300 <__aeabi_fmul+0x94>
 800038a:	003d      	movs	r5, r7
 800038c:	4652      	mov	r2, sl
 800038e:	e7ab      	b.n	80002e8 <__aeabi_fmul+0x7c>
 8000390:	003d      	movs	r5, r7
 8000392:	0021      	movs	r1, r4
 8000394:	4652      	mov	r2, sl
 8000396:	e7a7      	b.n	80002e8 <__aeabi_fmul+0x7c>
 8000398:	0c3b      	lsrs	r3, r7, #16
 800039a:	469c      	mov	ip, r3
 800039c:	042a      	lsls	r2, r5, #16
 800039e:	0c12      	lsrs	r2, r2, #16
 80003a0:	0c2b      	lsrs	r3, r5, #16
 80003a2:	0014      	movs	r4, r2
 80003a4:	4660      	mov	r0, ip
 80003a6:	4665      	mov	r5, ip
 80003a8:	043f      	lsls	r7, r7, #16
 80003aa:	0c3f      	lsrs	r7, r7, #16
 80003ac:	437c      	muls	r4, r7
 80003ae:	4342      	muls	r2, r0
 80003b0:	435d      	muls	r5, r3
 80003b2:	437b      	muls	r3, r7
 80003b4:	0c27      	lsrs	r7, r4, #16
 80003b6:	189b      	adds	r3, r3, r2
 80003b8:	18ff      	adds	r7, r7, r3
 80003ba:	42ba      	cmp	r2, r7
 80003bc:	d903      	bls.n	80003c6 <__aeabi_fmul+0x15a>
 80003be:	2380      	movs	r3, #128	; 0x80
 80003c0:	025b      	lsls	r3, r3, #9
 80003c2:	469c      	mov	ip, r3
 80003c4:	4465      	add	r5, ip
 80003c6:	0424      	lsls	r4, r4, #16
 80003c8:	043a      	lsls	r2, r7, #16
 80003ca:	0c24      	lsrs	r4, r4, #16
 80003cc:	1912      	adds	r2, r2, r4
 80003ce:	0193      	lsls	r3, r2, #6
 80003d0:	1e5c      	subs	r4, r3, #1
 80003d2:	41a3      	sbcs	r3, r4
 80003d4:	0c3f      	lsrs	r7, r7, #16
 80003d6:	0e92      	lsrs	r2, r2, #26
 80003d8:	197d      	adds	r5, r7, r5
 80003da:	431a      	orrs	r2, r3
 80003dc:	01ad      	lsls	r5, r5, #6
 80003de:	4315      	orrs	r5, r2
 80003e0:	012b      	lsls	r3, r5, #4
 80003e2:	d504      	bpl.n	80003ee <__aeabi_fmul+0x182>
 80003e4:	2301      	movs	r3, #1
 80003e6:	465e      	mov	r6, fp
 80003e8:	086a      	lsrs	r2, r5, #1
 80003ea:	401d      	ands	r5, r3
 80003ec:	4315      	orrs	r5, r2
 80003ee:	0032      	movs	r2, r6
 80003f0:	327f      	adds	r2, #127	; 0x7f
 80003f2:	2a00      	cmp	r2, #0
 80003f4:	dd25      	ble.n	8000442 <__aeabi_fmul+0x1d6>
 80003f6:	076b      	lsls	r3, r5, #29
 80003f8:	d004      	beq.n	8000404 <__aeabi_fmul+0x198>
 80003fa:	230f      	movs	r3, #15
 80003fc:	402b      	ands	r3, r5
 80003fe:	2b04      	cmp	r3, #4
 8000400:	d000      	beq.n	8000404 <__aeabi_fmul+0x198>
 8000402:	3504      	adds	r5, #4
 8000404:	012b      	lsls	r3, r5, #4
 8000406:	d503      	bpl.n	8000410 <__aeabi_fmul+0x1a4>
 8000408:	0032      	movs	r2, r6
 800040a:	4b27      	ldr	r3, [pc, #156]	; (80004a8 <__aeabi_fmul+0x23c>)
 800040c:	3280      	adds	r2, #128	; 0x80
 800040e:	401d      	ands	r5, r3
 8000410:	2afe      	cmp	r2, #254	; 0xfe
 8000412:	dc94      	bgt.n	800033e <__aeabi_fmul+0xd2>
 8000414:	2401      	movs	r4, #1
 8000416:	01a8      	lsls	r0, r5, #6
 8000418:	0a40      	lsrs	r0, r0, #9
 800041a:	b2d2      	uxtb	r2, r2
 800041c:	400c      	ands	r4, r1
 800041e:	e76f      	b.n	8000300 <__aeabi_fmul+0x94>
 8000420:	2080      	movs	r0, #128	; 0x80
 8000422:	03c0      	lsls	r0, r0, #15
 8000424:	4207      	tst	r7, r0
 8000426:	d007      	beq.n	8000438 <__aeabi_fmul+0x1cc>
 8000428:	4205      	tst	r5, r0
 800042a:	d105      	bne.n	8000438 <__aeabi_fmul+0x1cc>
 800042c:	4328      	orrs	r0, r5
 800042e:	0240      	lsls	r0, r0, #9
 8000430:	0a40      	lsrs	r0, r0, #9
 8000432:	4644      	mov	r4, r8
 8000434:	22ff      	movs	r2, #255	; 0xff
 8000436:	e763      	b.n	8000300 <__aeabi_fmul+0x94>
 8000438:	4338      	orrs	r0, r7
 800043a:	0240      	lsls	r0, r0, #9
 800043c:	0a40      	lsrs	r0, r0, #9
 800043e:	22ff      	movs	r2, #255	; 0xff
 8000440:	e75e      	b.n	8000300 <__aeabi_fmul+0x94>
 8000442:	2401      	movs	r4, #1
 8000444:	1aa3      	subs	r3, r4, r2
 8000446:	2b1b      	cmp	r3, #27
 8000448:	dd05      	ble.n	8000456 <__aeabi_fmul+0x1ea>
 800044a:	400c      	ands	r4, r1
 800044c:	2200      	movs	r2, #0
 800044e:	2000      	movs	r0, #0
 8000450:	e756      	b.n	8000300 <__aeabi_fmul+0x94>
 8000452:	465e      	mov	r6, fp
 8000454:	e7cb      	b.n	80003ee <__aeabi_fmul+0x182>
 8000456:	002a      	movs	r2, r5
 8000458:	2020      	movs	r0, #32
 800045a:	40da      	lsrs	r2, r3
 800045c:	1ac3      	subs	r3, r0, r3
 800045e:	409d      	lsls	r5, r3
 8000460:	002b      	movs	r3, r5
 8000462:	1e5d      	subs	r5, r3, #1
 8000464:	41ab      	sbcs	r3, r5
 8000466:	4313      	orrs	r3, r2
 8000468:	075a      	lsls	r2, r3, #29
 800046a:	d004      	beq.n	8000476 <__aeabi_fmul+0x20a>
 800046c:	220f      	movs	r2, #15
 800046e:	401a      	ands	r2, r3
 8000470:	2a04      	cmp	r2, #4
 8000472:	d000      	beq.n	8000476 <__aeabi_fmul+0x20a>
 8000474:	3304      	adds	r3, #4
 8000476:	015a      	lsls	r2, r3, #5
 8000478:	d504      	bpl.n	8000484 <__aeabi_fmul+0x218>
 800047a:	2401      	movs	r4, #1
 800047c:	2201      	movs	r2, #1
 800047e:	400c      	ands	r4, r1
 8000480:	2000      	movs	r0, #0
 8000482:	e73d      	b.n	8000300 <__aeabi_fmul+0x94>
 8000484:	2401      	movs	r4, #1
 8000486:	019b      	lsls	r3, r3, #6
 8000488:	0a58      	lsrs	r0, r3, #9
 800048a:	400c      	ands	r4, r1
 800048c:	2200      	movs	r2, #0
 800048e:	e737      	b.n	8000300 <__aeabi_fmul+0x94>
 8000490:	2080      	movs	r0, #128	; 0x80
 8000492:	2401      	movs	r4, #1
 8000494:	03c0      	lsls	r0, r0, #15
 8000496:	4328      	orrs	r0, r5
 8000498:	0240      	lsls	r0, r0, #9
 800049a:	0a40      	lsrs	r0, r0, #9
 800049c:	400c      	ands	r4, r1
 800049e:	22ff      	movs	r2, #255	; 0xff
 80004a0:	e72e      	b.n	8000300 <__aeabi_fmul+0x94>
 80004a2:	46c0      	nop			; (mov r8, r8)
 80004a4:	080076d4 	.word	0x080076d4
 80004a8:	f7ffffff 	.word	0xf7ffffff

080004ac <__aeabi_fsub>:
 80004ac:	b5f0      	push	{r4, r5, r6, r7, lr}
 80004ae:	464f      	mov	r7, r9
 80004b0:	46d6      	mov	lr, sl
 80004b2:	4646      	mov	r6, r8
 80004b4:	0044      	lsls	r4, r0, #1
 80004b6:	b5c0      	push	{r6, r7, lr}
 80004b8:	0fc2      	lsrs	r2, r0, #31
 80004ba:	0247      	lsls	r7, r0, #9
 80004bc:	0248      	lsls	r0, r1, #9
 80004be:	0a40      	lsrs	r0, r0, #9
 80004c0:	4684      	mov	ip, r0
 80004c2:	4666      	mov	r6, ip
 80004c4:	0a7b      	lsrs	r3, r7, #9
 80004c6:	0048      	lsls	r0, r1, #1
 80004c8:	0fc9      	lsrs	r1, r1, #31
 80004ca:	469a      	mov	sl, r3
 80004cc:	0e24      	lsrs	r4, r4, #24
 80004ce:	0015      	movs	r5, r2
 80004d0:	00db      	lsls	r3, r3, #3
 80004d2:	0e00      	lsrs	r0, r0, #24
 80004d4:	4689      	mov	r9, r1
 80004d6:	00f6      	lsls	r6, r6, #3
 80004d8:	28ff      	cmp	r0, #255	; 0xff
 80004da:	d100      	bne.n	80004de <__aeabi_fsub+0x32>
 80004dc:	e08f      	b.n	80005fe <__aeabi_fsub+0x152>
 80004de:	2101      	movs	r1, #1
 80004e0:	464f      	mov	r7, r9
 80004e2:	404f      	eors	r7, r1
 80004e4:	0039      	movs	r1, r7
 80004e6:	4291      	cmp	r1, r2
 80004e8:	d066      	beq.n	80005b8 <__aeabi_fsub+0x10c>
 80004ea:	1a22      	subs	r2, r4, r0
 80004ec:	2a00      	cmp	r2, #0
 80004ee:	dc00      	bgt.n	80004f2 <__aeabi_fsub+0x46>
 80004f0:	e09d      	b.n	800062e <__aeabi_fsub+0x182>
 80004f2:	2800      	cmp	r0, #0
 80004f4:	d13d      	bne.n	8000572 <__aeabi_fsub+0xc6>
 80004f6:	2e00      	cmp	r6, #0
 80004f8:	d100      	bne.n	80004fc <__aeabi_fsub+0x50>
 80004fa:	e08b      	b.n	8000614 <__aeabi_fsub+0x168>
 80004fc:	1e51      	subs	r1, r2, #1
 80004fe:	2900      	cmp	r1, #0
 8000500:	d000      	beq.n	8000504 <__aeabi_fsub+0x58>
 8000502:	e0b5      	b.n	8000670 <__aeabi_fsub+0x1c4>
 8000504:	2401      	movs	r4, #1
 8000506:	1b9b      	subs	r3, r3, r6
 8000508:	015a      	lsls	r2, r3, #5
 800050a:	d544      	bpl.n	8000596 <__aeabi_fsub+0xea>
 800050c:	019b      	lsls	r3, r3, #6
 800050e:	099f      	lsrs	r7, r3, #6
 8000510:	0038      	movs	r0, r7
 8000512:	f001 fb9f 	bl	8001c54 <__clzsi2>
 8000516:	3805      	subs	r0, #5
 8000518:	4087      	lsls	r7, r0
 800051a:	4284      	cmp	r4, r0
 800051c:	dd00      	ble.n	8000520 <__aeabi_fsub+0x74>
 800051e:	e096      	b.n	800064e <__aeabi_fsub+0x1a2>
 8000520:	1b04      	subs	r4, r0, r4
 8000522:	003a      	movs	r2, r7
 8000524:	2020      	movs	r0, #32
 8000526:	3401      	adds	r4, #1
 8000528:	40e2      	lsrs	r2, r4
 800052a:	1b04      	subs	r4, r0, r4
 800052c:	40a7      	lsls	r7, r4
 800052e:	003b      	movs	r3, r7
 8000530:	1e5f      	subs	r7, r3, #1
 8000532:	41bb      	sbcs	r3, r7
 8000534:	2400      	movs	r4, #0
 8000536:	4313      	orrs	r3, r2
 8000538:	075a      	lsls	r2, r3, #29
 800053a:	d004      	beq.n	8000546 <__aeabi_fsub+0x9a>
 800053c:	220f      	movs	r2, #15
 800053e:	401a      	ands	r2, r3
 8000540:	2a04      	cmp	r2, #4
 8000542:	d000      	beq.n	8000546 <__aeabi_fsub+0x9a>
 8000544:	3304      	adds	r3, #4
 8000546:	015a      	lsls	r2, r3, #5
 8000548:	d527      	bpl.n	800059a <__aeabi_fsub+0xee>
 800054a:	3401      	adds	r4, #1
 800054c:	2cff      	cmp	r4, #255	; 0xff
 800054e:	d100      	bne.n	8000552 <__aeabi_fsub+0xa6>
 8000550:	e079      	b.n	8000646 <__aeabi_fsub+0x19a>
 8000552:	2201      	movs	r2, #1
 8000554:	019b      	lsls	r3, r3, #6
 8000556:	0a5b      	lsrs	r3, r3, #9
 8000558:	b2e4      	uxtb	r4, r4
 800055a:	402a      	ands	r2, r5
 800055c:	025b      	lsls	r3, r3, #9
 800055e:	05e4      	lsls	r4, r4, #23
 8000560:	0a58      	lsrs	r0, r3, #9
 8000562:	07d2      	lsls	r2, r2, #31
 8000564:	4320      	orrs	r0, r4
 8000566:	4310      	orrs	r0, r2
 8000568:	bc1c      	pop	{r2, r3, r4}
 800056a:	4690      	mov	r8, r2
 800056c:	4699      	mov	r9, r3
 800056e:	46a2      	mov	sl, r4
 8000570:	bdf0      	pop	{r4, r5, r6, r7, pc}
 8000572:	2cff      	cmp	r4, #255	; 0xff
 8000574:	d0e0      	beq.n	8000538 <__aeabi_fsub+0x8c>
 8000576:	2180      	movs	r1, #128	; 0x80
 8000578:	04c9      	lsls	r1, r1, #19
 800057a:	430e      	orrs	r6, r1
 800057c:	2a1b      	cmp	r2, #27
 800057e:	dc7b      	bgt.n	8000678 <__aeabi_fsub+0x1cc>
 8000580:	0031      	movs	r1, r6
 8000582:	2020      	movs	r0, #32
 8000584:	40d1      	lsrs	r1, r2
 8000586:	1a82      	subs	r2, r0, r2
 8000588:	4096      	lsls	r6, r2
 800058a:	1e72      	subs	r2, r6, #1
 800058c:	4196      	sbcs	r6, r2
 800058e:	430e      	orrs	r6, r1
 8000590:	1b9b      	subs	r3, r3, r6
 8000592:	015a      	lsls	r2, r3, #5
 8000594:	d4ba      	bmi.n	800050c <__aeabi_fsub+0x60>
 8000596:	075a      	lsls	r2, r3, #29
 8000598:	d1d0      	bne.n	800053c <__aeabi_fsub+0x90>
 800059a:	2201      	movs	r2, #1
 800059c:	08df      	lsrs	r7, r3, #3
 800059e:	402a      	ands	r2, r5
 80005a0:	2cff      	cmp	r4, #255	; 0xff
 80005a2:	d133      	bne.n	800060c <__aeabi_fsub+0x160>
 80005a4:	2f00      	cmp	r7, #0
 80005a6:	d100      	bne.n	80005aa <__aeabi_fsub+0xfe>
 80005a8:	e0a8      	b.n	80006fc <__aeabi_fsub+0x250>
 80005aa:	2380      	movs	r3, #128	; 0x80
 80005ac:	03db      	lsls	r3, r3, #15
 80005ae:	433b      	orrs	r3, r7
 80005b0:	025b      	lsls	r3, r3, #9
 80005b2:	0a5b      	lsrs	r3, r3, #9
 80005b4:	24ff      	movs	r4, #255	; 0xff
 80005b6:	e7d1      	b.n	800055c <__aeabi_fsub+0xb0>
 80005b8:	1a21      	subs	r1, r4, r0
 80005ba:	2900      	cmp	r1, #0
 80005bc:	dd4c      	ble.n	8000658 <__aeabi_fsub+0x1ac>
 80005be:	2800      	cmp	r0, #0
 80005c0:	d02a      	beq.n	8000618 <__aeabi_fsub+0x16c>
 80005c2:	2cff      	cmp	r4, #255	; 0xff
 80005c4:	d0b8      	beq.n	8000538 <__aeabi_fsub+0x8c>
 80005c6:	2080      	movs	r0, #128	; 0x80
 80005c8:	04c0      	lsls	r0, r0, #19
 80005ca:	4306      	orrs	r6, r0
 80005cc:	291b      	cmp	r1, #27
 80005ce:	dd00      	ble.n	80005d2 <__aeabi_fsub+0x126>
 80005d0:	e0af      	b.n	8000732 <__aeabi_fsub+0x286>
 80005d2:	0030      	movs	r0, r6
 80005d4:	2720      	movs	r7, #32
 80005d6:	40c8      	lsrs	r0, r1
 80005d8:	1a79      	subs	r1, r7, r1
 80005da:	408e      	lsls	r6, r1
 80005dc:	1e71      	subs	r1, r6, #1
 80005de:	418e      	sbcs	r6, r1
 80005e0:	4306      	orrs	r6, r0
 80005e2:	199b      	adds	r3, r3, r6
 80005e4:	0159      	lsls	r1, r3, #5
 80005e6:	d5d6      	bpl.n	8000596 <__aeabi_fsub+0xea>
 80005e8:	3401      	adds	r4, #1
 80005ea:	2cff      	cmp	r4, #255	; 0xff
 80005ec:	d100      	bne.n	80005f0 <__aeabi_fsub+0x144>
 80005ee:	e085      	b.n	80006fc <__aeabi_fsub+0x250>
 80005f0:	2201      	movs	r2, #1
 80005f2:	497a      	ldr	r1, [pc, #488]	; (80007dc <__aeabi_fsub+0x330>)
 80005f4:	401a      	ands	r2, r3
 80005f6:	085b      	lsrs	r3, r3, #1
 80005f8:	400b      	ands	r3, r1
 80005fa:	4313      	orrs	r3, r2
 80005fc:	e79c      	b.n	8000538 <__aeabi_fsub+0x8c>
 80005fe:	2e00      	cmp	r6, #0
 8000600:	d000      	beq.n	8000604 <__aeabi_fsub+0x158>
 8000602:	e770      	b.n	80004e6 <__aeabi_fsub+0x3a>
 8000604:	e76b      	b.n	80004de <__aeabi_fsub+0x32>
 8000606:	1e3b      	subs	r3, r7, #0
 8000608:	d1c5      	bne.n	8000596 <__aeabi_fsub+0xea>
 800060a:	2200      	movs	r2, #0
 800060c:	027b      	lsls	r3, r7, #9
 800060e:	0a5b      	lsrs	r3, r3, #9
 8000610:	b2e4      	uxtb	r4, r4
 8000612:	e7a3      	b.n	800055c <__aeabi_fsub+0xb0>
 8000614:	0014      	movs	r4, r2
 8000616:	e78f      	b.n	8000538 <__aeabi_fsub+0x8c>
 8000618:	2e00      	cmp	r6, #0
 800061a:	d04d      	beq.n	80006b8 <__aeabi_fsub+0x20c>
 800061c:	1e48      	subs	r0, r1, #1
 800061e:	2800      	cmp	r0, #0
 8000620:	d157      	bne.n	80006d2 <__aeabi_fsub+0x226>
 8000622:	199b      	adds	r3, r3, r6
 8000624:	2401      	movs	r4, #1
 8000626:	015a      	lsls	r2, r3, #5
 8000628:	d5b5      	bpl.n	8000596 <__aeabi_fsub+0xea>
 800062a:	2402      	movs	r4, #2
 800062c:	e7e0      	b.n	80005f0 <__aeabi_fsub+0x144>
 800062e:	2a00      	cmp	r2, #0
 8000630:	d125      	bne.n	800067e <__aeabi_fsub+0x1d2>
 8000632:	1c62      	adds	r2, r4, #1
 8000634:	b2d2      	uxtb	r2, r2
 8000636:	2a01      	cmp	r2, #1
 8000638:	dd72      	ble.n	8000720 <__aeabi_fsub+0x274>
 800063a:	1b9f      	subs	r7, r3, r6
 800063c:	017a      	lsls	r2, r7, #5
 800063e:	d535      	bpl.n	80006ac <__aeabi_fsub+0x200>
 8000640:	1af7      	subs	r7, r6, r3
 8000642:	000d      	movs	r5, r1
 8000644:	e764      	b.n	8000510 <__aeabi_fsub+0x64>
 8000646:	2201      	movs	r2, #1
 8000648:	2300      	movs	r3, #0
 800064a:	402a      	ands	r2, r5
 800064c:	e786      	b.n	800055c <__aeabi_fsub+0xb0>
 800064e:	003b      	movs	r3, r7
 8000650:	4a63      	ldr	r2, [pc, #396]	; (80007e0 <__aeabi_fsub+0x334>)
 8000652:	1a24      	subs	r4, r4, r0
 8000654:	4013      	ands	r3, r2
 8000656:	e76f      	b.n	8000538 <__aeabi_fsub+0x8c>
 8000658:	2900      	cmp	r1, #0
 800065a:	d16c      	bne.n	8000736 <__aeabi_fsub+0x28a>
 800065c:	1c61      	adds	r1, r4, #1
 800065e:	b2c8      	uxtb	r0, r1
 8000660:	2801      	cmp	r0, #1
 8000662:	dd4e      	ble.n	8000702 <__aeabi_fsub+0x256>
 8000664:	29ff      	cmp	r1, #255	; 0xff
 8000666:	d049      	beq.n	80006fc <__aeabi_fsub+0x250>
 8000668:	199b      	adds	r3, r3, r6
 800066a:	085b      	lsrs	r3, r3, #1
 800066c:	000c      	movs	r4, r1
 800066e:	e763      	b.n	8000538 <__aeabi_fsub+0x8c>
 8000670:	2aff      	cmp	r2, #255	; 0xff
 8000672:	d041      	beq.n	80006f8 <__aeabi_fsub+0x24c>
 8000674:	000a      	movs	r2, r1
 8000676:	e781      	b.n	800057c <__aeabi_fsub+0xd0>
 8000678:	2601      	movs	r6, #1
 800067a:	1b9b      	subs	r3, r3, r6
 800067c:	e789      	b.n	8000592 <__aeabi_fsub+0xe6>
 800067e:	2c00      	cmp	r4, #0
 8000680:	d01c      	beq.n	80006bc <__aeabi_fsub+0x210>
 8000682:	28ff      	cmp	r0, #255	; 0xff
 8000684:	d021      	beq.n	80006ca <__aeabi_fsub+0x21e>
 8000686:	2480      	movs	r4, #128	; 0x80
 8000688:	04e4      	lsls	r4, r4, #19
 800068a:	4252      	negs	r2, r2
 800068c:	4323      	orrs	r3, r4
 800068e:	2a1b      	cmp	r2, #27
 8000690:	dd00      	ble.n	8000694 <__aeabi_fsub+0x1e8>
 8000692:	e096      	b.n	80007c2 <__aeabi_fsub+0x316>
 8000694:	001c      	movs	r4, r3
 8000696:	2520      	movs	r5, #32
 8000698:	40d4      	lsrs	r4, r2
 800069a:	1aaa      	subs	r2, r5, r2
 800069c:	4093      	lsls	r3, r2
 800069e:	1e5a      	subs	r2, r3, #1
 80006a0:	4193      	sbcs	r3, r2
 80006a2:	4323      	orrs	r3, r4
 80006a4:	1af3      	subs	r3, r6, r3
 80006a6:	0004      	movs	r4, r0
 80006a8:	000d      	movs	r5, r1
 80006aa:	e72d      	b.n	8000508 <__aeabi_fsub+0x5c>
 80006ac:	2f00      	cmp	r7, #0
 80006ae:	d000      	beq.n	80006b2 <__aeabi_fsub+0x206>
 80006b0:	e72e      	b.n	8000510 <__aeabi_fsub+0x64>
 80006b2:	2200      	movs	r2, #0
 80006b4:	2400      	movs	r4, #0
 80006b6:	e7a9      	b.n	800060c <__aeabi_fsub+0x160>
 80006b8:	000c      	movs	r4, r1
 80006ba:	e73d      	b.n	8000538 <__aeabi_fsub+0x8c>
 80006bc:	2b00      	cmp	r3, #0
 80006be:	d058      	beq.n	8000772 <__aeabi_fsub+0x2c6>
 80006c0:	43d2      	mvns	r2, r2
 80006c2:	2a00      	cmp	r2, #0
 80006c4:	d0ee      	beq.n	80006a4 <__aeabi_fsub+0x1f8>
 80006c6:	28ff      	cmp	r0, #255	; 0xff
 80006c8:	d1e1      	bne.n	800068e <__aeabi_fsub+0x1e2>
 80006ca:	0033      	movs	r3, r6
 80006cc:	24ff      	movs	r4, #255	; 0xff
 80006ce:	000d      	movs	r5, r1
 80006d0:	e732      	b.n	8000538 <__aeabi_fsub+0x8c>
 80006d2:	29ff      	cmp	r1, #255	; 0xff
 80006d4:	d010      	beq.n	80006f8 <__aeabi_fsub+0x24c>
 80006d6:	0001      	movs	r1, r0
 80006d8:	e778      	b.n	80005cc <__aeabi_fsub+0x120>
 80006da:	2b00      	cmp	r3, #0
 80006dc:	d06e      	beq.n	80007bc <__aeabi_fsub+0x310>
 80006de:	24ff      	movs	r4, #255	; 0xff
 80006e0:	2e00      	cmp	r6, #0
 80006e2:	d100      	bne.n	80006e6 <__aeabi_fsub+0x23a>
 80006e4:	e728      	b.n	8000538 <__aeabi_fsub+0x8c>
 80006e6:	2280      	movs	r2, #128	; 0x80
 80006e8:	4651      	mov	r1, sl
 80006ea:	03d2      	lsls	r2, r2, #15
 80006ec:	4211      	tst	r1, r2
 80006ee:	d003      	beq.n	80006f8 <__aeabi_fsub+0x24c>
 80006f0:	4661      	mov	r1, ip
 80006f2:	4211      	tst	r1, r2
 80006f4:	d100      	bne.n	80006f8 <__aeabi_fsub+0x24c>
 80006f6:	0033      	movs	r3, r6
 80006f8:	24ff      	movs	r4, #255	; 0xff
 80006fa:	e71d      	b.n	8000538 <__aeabi_fsub+0x8c>
 80006fc:	24ff      	movs	r4, #255	; 0xff
 80006fe:	2300      	movs	r3, #0
 8000700:	e72c      	b.n	800055c <__aeabi_fsub+0xb0>
 8000702:	2c00      	cmp	r4, #0
 8000704:	d1e9      	bne.n	80006da <__aeabi_fsub+0x22e>
 8000706:	2b00      	cmp	r3, #0
 8000708:	d063      	beq.n	80007d2 <__aeabi_fsub+0x326>
 800070a:	2e00      	cmp	r6, #0
 800070c:	d100      	bne.n	8000710 <__aeabi_fsub+0x264>
 800070e:	e713      	b.n	8000538 <__aeabi_fsub+0x8c>
 8000710:	199b      	adds	r3, r3, r6
 8000712:	015a      	lsls	r2, r3, #5
 8000714:	d400      	bmi.n	8000718 <__aeabi_fsub+0x26c>
 8000716:	e73e      	b.n	8000596 <__aeabi_fsub+0xea>
 8000718:	4a31      	ldr	r2, [pc, #196]	; (80007e0 <__aeabi_fsub+0x334>)
 800071a:	000c      	movs	r4, r1
 800071c:	4013      	ands	r3, r2
 800071e:	e70b      	b.n	8000538 <__aeabi_fsub+0x8c>
 8000720:	2c00      	cmp	r4, #0
 8000722:	d11e      	bne.n	8000762 <__aeabi_fsub+0x2b6>
 8000724:	2b00      	cmp	r3, #0
 8000726:	d12f      	bne.n	8000788 <__aeabi_fsub+0x2dc>
 8000728:	2e00      	cmp	r6, #0
 800072a:	d04f      	beq.n	80007cc <__aeabi_fsub+0x320>
 800072c:	0033      	movs	r3, r6
 800072e:	000d      	movs	r5, r1
 8000730:	e702      	b.n	8000538 <__aeabi_fsub+0x8c>
 8000732:	2601      	movs	r6, #1
 8000734:	e755      	b.n	80005e2 <__aeabi_fsub+0x136>
 8000736:	2c00      	cmp	r4, #0
 8000738:	d11f      	bne.n	800077a <__aeabi_fsub+0x2ce>
 800073a:	2b00      	cmp	r3, #0
 800073c:	d043      	beq.n	80007c6 <__aeabi_fsub+0x31a>
 800073e:	43c9      	mvns	r1, r1
 8000740:	2900      	cmp	r1, #0
 8000742:	d00b      	beq.n	800075c <__aeabi_fsub+0x2b0>
 8000744:	28ff      	cmp	r0, #255	; 0xff
 8000746:	d039      	beq.n	80007bc <__aeabi_fsub+0x310>
 8000748:	291b      	cmp	r1, #27
 800074a:	dc44      	bgt.n	80007d6 <__aeabi_fsub+0x32a>
 800074c:	001c      	movs	r4, r3
 800074e:	2720      	movs	r7, #32
 8000750:	40cc      	lsrs	r4, r1
 8000752:	1a79      	subs	r1, r7, r1
 8000754:	408b      	lsls	r3, r1
 8000756:	1e59      	subs	r1, r3, #1
 8000758:	418b      	sbcs	r3, r1
 800075a:	4323      	orrs	r3, r4
 800075c:	199b      	adds	r3, r3, r6
 800075e:	0004      	movs	r4, r0
 8000760:	e740      	b.n	80005e4 <__aeabi_fsub+0x138>
 8000762:	2b00      	cmp	r3, #0
 8000764:	d11a      	bne.n	800079c <__aeabi_fsub+0x2f0>
 8000766:	2e00      	cmp	r6, #0
 8000768:	d124      	bne.n	80007b4 <__aeabi_fsub+0x308>
 800076a:	2780      	movs	r7, #128	; 0x80
 800076c:	2200      	movs	r2, #0
 800076e:	03ff      	lsls	r7, r7, #15
 8000770:	e71b      	b.n	80005aa <__aeabi_fsub+0xfe>
 8000772:	0033      	movs	r3, r6
 8000774:	0004      	movs	r4, r0
 8000776:	000d      	movs	r5, r1
 8000778:	e6de      	b.n	8000538 <__aeabi_fsub+0x8c>
 800077a:	28ff      	cmp	r0, #255	; 0xff
 800077c:	d01e      	beq.n	80007bc <__aeabi_fsub+0x310>
 800077e:	2480      	movs	r4, #128	; 0x80
 8000780:	04e4      	lsls	r4, r4, #19
 8000782:	4249      	negs	r1, r1
 8000784:	4323      	orrs	r3, r4
 8000786:	e7df      	b.n	8000748 <__aeabi_fsub+0x29c>
 8000788:	2e00      	cmp	r6, #0
 800078a:	d100      	bne.n	800078e <__aeabi_fsub+0x2e2>
 800078c:	e6d4      	b.n	8000538 <__aeabi_fsub+0x8c>
 800078e:	1b9f      	subs	r7, r3, r6
 8000790:	017a      	lsls	r2, r7, #5
 8000792:	d400      	bmi.n	8000796 <__aeabi_fsub+0x2ea>
 8000794:	e737      	b.n	8000606 <__aeabi_fsub+0x15a>
 8000796:	1af3      	subs	r3, r6, r3
 8000798:	000d      	movs	r5, r1
 800079a:	e6cd      	b.n	8000538 <__aeabi_fsub+0x8c>
 800079c:	24ff      	movs	r4, #255	; 0xff
 800079e:	2e00      	cmp	r6, #0
 80007a0:	d100      	bne.n	80007a4 <__aeabi_fsub+0x2f8>
 80007a2:	e6c9      	b.n	8000538 <__aeabi_fsub+0x8c>
 80007a4:	2280      	movs	r2, #128	; 0x80
 80007a6:	4650      	mov	r0, sl
 80007a8:	03d2      	lsls	r2, r2, #15
 80007aa:	4210      	tst	r0, r2
 80007ac:	d0a4      	beq.n	80006f8 <__aeabi_fsub+0x24c>
 80007ae:	4660      	mov	r0, ip
 80007b0:	4210      	tst	r0, r2
 80007b2:	d1a1      	bne.n	80006f8 <__aeabi_fsub+0x24c>
 80007b4:	0033      	movs	r3, r6
 80007b6:	000d      	movs	r5, r1
 80007b8:	24ff      	movs	r4, #255	; 0xff
 80007ba:	e6bd      	b.n	8000538 <__aeabi_fsub+0x8c>
 80007bc:	0033      	movs	r3, r6
 80007be:	24ff      	movs	r4, #255	; 0xff
 80007c0:	e6ba      	b.n	8000538 <__aeabi_fsub+0x8c>
 80007c2:	2301      	movs	r3, #1
 80007c4:	e76e      	b.n	80006a4 <__aeabi_fsub+0x1f8>
 80007c6:	0033      	movs	r3, r6
 80007c8:	0004      	movs	r4, r0
 80007ca:	e6b5      	b.n	8000538 <__aeabi_fsub+0x8c>
 80007cc:	2700      	movs	r7, #0
 80007ce:	2200      	movs	r2, #0
 80007d0:	e71c      	b.n	800060c <__aeabi_fsub+0x160>
 80007d2:	0033      	movs	r3, r6
 80007d4:	e6b0      	b.n	8000538 <__aeabi_fsub+0x8c>
 80007d6:	2301      	movs	r3, #1
 80007d8:	e7c0      	b.n	800075c <__aeabi_fsub+0x2b0>
 80007da:	46c0      	nop			; (mov r8, r8)
 80007dc:	7dffffff 	.word	0x7dffffff
 80007e0:	fbffffff 	.word	0xfbffffff

080007e4 <__aeabi_f2iz>:
 80007e4:	0241      	lsls	r1, r0, #9
 80007e6:	0043      	lsls	r3, r0, #1
 80007e8:	0fc2      	lsrs	r2, r0, #31
 80007ea:	0a49      	lsrs	r1, r1, #9
 80007ec:	0e1b      	lsrs	r3, r3, #24
 80007ee:	2000      	movs	r0, #0
 80007f0:	2b7e      	cmp	r3, #126	; 0x7e
 80007f2:	dd0d      	ble.n	8000810 <__aeabi_f2iz+0x2c>
 80007f4:	2b9d      	cmp	r3, #157	; 0x9d
 80007f6:	dc0c      	bgt.n	8000812 <__aeabi_f2iz+0x2e>
 80007f8:	2080      	movs	r0, #128	; 0x80
 80007fa:	0400      	lsls	r0, r0, #16
 80007fc:	4301      	orrs	r1, r0
 80007fe:	2b95      	cmp	r3, #149	; 0x95
 8000800:	dc0a      	bgt.n	8000818 <__aeabi_f2iz+0x34>
 8000802:	2096      	movs	r0, #150	; 0x96
 8000804:	1ac3      	subs	r3, r0, r3
 8000806:	40d9      	lsrs	r1, r3
 8000808:	4248      	negs	r0, r1
 800080a:	2a00      	cmp	r2, #0
 800080c:	d100      	bne.n	8000810 <__aeabi_f2iz+0x2c>
 800080e:	0008      	movs	r0, r1
 8000810:	4770      	bx	lr
 8000812:	4b03      	ldr	r3, [pc, #12]	; (8000820 <__aeabi_f2iz+0x3c>)
 8000814:	18d0      	adds	r0, r2, r3
 8000816:	e7fb      	b.n	8000810 <__aeabi_f2iz+0x2c>
 8000818:	3b96      	subs	r3, #150	; 0x96
 800081a:	4099      	lsls	r1, r3
 800081c:	e7f4      	b.n	8000808 <__aeabi_f2iz+0x24>
 800081e:	46c0      	nop			; (mov r8, r8)
 8000820:	7fffffff 	.word	0x7fffffff

08000824 <__aeabi_i2f>:
 8000824:	b570      	push	{r4, r5, r6, lr}
 8000826:	2800      	cmp	r0, #0
 8000828:	d030      	beq.n	800088c <__aeabi_i2f+0x68>
 800082a:	17c3      	asrs	r3, r0, #31
 800082c:	18c4      	adds	r4, r0, r3
 800082e:	405c      	eors	r4, r3
 8000830:	0fc5      	lsrs	r5, r0, #31
 8000832:	0020      	movs	r0, r4
 8000834:	f001 fa0e 	bl	8001c54 <__clzsi2>
 8000838:	239e      	movs	r3, #158	; 0x9e
 800083a:	1a1b      	subs	r3, r3, r0
 800083c:	2b96      	cmp	r3, #150	; 0x96
 800083e:	dc0d      	bgt.n	800085c <__aeabi_i2f+0x38>
 8000840:	2296      	movs	r2, #150	; 0x96
 8000842:	1ad2      	subs	r2, r2, r3
 8000844:	4094      	lsls	r4, r2
 8000846:	002a      	movs	r2, r5
 8000848:	0264      	lsls	r4, r4, #9
 800084a:	0a64      	lsrs	r4, r4, #9
 800084c:	b2db      	uxtb	r3, r3
 800084e:	0264      	lsls	r4, r4, #9
 8000850:	05db      	lsls	r3, r3, #23
 8000852:	0a60      	lsrs	r0, r4, #9
 8000854:	07d2      	lsls	r2, r2, #31
 8000856:	4318      	orrs	r0, r3
 8000858:	4310      	orrs	r0, r2
 800085a:	bd70      	pop	{r4, r5, r6, pc}
 800085c:	2b99      	cmp	r3, #153	; 0x99
 800085e:	dc19      	bgt.n	8000894 <__aeabi_i2f+0x70>
 8000860:	2299      	movs	r2, #153	; 0x99
 8000862:	1ad2      	subs	r2, r2, r3
 8000864:	2a00      	cmp	r2, #0
 8000866:	dd29      	ble.n	80008bc <__aeabi_i2f+0x98>
 8000868:	4094      	lsls	r4, r2
 800086a:	0022      	movs	r2, r4
 800086c:	4c14      	ldr	r4, [pc, #80]	; (80008c0 <__aeabi_i2f+0x9c>)
 800086e:	4014      	ands	r4, r2
 8000870:	0751      	lsls	r1, r2, #29
 8000872:	d004      	beq.n	800087e <__aeabi_i2f+0x5a>
 8000874:	210f      	movs	r1, #15
 8000876:	400a      	ands	r2, r1
 8000878:	2a04      	cmp	r2, #4
 800087a:	d000      	beq.n	800087e <__aeabi_i2f+0x5a>
 800087c:	3404      	adds	r4, #4
 800087e:	0162      	lsls	r2, r4, #5
 8000880:	d413      	bmi.n	80008aa <__aeabi_i2f+0x86>
 8000882:	01a4      	lsls	r4, r4, #6
 8000884:	0a64      	lsrs	r4, r4, #9
 8000886:	b2db      	uxtb	r3, r3
 8000888:	002a      	movs	r2, r5
 800088a:	e7e0      	b.n	800084e <__aeabi_i2f+0x2a>
 800088c:	2200      	movs	r2, #0
 800088e:	2300      	movs	r3, #0
 8000890:	2400      	movs	r4, #0
 8000892:	e7dc      	b.n	800084e <__aeabi_i2f+0x2a>
 8000894:	2205      	movs	r2, #5
 8000896:	0021      	movs	r1, r4
 8000898:	1a12      	subs	r2, r2, r0
 800089a:	40d1      	lsrs	r1, r2
 800089c:	22b9      	movs	r2, #185	; 0xb9
 800089e:	1ad2      	subs	r2, r2, r3
 80008a0:	4094      	lsls	r4, r2
 80008a2:	1e62      	subs	r2, r4, #1
 80008a4:	4194      	sbcs	r4, r2
 80008a6:	430c      	orrs	r4, r1
 80008a8:	e7da      	b.n	8000860 <__aeabi_i2f+0x3c>
 80008aa:	4b05      	ldr	r3, [pc, #20]	; (80008c0 <__aeabi_i2f+0x9c>)
 80008ac:	002a      	movs	r2, r5
 80008ae:	401c      	ands	r4, r3
 80008b0:	239f      	movs	r3, #159	; 0x9f
 80008b2:	01a4      	lsls	r4, r4, #6
 80008b4:	1a1b      	subs	r3, r3, r0
 80008b6:	0a64      	lsrs	r4, r4, #9
 80008b8:	b2db      	uxtb	r3, r3
 80008ba:	e7c8      	b.n	800084e <__aeabi_i2f+0x2a>
 80008bc:	0022      	movs	r2, r4
 80008be:	e7d5      	b.n	800086c <__aeabi_i2f+0x48>
 80008c0:	fbffffff 	.word	0xfbffffff

080008c4 <__aeabi_ui2f>:
 80008c4:	b510      	push	{r4, lr}
 80008c6:	1e04      	subs	r4, r0, #0
 80008c8:	d027      	beq.n	800091a <__aeabi_ui2f+0x56>
 80008ca:	f001 f9c3 	bl	8001c54 <__clzsi2>
 80008ce:	239e      	movs	r3, #158	; 0x9e
 80008d0:	1a1b      	subs	r3, r3, r0
 80008d2:	2b96      	cmp	r3, #150	; 0x96
 80008d4:	dc0a      	bgt.n	80008ec <__aeabi_ui2f+0x28>
 80008d6:	2296      	movs	r2, #150	; 0x96
 80008d8:	1ad2      	subs	r2, r2, r3
 80008da:	4094      	lsls	r4, r2
 80008dc:	0264      	lsls	r4, r4, #9
 80008de:	0a64      	lsrs	r4, r4, #9
 80008e0:	b2db      	uxtb	r3, r3
 80008e2:	0264      	lsls	r4, r4, #9
 80008e4:	05db      	lsls	r3, r3, #23
 80008e6:	0a60      	lsrs	r0, r4, #9
 80008e8:	4318      	orrs	r0, r3
 80008ea:	bd10      	pop	{r4, pc}
 80008ec:	2b99      	cmp	r3, #153	; 0x99
 80008ee:	dc17      	bgt.n	8000920 <__aeabi_ui2f+0x5c>
 80008f0:	2299      	movs	r2, #153	; 0x99
 80008f2:	1ad2      	subs	r2, r2, r3
 80008f4:	2a00      	cmp	r2, #0
 80008f6:	dd27      	ble.n	8000948 <__aeabi_ui2f+0x84>
 80008f8:	4094      	lsls	r4, r2
 80008fa:	0022      	movs	r2, r4
 80008fc:	4c13      	ldr	r4, [pc, #76]	; (800094c <__aeabi_ui2f+0x88>)
 80008fe:	4014      	ands	r4, r2
 8000900:	0751      	lsls	r1, r2, #29
 8000902:	d004      	beq.n	800090e <__aeabi_ui2f+0x4a>
 8000904:	210f      	movs	r1, #15
 8000906:	400a      	ands	r2, r1
 8000908:	2a04      	cmp	r2, #4
 800090a:	d000      	beq.n	800090e <__aeabi_ui2f+0x4a>
 800090c:	3404      	adds	r4, #4
 800090e:	0162      	lsls	r2, r4, #5
 8000910:	d412      	bmi.n	8000938 <__aeabi_ui2f+0x74>
 8000912:	01a4      	lsls	r4, r4, #6
 8000914:	0a64      	lsrs	r4, r4, #9
 8000916:	b2db      	uxtb	r3, r3
 8000918:	e7e3      	b.n	80008e2 <__aeabi_ui2f+0x1e>
 800091a:	2300      	movs	r3, #0
 800091c:	2400      	movs	r4, #0
 800091e:	e7e0      	b.n	80008e2 <__aeabi_ui2f+0x1e>
 8000920:	22b9      	movs	r2, #185	; 0xb9
 8000922:	0021      	movs	r1, r4
 8000924:	1ad2      	subs	r2, r2, r3
 8000926:	4091      	lsls	r1, r2
 8000928:	000a      	movs	r2, r1
 800092a:	1e51      	subs	r1, r2, #1
 800092c:	418a      	sbcs	r2, r1
 800092e:	2105      	movs	r1, #5
 8000930:	1a09      	subs	r1, r1, r0
 8000932:	40cc      	lsrs	r4, r1
 8000934:	4314      	orrs	r4, r2
 8000936:	e7db      	b.n	80008f0 <__aeabi_ui2f+0x2c>
 8000938:	4b04      	ldr	r3, [pc, #16]	; (800094c <__aeabi_ui2f+0x88>)
 800093a:	401c      	ands	r4, r3
 800093c:	239f      	movs	r3, #159	; 0x9f
 800093e:	01a4      	lsls	r4, r4, #6
 8000940:	1a1b      	subs	r3, r3, r0
 8000942:	0a64      	lsrs	r4, r4, #9
 8000944:	b2db      	uxtb	r3, r3
 8000946:	e7cc      	b.n	80008e2 <__aeabi_ui2f+0x1e>
 8000948:	0022      	movs	r2, r4
 800094a:	e7d7      	b.n	80008fc <__aeabi_ui2f+0x38>
 800094c:	fbffffff 	.word	0xfbffffff

08000950 <__aeabi_dadd>:
 8000950:	b5f8      	push	{r3, r4, r5, r6, r7, lr}
 8000952:	4645      	mov	r5, r8
 8000954:	46de      	mov	lr, fp
 8000956:	4657      	mov	r7, sl
 8000958:	464e      	mov	r6, r9
 800095a:	030c      	lsls	r4, r1, #12
 800095c:	b5e0      	push	{r5, r6, r7, lr}
 800095e:	004e      	lsls	r6, r1, #1
 8000960:	0fc9      	lsrs	r1, r1, #31
 8000962:	4688      	mov	r8, r1
 8000964:	000d      	movs	r5, r1
 8000966:	0a61      	lsrs	r1, r4, #9
 8000968:	0f44      	lsrs	r4, r0, #29
 800096a:	430c      	orrs	r4, r1
 800096c:	00c7      	lsls	r7, r0, #3
 800096e:	0319      	lsls	r1, r3, #12
 8000970:	0058      	lsls	r0, r3, #1
 8000972:	0fdb      	lsrs	r3, r3, #31
 8000974:	469b      	mov	fp, r3
 8000976:	0a4b      	lsrs	r3, r1, #9
 8000978:	0f51      	lsrs	r1, r2, #29
 800097a:	430b      	orrs	r3, r1
 800097c:	0d76      	lsrs	r6, r6, #21
 800097e:	0d40      	lsrs	r0, r0, #21
 8000980:	0019      	movs	r1, r3
 8000982:	00d2      	lsls	r2, r2, #3
 8000984:	45d8      	cmp	r8, fp
 8000986:	d100      	bne.n	800098a <__aeabi_dadd+0x3a>
 8000988:	e0ae      	b.n	8000ae8 <__aeabi_dadd+0x198>
 800098a:	1a35      	subs	r5, r6, r0
 800098c:	2d00      	cmp	r5, #0
 800098e:	dc00      	bgt.n	8000992 <__aeabi_dadd+0x42>
 8000990:	e0f6      	b.n	8000b80 <__aeabi_dadd+0x230>
 8000992:	2800      	cmp	r0, #0
 8000994:	d10f      	bne.n	80009b6 <__aeabi_dadd+0x66>
 8000996:	4313      	orrs	r3, r2
 8000998:	d100      	bne.n	800099c <__aeabi_dadd+0x4c>
 800099a:	e0db      	b.n	8000b54 <__aeabi_dadd+0x204>
 800099c:	1e6b      	subs	r3, r5, #1
 800099e:	2b00      	cmp	r3, #0
 80009a0:	d000      	beq.n	80009a4 <__aeabi_dadd+0x54>
 80009a2:	e137      	b.n	8000c14 <__aeabi_dadd+0x2c4>
 80009a4:	1aba      	subs	r2, r7, r2
 80009a6:	4297      	cmp	r7, r2
 80009a8:	41bf      	sbcs	r7, r7
 80009aa:	1a64      	subs	r4, r4, r1
 80009ac:	427f      	negs	r7, r7
 80009ae:	1be4      	subs	r4, r4, r7
 80009b0:	2601      	movs	r6, #1
 80009b2:	0017      	movs	r7, r2
 80009b4:	e024      	b.n	8000a00 <__aeabi_dadd+0xb0>
 80009b6:	4bc6      	ldr	r3, [pc, #792]	; (8000cd0 <__aeabi_dadd+0x380>)
 80009b8:	429e      	cmp	r6, r3
 80009ba:	d04d      	beq.n	8000a58 <__aeabi_dadd+0x108>
 80009bc:	2380      	movs	r3, #128	; 0x80
 80009be:	041b      	lsls	r3, r3, #16
 80009c0:	4319      	orrs	r1, r3
 80009c2:	2d38      	cmp	r5, #56	; 0x38
 80009c4:	dd00      	ble.n	80009c8 <__aeabi_dadd+0x78>
 80009c6:	e107      	b.n	8000bd8 <__aeabi_dadd+0x288>
 80009c8:	2d1f      	cmp	r5, #31
 80009ca:	dd00      	ble.n	80009ce <__aeabi_dadd+0x7e>
 80009cc:	e138      	b.n	8000c40 <__aeabi_dadd+0x2f0>
 80009ce:	2020      	movs	r0, #32
 80009d0:	1b43      	subs	r3, r0, r5
 80009d2:	469a      	mov	sl, r3
 80009d4:	000b      	movs	r3, r1
 80009d6:	4650      	mov	r0, sl
 80009d8:	4083      	lsls	r3, r0
 80009da:	4699      	mov	r9, r3
 80009dc:	0013      	movs	r3, r2
 80009de:	4648      	mov	r0, r9
 80009e0:	40eb      	lsrs	r3, r5
 80009e2:	4318      	orrs	r0, r3
 80009e4:	0003      	movs	r3, r0
 80009e6:	4650      	mov	r0, sl
 80009e8:	4082      	lsls	r2, r0
 80009ea:	1e50      	subs	r0, r2, #1
 80009ec:	4182      	sbcs	r2, r0
 80009ee:	40e9      	lsrs	r1, r5
 80009f0:	431a      	orrs	r2, r3
 80009f2:	1aba      	subs	r2, r7, r2
 80009f4:	1a61      	subs	r1, r4, r1
 80009f6:	4297      	cmp	r7, r2
 80009f8:	41a4      	sbcs	r4, r4
 80009fa:	0017      	movs	r7, r2
 80009fc:	4264      	negs	r4, r4
 80009fe:	1b0c      	subs	r4, r1, r4
 8000a00:	0223      	lsls	r3, r4, #8
 8000a02:	d562      	bpl.n	8000aca <__aeabi_dadd+0x17a>
 8000a04:	0264      	lsls	r4, r4, #9
 8000a06:	0a65      	lsrs	r5, r4, #9
 8000a08:	2d00      	cmp	r5, #0
 8000a0a:	d100      	bne.n	8000a0e <__aeabi_dadd+0xbe>
 8000a0c:	e0df      	b.n	8000bce <__aeabi_dadd+0x27e>
 8000a0e:	0028      	movs	r0, r5
 8000a10:	f001 f920 	bl	8001c54 <__clzsi2>
 8000a14:	0003      	movs	r3, r0
 8000a16:	3b08      	subs	r3, #8
 8000a18:	2b1f      	cmp	r3, #31
 8000a1a:	dd00      	ble.n	8000a1e <__aeabi_dadd+0xce>
 8000a1c:	e0d2      	b.n	8000bc4 <__aeabi_dadd+0x274>
 8000a1e:	2220      	movs	r2, #32
 8000a20:	003c      	movs	r4, r7
 8000a22:	1ad2      	subs	r2, r2, r3
 8000a24:	409d      	lsls	r5, r3
 8000a26:	40d4      	lsrs	r4, r2
 8000a28:	409f      	lsls	r7, r3
 8000a2a:	4325      	orrs	r5, r4
 8000a2c:	429e      	cmp	r6, r3
 8000a2e:	dd00      	ble.n	8000a32 <__aeabi_dadd+0xe2>
 8000a30:	e0c4      	b.n	8000bbc <__aeabi_dadd+0x26c>
 8000a32:	1b9e      	subs	r6, r3, r6
 8000a34:	1c73      	adds	r3, r6, #1
 8000a36:	2b1f      	cmp	r3, #31
 8000a38:	dd00      	ble.n	8000a3c <__aeabi_dadd+0xec>
 8000a3a:	e0f1      	b.n	8000c20 <__aeabi_dadd+0x2d0>
 8000a3c:	2220      	movs	r2, #32
 8000a3e:	0038      	movs	r0, r7
 8000a40:	0029      	movs	r1, r5
 8000a42:	1ad2      	subs	r2, r2, r3
 8000a44:	40d8      	lsrs	r0, r3
 8000a46:	4091      	lsls	r1, r2
 8000a48:	4097      	lsls	r7, r2
 8000a4a:	002c      	movs	r4, r5
 8000a4c:	4301      	orrs	r1, r0
 8000a4e:	1e78      	subs	r0, r7, #1
 8000a50:	4187      	sbcs	r7, r0
 8000a52:	40dc      	lsrs	r4, r3
 8000a54:	2600      	movs	r6, #0
 8000a56:	430f      	orrs	r7, r1
 8000a58:	077b      	lsls	r3, r7, #29
 8000a5a:	d009      	beq.n	8000a70 <__aeabi_dadd+0x120>
 8000a5c:	230f      	movs	r3, #15
 8000a5e:	403b      	ands	r3, r7
 8000a60:	2b04      	cmp	r3, #4
 8000a62:	d005      	beq.n	8000a70 <__aeabi_dadd+0x120>
 8000a64:	1d3b      	adds	r3, r7, #4
 8000a66:	42bb      	cmp	r3, r7
 8000a68:	41bf      	sbcs	r7, r7
 8000a6a:	427f      	negs	r7, r7
 8000a6c:	19e4      	adds	r4, r4, r7
 8000a6e:	001f      	movs	r7, r3
 8000a70:	0223      	lsls	r3, r4, #8
 8000a72:	d52c      	bpl.n	8000ace <__aeabi_dadd+0x17e>
 8000a74:	4b96      	ldr	r3, [pc, #600]	; (8000cd0 <__aeabi_dadd+0x380>)
 8000a76:	3601      	adds	r6, #1
 8000a78:	429e      	cmp	r6, r3
 8000a7a:	d100      	bne.n	8000a7e <__aeabi_dadd+0x12e>
 8000a7c:	e09a      	b.n	8000bb4 <__aeabi_dadd+0x264>
 8000a7e:	4645      	mov	r5, r8
 8000a80:	4b94      	ldr	r3, [pc, #592]	; (8000cd4 <__aeabi_dadd+0x384>)
 8000a82:	08ff      	lsrs	r7, r7, #3
 8000a84:	401c      	ands	r4, r3
 8000a86:	0760      	lsls	r0, r4, #29
 8000a88:	0576      	lsls	r6, r6, #21
 8000a8a:	0264      	lsls	r4, r4, #9
 8000a8c:	4307      	orrs	r7, r0
 8000a8e:	0b24      	lsrs	r4, r4, #12
 8000a90:	0d76      	lsrs	r6, r6, #21
 8000a92:	2100      	movs	r1, #0
 8000a94:	0324      	lsls	r4, r4, #12
 8000a96:	0b23      	lsrs	r3, r4, #12
 8000a98:	0d0c      	lsrs	r4, r1, #20
 8000a9a:	4a8f      	ldr	r2, [pc, #572]	; (8000cd8 <__aeabi_dadd+0x388>)
 8000a9c:	0524      	lsls	r4, r4, #20
 8000a9e:	431c      	orrs	r4, r3
 8000aa0:	4014      	ands	r4, r2
 8000aa2:	0533      	lsls	r3, r6, #20
 8000aa4:	4323      	orrs	r3, r4
 8000aa6:	005b      	lsls	r3, r3, #1
 8000aa8:	07ed      	lsls	r5, r5, #31
 8000aaa:	085b      	lsrs	r3, r3, #1
 8000aac:	432b      	orrs	r3, r5
 8000aae:	0038      	movs	r0, r7
 8000ab0:	0019      	movs	r1, r3
 8000ab2:	bc3c      	pop	{r2, r3, r4, r5}
 8000ab4:	4690      	mov	r8, r2
 8000ab6:	4699      	mov	r9, r3
 8000ab8:	46a2      	mov	sl, r4
 8000aba:	46ab      	mov	fp, r5
 8000abc:	bdf8      	pop	{r3, r4, r5, r6, r7, pc}
 8000abe:	4664      	mov	r4, ip
 8000ac0:	4304      	orrs	r4, r0
 8000ac2:	d100      	bne.n	8000ac6 <__aeabi_dadd+0x176>
 8000ac4:	e211      	b.n	8000eea <__aeabi_dadd+0x59a>
 8000ac6:	0004      	movs	r4, r0
 8000ac8:	4667      	mov	r7, ip
 8000aca:	077b      	lsls	r3, r7, #29
 8000acc:	d1c6      	bne.n	8000a5c <__aeabi_dadd+0x10c>
 8000ace:	4645      	mov	r5, r8
 8000ad0:	0760      	lsls	r0, r4, #29
 8000ad2:	08ff      	lsrs	r7, r7, #3
 8000ad4:	4307      	orrs	r7, r0
 8000ad6:	08e4      	lsrs	r4, r4, #3
 8000ad8:	4b7d      	ldr	r3, [pc, #500]	; (8000cd0 <__aeabi_dadd+0x380>)
 8000ada:	429e      	cmp	r6, r3
 8000adc:	d030      	beq.n	8000b40 <__aeabi_dadd+0x1f0>
 8000ade:	0324      	lsls	r4, r4, #12
 8000ae0:	0576      	lsls	r6, r6, #21
 8000ae2:	0b24      	lsrs	r4, r4, #12
 8000ae4:	0d76      	lsrs	r6, r6, #21
 8000ae6:	e7d4      	b.n	8000a92 <__aeabi_dadd+0x142>
 8000ae8:	1a33      	subs	r3, r6, r0
 8000aea:	469a      	mov	sl, r3
 8000aec:	2b00      	cmp	r3, #0
 8000aee:	dd78      	ble.n	8000be2 <__aeabi_dadd+0x292>
 8000af0:	2800      	cmp	r0, #0
 8000af2:	d031      	beq.n	8000b58 <__aeabi_dadd+0x208>
 8000af4:	4876      	ldr	r0, [pc, #472]	; (8000cd0 <__aeabi_dadd+0x380>)
 8000af6:	4286      	cmp	r6, r0
 8000af8:	d0ae      	beq.n	8000a58 <__aeabi_dadd+0x108>
 8000afa:	2080      	movs	r0, #128	; 0x80
 8000afc:	0400      	lsls	r0, r0, #16
 8000afe:	4301      	orrs	r1, r0
 8000b00:	4653      	mov	r3, sl
 8000b02:	2b38      	cmp	r3, #56	; 0x38
 8000b04:	dc00      	bgt.n	8000b08 <__aeabi_dadd+0x1b8>
 8000b06:	e0e9      	b.n	8000cdc <__aeabi_dadd+0x38c>
 8000b08:	430a      	orrs	r2, r1
 8000b0a:	1e51      	subs	r1, r2, #1
 8000b0c:	418a      	sbcs	r2, r1
 8000b0e:	2100      	movs	r1, #0
 8000b10:	19d2      	adds	r2, r2, r7
 8000b12:	42ba      	cmp	r2, r7
 8000b14:	41bf      	sbcs	r7, r7
 8000b16:	1909      	adds	r1, r1, r4
 8000b18:	427c      	negs	r4, r7
 8000b1a:	0017      	movs	r7, r2
 8000b1c:	190c      	adds	r4, r1, r4
 8000b1e:	0223      	lsls	r3, r4, #8
 8000b20:	d5d3      	bpl.n	8000aca <__aeabi_dadd+0x17a>
 8000b22:	4b6b      	ldr	r3, [pc, #428]	; (8000cd0 <__aeabi_dadd+0x380>)
 8000b24:	3601      	adds	r6, #1
 8000b26:	429e      	cmp	r6, r3
 8000b28:	d100      	bne.n	8000b2c <__aeabi_dadd+0x1dc>
 8000b2a:	e13a      	b.n	8000da2 <__aeabi_dadd+0x452>
 8000b2c:	2001      	movs	r0, #1
 8000b2e:	4b69      	ldr	r3, [pc, #420]	; (8000cd4 <__aeabi_dadd+0x384>)
 8000b30:	401c      	ands	r4, r3
 8000b32:	087b      	lsrs	r3, r7, #1
 8000b34:	4007      	ands	r7, r0
 8000b36:	431f      	orrs	r7, r3
 8000b38:	07e0      	lsls	r0, r4, #31
 8000b3a:	4307      	orrs	r7, r0
 8000b3c:	0864      	lsrs	r4, r4, #1
 8000b3e:	e78b      	b.n	8000a58 <__aeabi_dadd+0x108>
 8000b40:	0023      	movs	r3, r4
 8000b42:	433b      	orrs	r3, r7
 8000b44:	d100      	bne.n	8000b48 <__aeabi_dadd+0x1f8>
 8000b46:	e1cb      	b.n	8000ee0 <__aeabi_dadd+0x590>
 8000b48:	2280      	movs	r2, #128	; 0x80
 8000b4a:	0312      	lsls	r2, r2, #12
 8000b4c:	4314      	orrs	r4, r2
 8000b4e:	0324      	lsls	r4, r4, #12
 8000b50:	0b24      	lsrs	r4, r4, #12
 8000b52:	e79e      	b.n	8000a92 <__aeabi_dadd+0x142>
 8000b54:	002e      	movs	r6, r5
 8000b56:	e77f      	b.n	8000a58 <__aeabi_dadd+0x108>
 8000b58:	0008      	movs	r0, r1
 8000b5a:	4310      	orrs	r0, r2
 8000b5c:	d100      	bne.n	8000b60 <__aeabi_dadd+0x210>
 8000b5e:	e0b4      	b.n	8000cca <__aeabi_dadd+0x37a>
 8000b60:	1e58      	subs	r0, r3, #1
 8000b62:	2800      	cmp	r0, #0
 8000b64:	d000      	beq.n	8000b68 <__aeabi_dadd+0x218>
 8000b66:	e0de      	b.n	8000d26 <__aeabi_dadd+0x3d6>
 8000b68:	18ba      	adds	r2, r7, r2
 8000b6a:	42ba      	cmp	r2, r7
 8000b6c:	419b      	sbcs	r3, r3
 8000b6e:	1864      	adds	r4, r4, r1
 8000b70:	425b      	negs	r3, r3
 8000b72:	18e4      	adds	r4, r4, r3
 8000b74:	0017      	movs	r7, r2
 8000b76:	2601      	movs	r6, #1
 8000b78:	0223      	lsls	r3, r4, #8
 8000b7a:	d5a6      	bpl.n	8000aca <__aeabi_dadd+0x17a>
 8000b7c:	2602      	movs	r6, #2
 8000b7e:	e7d5      	b.n	8000b2c <__aeabi_dadd+0x1dc>
 8000b80:	2d00      	cmp	r5, #0
 8000b82:	d16e      	bne.n	8000c62 <__aeabi_dadd+0x312>
 8000b84:	1c70      	adds	r0, r6, #1
 8000b86:	0540      	lsls	r0, r0, #21
 8000b88:	0d40      	lsrs	r0, r0, #21
 8000b8a:	2801      	cmp	r0, #1
 8000b8c:	dc00      	bgt.n	8000b90 <__aeabi_dadd+0x240>
 8000b8e:	e0f9      	b.n	8000d84 <__aeabi_dadd+0x434>
 8000b90:	1ab8      	subs	r0, r7, r2
 8000b92:	4684      	mov	ip, r0
 8000b94:	4287      	cmp	r7, r0
 8000b96:	4180      	sbcs	r0, r0
 8000b98:	1ae5      	subs	r5, r4, r3
 8000b9a:	4240      	negs	r0, r0
 8000b9c:	1a2d      	subs	r5, r5, r0
 8000b9e:	0228      	lsls	r0, r5, #8
 8000ba0:	d400      	bmi.n	8000ba4 <__aeabi_dadd+0x254>
 8000ba2:	e089      	b.n	8000cb8 <__aeabi_dadd+0x368>
 8000ba4:	1bd7      	subs	r7, r2, r7
 8000ba6:	42ba      	cmp	r2, r7
 8000ba8:	4192      	sbcs	r2, r2
 8000baa:	1b1c      	subs	r4, r3, r4
 8000bac:	4252      	negs	r2, r2
 8000bae:	1aa5      	subs	r5, r4, r2
 8000bb0:	46d8      	mov	r8, fp
 8000bb2:	e729      	b.n	8000a08 <__aeabi_dadd+0xb8>
 8000bb4:	4645      	mov	r5, r8
 8000bb6:	2400      	movs	r4, #0
 8000bb8:	2700      	movs	r7, #0
 8000bba:	e76a      	b.n	8000a92 <__aeabi_dadd+0x142>
 8000bbc:	4c45      	ldr	r4, [pc, #276]	; (8000cd4 <__aeabi_dadd+0x384>)
 8000bbe:	1af6      	subs	r6, r6, r3
 8000bc0:	402c      	ands	r4, r5
 8000bc2:	e749      	b.n	8000a58 <__aeabi_dadd+0x108>
 8000bc4:	003d      	movs	r5, r7
 8000bc6:	3828      	subs	r0, #40	; 0x28
 8000bc8:	4085      	lsls	r5, r0
 8000bca:	2700      	movs	r7, #0
 8000bcc:	e72e      	b.n	8000a2c <__aeabi_dadd+0xdc>
 8000bce:	0038      	movs	r0, r7
 8000bd0:	f001 f840 	bl	8001c54 <__clzsi2>
 8000bd4:	3020      	adds	r0, #32
 8000bd6:	e71d      	b.n	8000a14 <__aeabi_dadd+0xc4>
 8000bd8:	430a      	orrs	r2, r1
 8000bda:	1e51      	subs	r1, r2, #1
 8000bdc:	418a      	sbcs	r2, r1
 8000bde:	2100      	movs	r1, #0
 8000be0:	e707      	b.n	80009f2 <__aeabi_dadd+0xa2>
 8000be2:	2b00      	cmp	r3, #0
 8000be4:	d000      	beq.n	8000be8 <__aeabi_dadd+0x298>
 8000be6:	e0f3      	b.n	8000dd0 <__aeabi_dadd+0x480>
 8000be8:	1c70      	adds	r0, r6, #1
 8000bea:	0543      	lsls	r3, r0, #21
 8000bec:	0d5b      	lsrs	r3, r3, #21
 8000bee:	2b01      	cmp	r3, #1
 8000bf0:	dc00      	bgt.n	8000bf4 <__aeabi_dadd+0x2a4>
 8000bf2:	e0ad      	b.n	8000d50 <__aeabi_dadd+0x400>
 8000bf4:	4b36      	ldr	r3, [pc, #216]	; (8000cd0 <__aeabi_dadd+0x380>)
 8000bf6:	4298      	cmp	r0, r3
 8000bf8:	d100      	bne.n	8000bfc <__aeabi_dadd+0x2ac>
 8000bfa:	e0d1      	b.n	8000da0 <__aeabi_dadd+0x450>
 8000bfc:	18ba      	adds	r2, r7, r2
 8000bfe:	42ba      	cmp	r2, r7
 8000c00:	41bf      	sbcs	r7, r7
 8000c02:	1864      	adds	r4, r4, r1
 8000c04:	427f      	negs	r7, r7
 8000c06:	19e4      	adds	r4, r4, r7
 8000c08:	07e7      	lsls	r7, r4, #31
 8000c0a:	0852      	lsrs	r2, r2, #1
 8000c0c:	4317      	orrs	r7, r2
 8000c0e:	0864      	lsrs	r4, r4, #1
 8000c10:	0006      	movs	r6, r0
 8000c12:	e721      	b.n	8000a58 <__aeabi_dadd+0x108>
 8000c14:	482e      	ldr	r0, [pc, #184]	; (8000cd0 <__aeabi_dadd+0x380>)
 8000c16:	4285      	cmp	r5, r0
 8000c18:	d100      	bne.n	8000c1c <__aeabi_dadd+0x2cc>
 8000c1a:	e093      	b.n	8000d44 <__aeabi_dadd+0x3f4>
 8000c1c:	001d      	movs	r5, r3
 8000c1e:	e6d0      	b.n	80009c2 <__aeabi_dadd+0x72>
 8000c20:	0029      	movs	r1, r5
 8000c22:	3e1f      	subs	r6, #31
 8000c24:	40f1      	lsrs	r1, r6
 8000c26:	2b20      	cmp	r3, #32
 8000c28:	d100      	bne.n	8000c2c <__aeabi_dadd+0x2dc>
 8000c2a:	e08d      	b.n	8000d48 <__aeabi_dadd+0x3f8>
 8000c2c:	2240      	movs	r2, #64	; 0x40
 8000c2e:	1ad3      	subs	r3, r2, r3
 8000c30:	409d      	lsls	r5, r3
 8000c32:	432f      	orrs	r7, r5
 8000c34:	1e7d      	subs	r5, r7, #1
 8000c36:	41af      	sbcs	r7, r5
 8000c38:	2400      	movs	r4, #0
 8000c3a:	430f      	orrs	r7, r1
 8000c3c:	2600      	movs	r6, #0
 8000c3e:	e744      	b.n	8000aca <__aeabi_dadd+0x17a>
 8000c40:	002b      	movs	r3, r5
 8000c42:	0008      	movs	r0, r1
 8000c44:	3b20      	subs	r3, #32
 8000c46:	40d8      	lsrs	r0, r3
 8000c48:	0003      	movs	r3, r0
 8000c4a:	2d20      	cmp	r5, #32
 8000c4c:	d100      	bne.n	8000c50 <__aeabi_dadd+0x300>
 8000c4e:	e07d      	b.n	8000d4c <__aeabi_dadd+0x3fc>
 8000c50:	2040      	movs	r0, #64	; 0x40
 8000c52:	1b45      	subs	r5, r0, r5
 8000c54:	40a9      	lsls	r1, r5
 8000c56:	430a      	orrs	r2, r1
 8000c58:	1e51      	subs	r1, r2, #1
 8000c5a:	418a      	sbcs	r2, r1
 8000c5c:	2100      	movs	r1, #0
 8000c5e:	431a      	orrs	r2, r3
 8000c60:	e6c7      	b.n	80009f2 <__aeabi_dadd+0xa2>
 8000c62:	2e00      	cmp	r6, #0
 8000c64:	d050      	beq.n	8000d08 <__aeabi_dadd+0x3b8>
 8000c66:	4e1a      	ldr	r6, [pc, #104]	; (8000cd0 <__aeabi_dadd+0x380>)
 8000c68:	42b0      	cmp	r0, r6
 8000c6a:	d057      	beq.n	8000d1c <__aeabi_dadd+0x3cc>
 8000c6c:	2680      	movs	r6, #128	; 0x80
 8000c6e:	426b      	negs	r3, r5
 8000c70:	4699      	mov	r9, r3
 8000c72:	0436      	lsls	r6, r6, #16
 8000c74:	4334      	orrs	r4, r6
 8000c76:	464b      	mov	r3, r9
 8000c78:	2b38      	cmp	r3, #56	; 0x38
 8000c7a:	dd00      	ble.n	8000c7e <__aeabi_dadd+0x32e>
 8000c7c:	e0d6      	b.n	8000e2c <__aeabi_dadd+0x4dc>
 8000c7e:	2b1f      	cmp	r3, #31
 8000c80:	dd00      	ble.n	8000c84 <__aeabi_dadd+0x334>
 8000c82:	e135      	b.n	8000ef0 <__aeabi_dadd+0x5a0>
 8000c84:	2620      	movs	r6, #32
 8000c86:	1af5      	subs	r5, r6, r3
 8000c88:	0026      	movs	r6, r4
 8000c8a:	40ae      	lsls	r6, r5
 8000c8c:	46b2      	mov	sl, r6
 8000c8e:	003e      	movs	r6, r7
 8000c90:	40de      	lsrs	r6, r3
 8000c92:	46ac      	mov	ip, r5
 8000c94:	0035      	movs	r5, r6
 8000c96:	4656      	mov	r6, sl
 8000c98:	432e      	orrs	r6, r5
 8000c9a:	4665      	mov	r5, ip
 8000c9c:	40af      	lsls	r7, r5
 8000c9e:	1e7d      	subs	r5, r7, #1
 8000ca0:	41af      	sbcs	r7, r5
 8000ca2:	40dc      	lsrs	r4, r3
 8000ca4:	4337      	orrs	r7, r6
 8000ca6:	1bd7      	subs	r7, r2, r7
 8000ca8:	42ba      	cmp	r2, r7
 8000caa:	4192      	sbcs	r2, r2
 8000cac:	1b0c      	subs	r4, r1, r4
 8000cae:	4252      	negs	r2, r2
 8000cb0:	1aa4      	subs	r4, r4, r2
 8000cb2:	0006      	movs	r6, r0
 8000cb4:	46d8      	mov	r8, fp
 8000cb6:	e6a3      	b.n	8000a00 <__aeabi_dadd+0xb0>
 8000cb8:	4664      	mov	r4, ip
 8000cba:	4667      	mov	r7, ip
 8000cbc:	432c      	orrs	r4, r5
 8000cbe:	d000      	beq.n	8000cc2 <__aeabi_dadd+0x372>
 8000cc0:	e6a2      	b.n	8000a08 <__aeabi_dadd+0xb8>
 8000cc2:	2500      	movs	r5, #0
 8000cc4:	2600      	movs	r6, #0
 8000cc6:	2700      	movs	r7, #0
 8000cc8:	e706      	b.n	8000ad8 <__aeabi_dadd+0x188>
 8000cca:	001e      	movs	r6, r3
 8000ccc:	e6c4      	b.n	8000a58 <__aeabi_dadd+0x108>
 8000cce:	46c0      	nop			; (mov r8, r8)
 8000cd0:	000007ff 	.word	0x000007ff
 8000cd4:	ff7fffff 	.word	0xff7fffff
 8000cd8:	800fffff 	.word	0x800fffff
 8000cdc:	2b1f      	cmp	r3, #31
 8000cde:	dc63      	bgt.n	8000da8 <__aeabi_dadd+0x458>
 8000ce0:	2020      	movs	r0, #32
 8000ce2:	1ac3      	subs	r3, r0, r3
 8000ce4:	0008      	movs	r0, r1
 8000ce6:	4098      	lsls	r0, r3
 8000ce8:	469c      	mov	ip, r3
 8000cea:	4683      	mov	fp, r0
 8000cec:	4653      	mov	r3, sl
 8000cee:	0010      	movs	r0, r2
 8000cf0:	40d8      	lsrs	r0, r3
 8000cf2:	0003      	movs	r3, r0
 8000cf4:	4658      	mov	r0, fp
 8000cf6:	4318      	orrs	r0, r3
 8000cf8:	4663      	mov	r3, ip
 8000cfa:	409a      	lsls	r2, r3
 8000cfc:	1e53      	subs	r3, r2, #1
 8000cfe:	419a      	sbcs	r2, r3
 8000d00:	4653      	mov	r3, sl
 8000d02:	4302      	orrs	r2, r0
 8000d04:	40d9      	lsrs	r1, r3
 8000d06:	e703      	b.n	8000b10 <__aeabi_dadd+0x1c0>
 8000d08:	0026      	movs	r6, r4
 8000d0a:	433e      	orrs	r6, r7
 8000d0c:	d006      	beq.n	8000d1c <__aeabi_dadd+0x3cc>
 8000d0e:	43eb      	mvns	r3, r5
 8000d10:	4699      	mov	r9, r3
 8000d12:	2b00      	cmp	r3, #0
 8000d14:	d0c7      	beq.n	8000ca6 <__aeabi_dadd+0x356>
 8000d16:	4e94      	ldr	r6, [pc, #592]	; (8000f68 <__aeabi_dadd+0x618>)
 8000d18:	42b0      	cmp	r0, r6
 8000d1a:	d1ac      	bne.n	8000c76 <__aeabi_dadd+0x326>
 8000d1c:	000c      	movs	r4, r1
 8000d1e:	0017      	movs	r7, r2
 8000d20:	0006      	movs	r6, r0
 8000d22:	46d8      	mov	r8, fp
 8000d24:	e698      	b.n	8000a58 <__aeabi_dadd+0x108>
 8000d26:	4b90      	ldr	r3, [pc, #576]	; (8000f68 <__aeabi_dadd+0x618>)
 8000d28:	459a      	cmp	sl, r3
 8000d2a:	d00b      	beq.n	8000d44 <__aeabi_dadd+0x3f4>
 8000d2c:	4682      	mov	sl, r0
 8000d2e:	e6e7      	b.n	8000b00 <__aeabi_dadd+0x1b0>
 8000d30:	2800      	cmp	r0, #0
 8000d32:	d000      	beq.n	8000d36 <__aeabi_dadd+0x3e6>
 8000d34:	e09e      	b.n	8000e74 <__aeabi_dadd+0x524>
 8000d36:	0018      	movs	r0, r3
 8000d38:	4310      	orrs	r0, r2
 8000d3a:	d100      	bne.n	8000d3e <__aeabi_dadd+0x3ee>
 8000d3c:	e0e9      	b.n	8000f12 <__aeabi_dadd+0x5c2>
 8000d3e:	001c      	movs	r4, r3
 8000d40:	0017      	movs	r7, r2
 8000d42:	46d8      	mov	r8, fp
 8000d44:	4e88      	ldr	r6, [pc, #544]	; (8000f68 <__aeabi_dadd+0x618>)
 8000d46:	e687      	b.n	8000a58 <__aeabi_dadd+0x108>
 8000d48:	2500      	movs	r5, #0
 8000d4a:	e772      	b.n	8000c32 <__aeabi_dadd+0x2e2>
 8000d4c:	2100      	movs	r1, #0
 8000d4e:	e782      	b.n	8000c56 <__aeabi_dadd+0x306>
 8000d50:	0023      	movs	r3, r4
 8000d52:	433b      	orrs	r3, r7
 8000d54:	2e00      	cmp	r6, #0
 8000d56:	d000      	beq.n	8000d5a <__aeabi_dadd+0x40a>
 8000d58:	e0ab      	b.n	8000eb2 <__aeabi_dadd+0x562>
 8000d5a:	2b00      	cmp	r3, #0
 8000d5c:	d100      	bne.n	8000d60 <__aeabi_dadd+0x410>
 8000d5e:	e0e7      	b.n	8000f30 <__aeabi_dadd+0x5e0>
 8000d60:	000b      	movs	r3, r1
 8000d62:	4313      	orrs	r3, r2
 8000d64:	d100      	bne.n	8000d68 <__aeabi_dadd+0x418>
 8000d66:	e677      	b.n	8000a58 <__aeabi_dadd+0x108>
 8000d68:	18ba      	adds	r2, r7, r2
 8000d6a:	42ba      	cmp	r2, r7
 8000d6c:	41bf      	sbcs	r7, r7
 8000d6e:	1864      	adds	r4, r4, r1
 8000d70:	427f      	negs	r7, r7
 8000d72:	19e4      	adds	r4, r4, r7
 8000d74:	0223      	lsls	r3, r4, #8
 8000d76:	d400      	bmi.n	8000d7a <__aeabi_dadd+0x42a>
 8000d78:	e0f2      	b.n	8000f60 <__aeabi_dadd+0x610>
 8000d7a:	4b7c      	ldr	r3, [pc, #496]	; (8000f6c <__aeabi_dadd+0x61c>)
 8000d7c:	0017      	movs	r7, r2
 8000d7e:	401c      	ands	r4, r3
 8000d80:	0006      	movs	r6, r0
 8000d82:	e669      	b.n	8000a58 <__aeabi_dadd+0x108>
 8000d84:	0020      	movs	r0, r4
 8000d86:	4338      	orrs	r0, r7
 8000d88:	2e00      	cmp	r6, #0
 8000d8a:	d1d1      	bne.n	8000d30 <__aeabi_dadd+0x3e0>
 8000d8c:	2800      	cmp	r0, #0
 8000d8e:	d15b      	bne.n	8000e48 <__aeabi_dadd+0x4f8>
 8000d90:	001c      	movs	r4, r3
 8000d92:	4314      	orrs	r4, r2
 8000d94:	d100      	bne.n	8000d98 <__aeabi_dadd+0x448>
 8000d96:	e0a8      	b.n	8000eea <__aeabi_dadd+0x59a>
 8000d98:	001c      	movs	r4, r3
 8000d9a:	0017      	movs	r7, r2
 8000d9c:	46d8      	mov	r8, fp
 8000d9e:	e65b      	b.n	8000a58 <__aeabi_dadd+0x108>
 8000da0:	0006      	movs	r6, r0
 8000da2:	2400      	movs	r4, #0
 8000da4:	2700      	movs	r7, #0
 8000da6:	e697      	b.n	8000ad8 <__aeabi_dadd+0x188>
 8000da8:	4650      	mov	r0, sl
 8000daa:	000b      	movs	r3, r1
 8000dac:	3820      	subs	r0, #32
 8000dae:	40c3      	lsrs	r3, r0
 8000db0:	4699      	mov	r9, r3
 8000db2:	4653      	mov	r3, sl
 8000db4:	2b20      	cmp	r3, #32
 8000db6:	d100      	bne.n	8000dba <__aeabi_dadd+0x46a>
 8000db8:	e095      	b.n	8000ee6 <__aeabi_dadd+0x596>
 8000dba:	2340      	movs	r3, #64	; 0x40
 8000dbc:	4650      	mov	r0, sl
 8000dbe:	1a1b      	subs	r3, r3, r0
 8000dc0:	4099      	lsls	r1, r3
 8000dc2:	430a      	orrs	r2, r1
 8000dc4:	1e51      	subs	r1, r2, #1
 8000dc6:	418a      	sbcs	r2, r1
 8000dc8:	464b      	mov	r3, r9
 8000dca:	2100      	movs	r1, #0
 8000dcc:	431a      	orrs	r2, r3
 8000dce:	e69f      	b.n	8000b10 <__aeabi_dadd+0x1c0>
 8000dd0:	2e00      	cmp	r6, #0
 8000dd2:	d130      	bne.n	8000e36 <__aeabi_dadd+0x4e6>
 8000dd4:	0026      	movs	r6, r4
 8000dd6:	433e      	orrs	r6, r7
 8000dd8:	d067      	beq.n	8000eaa <__aeabi_dadd+0x55a>
 8000dda:	43db      	mvns	r3, r3
 8000ddc:	469a      	mov	sl, r3
 8000dde:	2b00      	cmp	r3, #0
 8000de0:	d01c      	beq.n	8000e1c <__aeabi_dadd+0x4cc>
 8000de2:	4e61      	ldr	r6, [pc, #388]	; (8000f68 <__aeabi_dadd+0x618>)
 8000de4:	42b0      	cmp	r0, r6
 8000de6:	d060      	beq.n	8000eaa <__aeabi_dadd+0x55a>
 8000de8:	4653      	mov	r3, sl
 8000dea:	2b38      	cmp	r3, #56	; 0x38
 8000dec:	dd00      	ble.n	8000df0 <__aeabi_dadd+0x4a0>
 8000dee:	e096      	b.n	8000f1e <__aeabi_dadd+0x5ce>
 8000df0:	2b1f      	cmp	r3, #31
 8000df2:	dd00      	ble.n	8000df6 <__aeabi_dadd+0x4a6>
 8000df4:	e09f      	b.n	8000f36 <__aeabi_dadd+0x5e6>
 8000df6:	2620      	movs	r6, #32
 8000df8:	1af3      	subs	r3, r6, r3
 8000dfa:	0026      	movs	r6, r4
 8000dfc:	409e      	lsls	r6, r3
 8000dfe:	469c      	mov	ip, r3
 8000e00:	46b3      	mov	fp, r6
 8000e02:	4653      	mov	r3, sl
 8000e04:	003e      	movs	r6, r7
 8000e06:	40de      	lsrs	r6, r3
 8000e08:	0033      	movs	r3, r6
 8000e0a:	465e      	mov	r6, fp
 8000e0c:	431e      	orrs	r6, r3
 8000e0e:	4663      	mov	r3, ip
 8000e10:	409f      	lsls	r7, r3
 8000e12:	1e7b      	subs	r3, r7, #1
 8000e14:	419f      	sbcs	r7, r3
 8000e16:	4653      	mov	r3, sl
 8000e18:	40dc      	lsrs	r4, r3
 8000e1a:	4337      	orrs	r7, r6
 8000e1c:	18bf      	adds	r7, r7, r2
 8000e1e:	4297      	cmp	r7, r2
 8000e20:	4192      	sbcs	r2, r2
 8000e22:	1864      	adds	r4, r4, r1
 8000e24:	4252      	negs	r2, r2
 8000e26:	18a4      	adds	r4, r4, r2
 8000e28:	0006      	movs	r6, r0
 8000e2a:	e678      	b.n	8000b1e <__aeabi_dadd+0x1ce>
 8000e2c:	4327      	orrs	r7, r4
 8000e2e:	1e7c      	subs	r4, r7, #1
 8000e30:	41a7      	sbcs	r7, r4
 8000e32:	2400      	movs	r4, #0
 8000e34:	e737      	b.n	8000ca6 <__aeabi_dadd+0x356>
 8000e36:	4e4c      	ldr	r6, [pc, #304]	; (8000f68 <__aeabi_dadd+0x618>)
 8000e38:	42b0      	cmp	r0, r6
 8000e3a:	d036      	beq.n	8000eaa <__aeabi_dadd+0x55a>
 8000e3c:	2680      	movs	r6, #128	; 0x80
 8000e3e:	425b      	negs	r3, r3
 8000e40:	0436      	lsls	r6, r6, #16
 8000e42:	469a      	mov	sl, r3
 8000e44:	4334      	orrs	r4, r6
 8000e46:	e7cf      	b.n	8000de8 <__aeabi_dadd+0x498>
 8000e48:	0018      	movs	r0, r3
 8000e4a:	4310      	orrs	r0, r2
 8000e4c:	d100      	bne.n	8000e50 <__aeabi_dadd+0x500>
 8000e4e:	e603      	b.n	8000a58 <__aeabi_dadd+0x108>
 8000e50:	1ab8      	subs	r0, r7, r2
 8000e52:	4684      	mov	ip, r0
 8000e54:	4567      	cmp	r7, ip
 8000e56:	41ad      	sbcs	r5, r5
 8000e58:	1ae0      	subs	r0, r4, r3
 8000e5a:	426d      	negs	r5, r5
 8000e5c:	1b40      	subs	r0, r0, r5
 8000e5e:	0205      	lsls	r5, r0, #8
 8000e60:	d400      	bmi.n	8000e64 <__aeabi_dadd+0x514>
 8000e62:	e62c      	b.n	8000abe <__aeabi_dadd+0x16e>
 8000e64:	1bd7      	subs	r7, r2, r7
 8000e66:	42ba      	cmp	r2, r7
 8000e68:	4192      	sbcs	r2, r2
 8000e6a:	1b1c      	subs	r4, r3, r4
 8000e6c:	4252      	negs	r2, r2
 8000e6e:	1aa4      	subs	r4, r4, r2
 8000e70:	46d8      	mov	r8, fp
 8000e72:	e5f1      	b.n	8000a58 <__aeabi_dadd+0x108>
 8000e74:	0018      	movs	r0, r3
 8000e76:	4310      	orrs	r0, r2
 8000e78:	d100      	bne.n	8000e7c <__aeabi_dadd+0x52c>
 8000e7a:	e763      	b.n	8000d44 <__aeabi_dadd+0x3f4>
 8000e7c:	08f8      	lsrs	r0, r7, #3
 8000e7e:	0767      	lsls	r7, r4, #29
 8000e80:	4307      	orrs	r7, r0
 8000e82:	2080      	movs	r0, #128	; 0x80
 8000e84:	08e4      	lsrs	r4, r4, #3
 8000e86:	0300      	lsls	r0, r0, #12
 8000e88:	4204      	tst	r4, r0
 8000e8a:	d008      	beq.n	8000e9e <__aeabi_dadd+0x54e>
 8000e8c:	08dd      	lsrs	r5, r3, #3
 8000e8e:	4205      	tst	r5, r0
 8000e90:	d105      	bne.n	8000e9e <__aeabi_dadd+0x54e>
 8000e92:	08d2      	lsrs	r2, r2, #3
 8000e94:	0759      	lsls	r1, r3, #29
 8000e96:	4311      	orrs	r1, r2
 8000e98:	000f      	movs	r7, r1
 8000e9a:	002c      	movs	r4, r5
 8000e9c:	46d8      	mov	r8, fp
 8000e9e:	0f7b      	lsrs	r3, r7, #29
 8000ea0:	00e4      	lsls	r4, r4, #3
 8000ea2:	431c      	orrs	r4, r3
 8000ea4:	00ff      	lsls	r7, r7, #3
 8000ea6:	4e30      	ldr	r6, [pc, #192]	; (8000f68 <__aeabi_dadd+0x618>)
 8000ea8:	e5d6      	b.n	8000a58 <__aeabi_dadd+0x108>
 8000eaa:	000c      	movs	r4, r1
 8000eac:	0017      	movs	r7, r2
 8000eae:	0006      	movs	r6, r0
 8000eb0:	e5d2      	b.n	8000a58 <__aeabi_dadd+0x108>
 8000eb2:	2b00      	cmp	r3, #0
 8000eb4:	d038      	beq.n	8000f28 <__aeabi_dadd+0x5d8>
 8000eb6:	000b      	movs	r3, r1
 8000eb8:	4313      	orrs	r3, r2
 8000eba:	d100      	bne.n	8000ebe <__aeabi_dadd+0x56e>
 8000ebc:	e742      	b.n	8000d44 <__aeabi_dadd+0x3f4>
 8000ebe:	08f8      	lsrs	r0, r7, #3
 8000ec0:	0767      	lsls	r7, r4, #29
 8000ec2:	4307      	orrs	r7, r0
 8000ec4:	2080      	movs	r0, #128	; 0x80
 8000ec6:	08e4      	lsrs	r4, r4, #3
 8000ec8:	0300      	lsls	r0, r0, #12
 8000eca:	4204      	tst	r4, r0
 8000ecc:	d0e7      	beq.n	8000e9e <__aeabi_dadd+0x54e>
 8000ece:	08cb      	lsrs	r3, r1, #3
 8000ed0:	4203      	tst	r3, r0
 8000ed2:	d1e4      	bne.n	8000e9e <__aeabi_dadd+0x54e>
 8000ed4:	08d2      	lsrs	r2, r2, #3
 8000ed6:	0749      	lsls	r1, r1, #29
 8000ed8:	4311      	orrs	r1, r2
 8000eda:	000f      	movs	r7, r1
 8000edc:	001c      	movs	r4, r3
 8000ede:	e7de      	b.n	8000e9e <__aeabi_dadd+0x54e>
 8000ee0:	2700      	movs	r7, #0
 8000ee2:	2400      	movs	r4, #0
 8000ee4:	e5d5      	b.n	8000a92 <__aeabi_dadd+0x142>
 8000ee6:	2100      	movs	r1, #0
 8000ee8:	e76b      	b.n	8000dc2 <__aeabi_dadd+0x472>
 8000eea:	2500      	movs	r5, #0
 8000eec:	2700      	movs	r7, #0
 8000eee:	e5f3      	b.n	8000ad8 <__aeabi_dadd+0x188>
 8000ef0:	464e      	mov	r6, r9
 8000ef2:	0025      	movs	r5, r4
 8000ef4:	3e20      	subs	r6, #32
 8000ef6:	40f5      	lsrs	r5, r6
 8000ef8:	464b      	mov	r3, r9
 8000efa:	002e      	movs	r6, r5
 8000efc:	2b20      	cmp	r3, #32
 8000efe:	d02d      	beq.n	8000f5c <__aeabi_dadd+0x60c>
 8000f00:	2540      	movs	r5, #64	; 0x40
 8000f02:	1aed      	subs	r5, r5, r3
 8000f04:	40ac      	lsls	r4, r5
 8000f06:	4327      	orrs	r7, r4
 8000f08:	1e7c      	subs	r4, r7, #1
 8000f0a:	41a7      	sbcs	r7, r4
 8000f0c:	2400      	movs	r4, #0
 8000f0e:	4337      	orrs	r7, r6
 8000f10:	e6c9      	b.n	8000ca6 <__aeabi_dadd+0x356>
 8000f12:	2480      	movs	r4, #128	; 0x80
 8000f14:	2500      	movs	r5, #0
 8000f16:	0324      	lsls	r4, r4, #12
 8000f18:	4e13      	ldr	r6, [pc, #76]	; (8000f68 <__aeabi_dadd+0x618>)
 8000f1a:	2700      	movs	r7, #0
 8000f1c:	e5dc      	b.n	8000ad8 <__aeabi_dadd+0x188>
 8000f1e:	4327      	orrs	r7, r4
 8000f20:	1e7c      	subs	r4, r7, #1
 8000f22:	41a7      	sbcs	r7, r4
 8000f24:	2400      	movs	r4, #0
 8000f26:	e779      	b.n	8000e1c <__aeabi_dadd+0x4cc>
 8000f28:	000c      	movs	r4, r1
 8000f2a:	0017      	movs	r7, r2
 8000f2c:	4e0e      	ldr	r6, [pc, #56]	; (8000f68 <__aeabi_dadd+0x618>)
 8000f2e:	e593      	b.n	8000a58 <__aeabi_dadd+0x108>
 8000f30:	000c      	movs	r4, r1
 8000f32:	0017      	movs	r7, r2
 8000f34:	e590      	b.n	8000a58 <__aeabi_dadd+0x108>
 8000f36:	4656      	mov	r6, sl
 8000f38:	0023      	movs	r3, r4
 8000f3a:	3e20      	subs	r6, #32
 8000f3c:	40f3      	lsrs	r3, r6
 8000f3e:	4699      	mov	r9, r3
 8000f40:	4653      	mov	r3, sl
 8000f42:	2b20      	cmp	r3, #32
 8000f44:	d00e      	beq.n	8000f64 <__aeabi_dadd+0x614>
 8000f46:	2340      	movs	r3, #64	; 0x40
 8000f48:	4656      	mov	r6, sl
 8000f4a:	1b9b      	subs	r3, r3, r6
 8000f4c:	409c      	lsls	r4, r3
 8000f4e:	4327      	orrs	r7, r4
 8000f50:	1e7c      	subs	r4, r7, #1
 8000f52:	41a7      	sbcs	r7, r4
 8000f54:	464b      	mov	r3, r9
 8000f56:	2400      	movs	r4, #0
 8000f58:	431f      	orrs	r7, r3
 8000f5a:	e75f      	b.n	8000e1c <__aeabi_dadd+0x4cc>
 8000f5c:	2400      	movs	r4, #0
 8000f5e:	e7d2      	b.n	8000f06 <__aeabi_dadd+0x5b6>
 8000f60:	0017      	movs	r7, r2
 8000f62:	e5b2      	b.n	8000aca <__aeabi_dadd+0x17a>
 8000f64:	2400      	movs	r4, #0
 8000f66:	e7f2      	b.n	8000f4e <__aeabi_dadd+0x5fe>
 8000f68:	000007ff 	.word	0x000007ff
 8000f6c:	ff7fffff 	.word	0xff7fffff

08000f70 <__aeabi_dmul>:
 8000f70:	b5f0      	push	{r4, r5, r6, r7, lr}
 8000f72:	4657      	mov	r7, sl
 8000f74:	4645      	mov	r5, r8
 8000f76:	46de      	mov	lr, fp
 8000f78:	464e      	mov	r6, r9
 8000f7a:	b5e0      	push	{r5, r6, r7, lr}
 8000f7c:	030c      	lsls	r4, r1, #12
 8000f7e:	4698      	mov	r8, r3
 8000f80:	004e      	lsls	r6, r1, #1
 8000f82:	0b23      	lsrs	r3, r4, #12
 8000f84:	b087      	sub	sp, #28
 8000f86:	0007      	movs	r7, r0
 8000f88:	4692      	mov	sl, r2
 8000f8a:	469b      	mov	fp, r3
 8000f8c:	0d76      	lsrs	r6, r6, #21
 8000f8e:	0fcd      	lsrs	r5, r1, #31
 8000f90:	2e00      	cmp	r6, #0
 8000f92:	d06b      	beq.n	800106c <__aeabi_dmul+0xfc>
 8000f94:	4b6d      	ldr	r3, [pc, #436]	; (800114c <__aeabi_dmul+0x1dc>)
 8000f96:	429e      	cmp	r6, r3
 8000f98:	d035      	beq.n	8001006 <__aeabi_dmul+0x96>
 8000f9a:	2480      	movs	r4, #128	; 0x80
 8000f9c:	465b      	mov	r3, fp
 8000f9e:	0f42      	lsrs	r2, r0, #29
 8000fa0:	0424      	lsls	r4, r4, #16
 8000fa2:	00db      	lsls	r3, r3, #3
 8000fa4:	4314      	orrs	r4, r2
 8000fa6:	431c      	orrs	r4, r3
 8000fa8:	00c3      	lsls	r3, r0, #3
 8000faa:	4699      	mov	r9, r3
 8000fac:	4b68      	ldr	r3, [pc, #416]	; (8001150 <__aeabi_dmul+0x1e0>)
 8000fae:	46a3      	mov	fp, r4
 8000fb0:	469c      	mov	ip, r3
 8000fb2:	2300      	movs	r3, #0
 8000fb4:	2700      	movs	r7, #0
 8000fb6:	4466      	add	r6, ip
 8000fb8:	9302      	str	r3, [sp, #8]
 8000fba:	4643      	mov	r3, r8
 8000fbc:	031c      	lsls	r4, r3, #12
 8000fbe:	005a      	lsls	r2, r3, #1
 8000fc0:	0fdb      	lsrs	r3, r3, #31
 8000fc2:	4650      	mov	r0, sl
 8000fc4:	0b24      	lsrs	r4, r4, #12
 8000fc6:	0d52      	lsrs	r2, r2, #21
 8000fc8:	4698      	mov	r8, r3
 8000fca:	d100      	bne.n	8000fce <__aeabi_dmul+0x5e>
 8000fcc:	e076      	b.n	80010bc <__aeabi_dmul+0x14c>
 8000fce:	4b5f      	ldr	r3, [pc, #380]	; (800114c <__aeabi_dmul+0x1dc>)
 8000fd0:	429a      	cmp	r2, r3
 8000fd2:	d06d      	beq.n	80010b0 <__aeabi_dmul+0x140>
 8000fd4:	2380      	movs	r3, #128	; 0x80
 8000fd6:	0f41      	lsrs	r1, r0, #29
 8000fd8:	041b      	lsls	r3, r3, #16
 8000fda:	430b      	orrs	r3, r1
 8000fdc:	495c      	ldr	r1, [pc, #368]	; (8001150 <__aeabi_dmul+0x1e0>)
 8000fde:	00e4      	lsls	r4, r4, #3
 8000fe0:	468c      	mov	ip, r1
 8000fe2:	431c      	orrs	r4, r3
 8000fe4:	00c3      	lsls	r3, r0, #3
 8000fe6:	2000      	movs	r0, #0
 8000fe8:	4462      	add	r2, ip
 8000fea:	4641      	mov	r1, r8
 8000fec:	18b6      	adds	r6, r6, r2
 8000fee:	4069      	eors	r1, r5
 8000ff0:	1c72      	adds	r2, r6, #1
 8000ff2:	9101      	str	r1, [sp, #4]
 8000ff4:	4694      	mov	ip, r2
 8000ff6:	4307      	orrs	r7, r0
 8000ff8:	2f0f      	cmp	r7, #15
 8000ffa:	d900      	bls.n	8000ffe <__aeabi_dmul+0x8e>
 8000ffc:	e0b0      	b.n	8001160 <__aeabi_dmul+0x1f0>
 8000ffe:	4a55      	ldr	r2, [pc, #340]	; (8001154 <__aeabi_dmul+0x1e4>)
 8001000:	00bf      	lsls	r7, r7, #2
 8001002:	59d2      	ldr	r2, [r2, r7]
 8001004:	4697      	mov	pc, r2
 8001006:	465b      	mov	r3, fp
 8001008:	4303      	orrs	r3, r0
 800100a:	4699      	mov	r9, r3
 800100c:	d000      	beq.n	8001010 <__aeabi_dmul+0xa0>
 800100e:	e087      	b.n	8001120 <__aeabi_dmul+0x1b0>
 8001010:	2300      	movs	r3, #0
 8001012:	469b      	mov	fp, r3
 8001014:	3302      	adds	r3, #2
 8001016:	2708      	movs	r7, #8
 8001018:	9302      	str	r3, [sp, #8]
 800101a:	e7ce      	b.n	8000fba <__aeabi_dmul+0x4a>
 800101c:	4642      	mov	r2, r8
 800101e:	9201      	str	r2, [sp, #4]
 8001020:	2802      	cmp	r0, #2
 8001022:	d067      	beq.n	80010f4 <__aeabi_dmul+0x184>
 8001024:	2803      	cmp	r0, #3
 8001026:	d100      	bne.n	800102a <__aeabi_dmul+0xba>
 8001028:	e20e      	b.n	8001448 <__aeabi_dmul+0x4d8>
 800102a:	2801      	cmp	r0, #1
 800102c:	d000      	beq.n	8001030 <__aeabi_dmul+0xc0>
 800102e:	e162      	b.n	80012f6 <__aeabi_dmul+0x386>
 8001030:	2300      	movs	r3, #0
 8001032:	2400      	movs	r4, #0
 8001034:	2200      	movs	r2, #0
 8001036:	4699      	mov	r9, r3
 8001038:	9901      	ldr	r1, [sp, #4]
 800103a:	4001      	ands	r1, r0
 800103c:	b2cd      	uxtb	r5, r1
 800103e:	2100      	movs	r1, #0
 8001040:	0312      	lsls	r2, r2, #12
 8001042:	0d0b      	lsrs	r3, r1, #20
 8001044:	0b12      	lsrs	r2, r2, #12
 8001046:	051b      	lsls	r3, r3, #20
 8001048:	4313      	orrs	r3, r2
 800104a:	4a43      	ldr	r2, [pc, #268]	; (8001158 <__aeabi_dmul+0x1e8>)
 800104c:	0524      	lsls	r4, r4, #20
 800104e:	4013      	ands	r3, r2
 8001050:	431c      	orrs	r4, r3
 8001052:	0064      	lsls	r4, r4, #1
 8001054:	07ed      	lsls	r5, r5, #31
 8001056:	0864      	lsrs	r4, r4, #1
 8001058:	432c      	orrs	r4, r5
 800105a:	4648      	mov	r0, r9
 800105c:	0021      	movs	r1, r4
 800105e:	b007      	add	sp, #28
 8001060:	bc3c      	pop	{r2, r3, r4, r5}
 8001062:	4690      	mov	r8, r2
 8001064:	4699      	mov	r9, r3
 8001066:	46a2      	mov	sl, r4
 8001068:	46ab      	mov	fp, r5
 800106a:	bdf0      	pop	{r4, r5, r6, r7, pc}
 800106c:	4303      	orrs	r3, r0
 800106e:	4699      	mov	r9, r3
 8001070:	d04f      	beq.n	8001112 <__aeabi_dmul+0x1a2>
 8001072:	465b      	mov	r3, fp
 8001074:	2b00      	cmp	r3, #0
 8001076:	d100      	bne.n	800107a <__aeabi_dmul+0x10a>
 8001078:	e189      	b.n	800138e <__aeabi_dmul+0x41e>
 800107a:	4658      	mov	r0, fp
 800107c:	f000 fdea 	bl	8001c54 <__clzsi2>
 8001080:	0003      	movs	r3, r0
 8001082:	3b0b      	subs	r3, #11
 8001084:	2b1c      	cmp	r3, #28
 8001086:	dd00      	ble.n	800108a <__aeabi_dmul+0x11a>
 8001088:	e17a      	b.n	8001380 <__aeabi_dmul+0x410>
 800108a:	221d      	movs	r2, #29
 800108c:	1ad3      	subs	r3, r2, r3
 800108e:	003a      	movs	r2, r7
 8001090:	0001      	movs	r1, r0
 8001092:	465c      	mov	r4, fp
 8001094:	40da      	lsrs	r2, r3
 8001096:	3908      	subs	r1, #8
 8001098:	408c      	lsls	r4, r1
 800109a:	0013      	movs	r3, r2
 800109c:	408f      	lsls	r7, r1
 800109e:	4323      	orrs	r3, r4
 80010a0:	469b      	mov	fp, r3
 80010a2:	46b9      	mov	r9, r7
 80010a4:	2300      	movs	r3, #0
 80010a6:	4e2d      	ldr	r6, [pc, #180]	; (800115c <__aeabi_dmul+0x1ec>)
 80010a8:	2700      	movs	r7, #0
 80010aa:	1a36      	subs	r6, r6, r0
 80010ac:	9302      	str	r3, [sp, #8]
 80010ae:	e784      	b.n	8000fba <__aeabi_dmul+0x4a>
 80010b0:	4653      	mov	r3, sl
 80010b2:	4323      	orrs	r3, r4
 80010b4:	d12a      	bne.n	800110c <__aeabi_dmul+0x19c>
 80010b6:	2400      	movs	r4, #0
 80010b8:	2002      	movs	r0, #2
 80010ba:	e796      	b.n	8000fea <__aeabi_dmul+0x7a>
 80010bc:	4653      	mov	r3, sl
 80010be:	4323      	orrs	r3, r4
 80010c0:	d020      	beq.n	8001104 <__aeabi_dmul+0x194>
 80010c2:	2c00      	cmp	r4, #0
 80010c4:	d100      	bne.n	80010c8 <__aeabi_dmul+0x158>
 80010c6:	e157      	b.n	8001378 <__aeabi_dmul+0x408>
 80010c8:	0020      	movs	r0, r4
 80010ca:	f000 fdc3 	bl	8001c54 <__clzsi2>
 80010ce:	0003      	movs	r3, r0
 80010d0:	3b0b      	subs	r3, #11
 80010d2:	2b1c      	cmp	r3, #28
 80010d4:	dd00      	ble.n	80010d8 <__aeabi_dmul+0x168>
 80010d6:	e149      	b.n	800136c <__aeabi_dmul+0x3fc>
 80010d8:	211d      	movs	r1, #29
 80010da:	1acb      	subs	r3, r1, r3
 80010dc:	4651      	mov	r1, sl
 80010de:	0002      	movs	r2, r0
 80010e0:	40d9      	lsrs	r1, r3
 80010e2:	4653      	mov	r3, sl
 80010e4:	3a08      	subs	r2, #8
 80010e6:	4094      	lsls	r4, r2
 80010e8:	4093      	lsls	r3, r2
 80010ea:	430c      	orrs	r4, r1
 80010ec:	4a1b      	ldr	r2, [pc, #108]	; (800115c <__aeabi_dmul+0x1ec>)
 80010ee:	1a12      	subs	r2, r2, r0
 80010f0:	2000      	movs	r0, #0
 80010f2:	e77a      	b.n	8000fea <__aeabi_dmul+0x7a>
 80010f4:	2501      	movs	r5, #1
 80010f6:	9b01      	ldr	r3, [sp, #4]
 80010f8:	4c14      	ldr	r4, [pc, #80]	; (800114c <__aeabi_dmul+0x1dc>)
 80010fa:	401d      	ands	r5, r3
 80010fc:	2300      	movs	r3, #0
 80010fe:	2200      	movs	r2, #0
 8001100:	4699      	mov	r9, r3
 8001102:	e79c      	b.n	800103e <__aeabi_dmul+0xce>
 8001104:	2400      	movs	r4, #0
 8001106:	2200      	movs	r2, #0
 8001108:	2001      	movs	r0, #1
 800110a:	e76e      	b.n	8000fea <__aeabi_dmul+0x7a>
 800110c:	4653      	mov	r3, sl
 800110e:	2003      	movs	r0, #3
 8001110:	e76b      	b.n	8000fea <__aeabi_dmul+0x7a>
 8001112:	2300      	movs	r3, #0
 8001114:	469b      	mov	fp, r3
 8001116:	3301      	adds	r3, #1
 8001118:	2704      	movs	r7, #4
 800111a:	2600      	movs	r6, #0
 800111c:	9302      	str	r3, [sp, #8]
 800111e:	e74c      	b.n	8000fba <__aeabi_dmul+0x4a>
 8001120:	2303      	movs	r3, #3
 8001122:	4681      	mov	r9, r0
 8001124:	270c      	movs	r7, #12
 8001126:	9302      	str	r3, [sp, #8]
 8001128:	e747      	b.n	8000fba <__aeabi_dmul+0x4a>
 800112a:	2280      	movs	r2, #128	; 0x80
 800112c:	2300      	movs	r3, #0
 800112e:	2500      	movs	r5, #0
 8001130:	0312      	lsls	r2, r2, #12
 8001132:	4699      	mov	r9, r3
 8001134:	4c05      	ldr	r4, [pc, #20]	; (800114c <__aeabi_dmul+0x1dc>)
 8001136:	e782      	b.n	800103e <__aeabi_dmul+0xce>
 8001138:	465c      	mov	r4, fp
 800113a:	464b      	mov	r3, r9
 800113c:	9802      	ldr	r0, [sp, #8]
 800113e:	e76f      	b.n	8001020 <__aeabi_dmul+0xb0>
 8001140:	465c      	mov	r4, fp
 8001142:	464b      	mov	r3, r9
 8001144:	9501      	str	r5, [sp, #4]
 8001146:	9802      	ldr	r0, [sp, #8]
 8001148:	e76a      	b.n	8001020 <__aeabi_dmul+0xb0>
 800114a:	46c0      	nop			; (mov r8, r8)
 800114c:	000007ff 	.word	0x000007ff
 8001150:	fffffc01 	.word	0xfffffc01
 8001154:	08007714 	.word	0x08007714
 8001158:	800fffff 	.word	0x800fffff
 800115c:	fffffc0d 	.word	0xfffffc0d
 8001160:	464a      	mov	r2, r9
 8001162:	4649      	mov	r1, r9
 8001164:	0c17      	lsrs	r7, r2, #16
 8001166:	0c1a      	lsrs	r2, r3, #16
 8001168:	041b      	lsls	r3, r3, #16
 800116a:	0c1b      	lsrs	r3, r3, #16
 800116c:	0408      	lsls	r0, r1, #16
 800116e:	0019      	movs	r1, r3
 8001170:	0c00      	lsrs	r0, r0, #16
 8001172:	4341      	muls	r1, r0
 8001174:	0015      	movs	r5, r2
 8001176:	4688      	mov	r8, r1
 8001178:	0019      	movs	r1, r3
 800117a:	437d      	muls	r5, r7
 800117c:	4379      	muls	r1, r7
 800117e:	9503      	str	r5, [sp, #12]
 8001180:	4689      	mov	r9, r1
 8001182:	0029      	movs	r1, r5
 8001184:	0015      	movs	r5, r2
 8001186:	4345      	muls	r5, r0
 8001188:	444d      	add	r5, r9
 800118a:	9502      	str	r5, [sp, #8]
 800118c:	4645      	mov	r5, r8
 800118e:	0c2d      	lsrs	r5, r5, #16
 8001190:	46aa      	mov	sl, r5
 8001192:	9d02      	ldr	r5, [sp, #8]
 8001194:	4455      	add	r5, sl
 8001196:	45a9      	cmp	r9, r5
 8001198:	d906      	bls.n	80011a8 <__aeabi_dmul+0x238>
 800119a:	468a      	mov	sl, r1
 800119c:	2180      	movs	r1, #128	; 0x80
 800119e:	0249      	lsls	r1, r1, #9
 80011a0:	4689      	mov	r9, r1
 80011a2:	44ca      	add	sl, r9
 80011a4:	4651      	mov	r1, sl
 80011a6:	9103      	str	r1, [sp, #12]
 80011a8:	0c29      	lsrs	r1, r5, #16
 80011aa:	9104      	str	r1, [sp, #16]
 80011ac:	4641      	mov	r1, r8
 80011ae:	0409      	lsls	r1, r1, #16
 80011b0:	042d      	lsls	r5, r5, #16
 80011b2:	0c09      	lsrs	r1, r1, #16
 80011b4:	4688      	mov	r8, r1
 80011b6:	0029      	movs	r1, r5
 80011b8:	0c25      	lsrs	r5, r4, #16
 80011ba:	0424      	lsls	r4, r4, #16
 80011bc:	4441      	add	r1, r8
 80011be:	0c24      	lsrs	r4, r4, #16
 80011c0:	9105      	str	r1, [sp, #20]
 80011c2:	0021      	movs	r1, r4
 80011c4:	4341      	muls	r1, r0
 80011c6:	4688      	mov	r8, r1
 80011c8:	0021      	movs	r1, r4
 80011ca:	4379      	muls	r1, r7
 80011cc:	468a      	mov	sl, r1
 80011ce:	4368      	muls	r0, r5
 80011d0:	4641      	mov	r1, r8
 80011d2:	4450      	add	r0, sl
 80011d4:	4681      	mov	r9, r0
 80011d6:	0c08      	lsrs	r0, r1, #16
 80011d8:	4448      	add	r0, r9
 80011da:	436f      	muls	r7, r5
 80011dc:	4582      	cmp	sl, r0
 80011de:	d903      	bls.n	80011e8 <__aeabi_dmul+0x278>
 80011e0:	2180      	movs	r1, #128	; 0x80
 80011e2:	0249      	lsls	r1, r1, #9
 80011e4:	4689      	mov	r9, r1
 80011e6:	444f      	add	r7, r9
 80011e8:	0c01      	lsrs	r1, r0, #16
 80011ea:	4689      	mov	r9, r1
 80011ec:	0039      	movs	r1, r7
 80011ee:	4449      	add	r1, r9
 80011f0:	9102      	str	r1, [sp, #8]
 80011f2:	4641      	mov	r1, r8
 80011f4:	040f      	lsls	r7, r1, #16
 80011f6:	9904      	ldr	r1, [sp, #16]
 80011f8:	0c3f      	lsrs	r7, r7, #16
 80011fa:	4688      	mov	r8, r1
 80011fc:	0400      	lsls	r0, r0, #16
 80011fe:	19c0      	adds	r0, r0, r7
 8001200:	4480      	add	r8, r0
 8001202:	4641      	mov	r1, r8
 8001204:	9104      	str	r1, [sp, #16]
 8001206:	4659      	mov	r1, fp
 8001208:	0c0f      	lsrs	r7, r1, #16
 800120a:	0409      	lsls	r1, r1, #16
 800120c:	0c09      	lsrs	r1, r1, #16
 800120e:	4688      	mov	r8, r1
 8001210:	4359      	muls	r1, r3
 8001212:	468a      	mov	sl, r1
 8001214:	0039      	movs	r1, r7
 8001216:	4351      	muls	r1, r2
 8001218:	4689      	mov	r9, r1
 800121a:	4641      	mov	r1, r8
 800121c:	434a      	muls	r2, r1
 800121e:	4651      	mov	r1, sl
 8001220:	0c09      	lsrs	r1, r1, #16
 8001222:	468b      	mov	fp, r1
 8001224:	437b      	muls	r3, r7
 8001226:	18d2      	adds	r2, r2, r3
 8001228:	445a      	add	r2, fp
 800122a:	4293      	cmp	r3, r2
 800122c:	d903      	bls.n	8001236 <__aeabi_dmul+0x2c6>
 800122e:	2380      	movs	r3, #128	; 0x80
 8001230:	025b      	lsls	r3, r3, #9
 8001232:	469b      	mov	fp, r3
 8001234:	44d9      	add	r9, fp
 8001236:	4651      	mov	r1, sl
 8001238:	0409      	lsls	r1, r1, #16
 800123a:	0c09      	lsrs	r1, r1, #16
 800123c:	468a      	mov	sl, r1
 800123e:	4641      	mov	r1, r8
 8001240:	4361      	muls	r1, r4
 8001242:	437c      	muls	r4, r7
 8001244:	0c13      	lsrs	r3, r2, #16
 8001246:	0412      	lsls	r2, r2, #16
 8001248:	444b      	add	r3, r9
 800124a:	4452      	add	r2, sl
 800124c:	46a1      	mov	r9, r4
 800124e:	468a      	mov	sl, r1
 8001250:	003c      	movs	r4, r7
 8001252:	4641      	mov	r1, r8
 8001254:	436c      	muls	r4, r5
 8001256:	434d      	muls	r5, r1
 8001258:	4651      	mov	r1, sl
 800125a:	444d      	add	r5, r9
 800125c:	0c0f      	lsrs	r7, r1, #16
 800125e:	197d      	adds	r5, r7, r5
 8001260:	45a9      	cmp	r9, r5
 8001262:	d903      	bls.n	800126c <__aeabi_dmul+0x2fc>
 8001264:	2180      	movs	r1, #128	; 0x80
 8001266:	0249      	lsls	r1, r1, #9
 8001268:	4688      	mov	r8, r1
 800126a:	4444      	add	r4, r8
 800126c:	9f04      	ldr	r7, [sp, #16]
 800126e:	9903      	ldr	r1, [sp, #12]
 8001270:	46b8      	mov	r8, r7
 8001272:	4441      	add	r1, r8
 8001274:	468b      	mov	fp, r1
 8001276:	4583      	cmp	fp, r0
 8001278:	4180      	sbcs	r0, r0
 800127a:	4241      	negs	r1, r0
 800127c:	4688      	mov	r8, r1
 800127e:	4651      	mov	r1, sl
 8001280:	0408      	lsls	r0, r1, #16
 8001282:	042f      	lsls	r7, r5, #16
 8001284:	0c00      	lsrs	r0, r0, #16
 8001286:	183f      	adds	r7, r7, r0
 8001288:	4658      	mov	r0, fp
 800128a:	9902      	ldr	r1, [sp, #8]
 800128c:	1810      	adds	r0, r2, r0
 800128e:	4689      	mov	r9, r1
 8001290:	4290      	cmp	r0, r2
 8001292:	4192      	sbcs	r2, r2
 8001294:	444f      	add	r7, r9
 8001296:	46ba      	mov	sl, r7
 8001298:	4252      	negs	r2, r2
 800129a:	4699      	mov	r9, r3
 800129c:	4693      	mov	fp, r2
 800129e:	44c2      	add	sl, r8
 80012a0:	44d1      	add	r9, sl
 80012a2:	44cb      	add	fp, r9
 80012a4:	428f      	cmp	r7, r1
 80012a6:	41bf      	sbcs	r7, r7
 80012a8:	45c2      	cmp	sl, r8
 80012aa:	4189      	sbcs	r1, r1
 80012ac:	4599      	cmp	r9, r3
 80012ae:	419b      	sbcs	r3, r3
 80012b0:	4593      	cmp	fp, r2
 80012b2:	4192      	sbcs	r2, r2
 80012b4:	427f      	negs	r7, r7
 80012b6:	4249      	negs	r1, r1
 80012b8:	0c2d      	lsrs	r5, r5, #16
 80012ba:	4252      	negs	r2, r2
 80012bc:	430f      	orrs	r7, r1
 80012be:	425b      	negs	r3, r3
 80012c0:	4313      	orrs	r3, r2
 80012c2:	197f      	adds	r7, r7, r5
 80012c4:	18ff      	adds	r7, r7, r3
 80012c6:	465b      	mov	r3, fp
 80012c8:	193c      	adds	r4, r7, r4
 80012ca:	0ddb      	lsrs	r3, r3, #23
 80012cc:	9a05      	ldr	r2, [sp, #20]
 80012ce:	0264      	lsls	r4, r4, #9
 80012d0:	431c      	orrs	r4, r3
 80012d2:	0243      	lsls	r3, r0, #9
 80012d4:	4313      	orrs	r3, r2
 80012d6:	1e5d      	subs	r5, r3, #1
 80012d8:	41ab      	sbcs	r3, r5
 80012da:	465a      	mov	r2, fp
 80012dc:	0dc0      	lsrs	r0, r0, #23
 80012de:	4303      	orrs	r3, r0
 80012e0:	0252      	lsls	r2, r2, #9
 80012e2:	4313      	orrs	r3, r2
 80012e4:	01e2      	lsls	r2, r4, #7
 80012e6:	d556      	bpl.n	8001396 <__aeabi_dmul+0x426>
 80012e8:	2001      	movs	r0, #1
 80012ea:	085a      	lsrs	r2, r3, #1
 80012ec:	4003      	ands	r3, r0
 80012ee:	4313      	orrs	r3, r2
 80012f0:	07e2      	lsls	r2, r4, #31
 80012f2:	4313      	orrs	r3, r2
 80012f4:	0864      	lsrs	r4, r4, #1
 80012f6:	485a      	ldr	r0, [pc, #360]	; (8001460 <__aeabi_dmul+0x4f0>)
 80012f8:	4460      	add	r0, ip
 80012fa:	2800      	cmp	r0, #0
 80012fc:	dd4d      	ble.n	800139a <__aeabi_dmul+0x42a>
 80012fe:	075a      	lsls	r2, r3, #29
 8001300:	d009      	beq.n	8001316 <__aeabi_dmul+0x3a6>
 8001302:	220f      	movs	r2, #15
 8001304:	401a      	ands	r2, r3
 8001306:	2a04      	cmp	r2, #4
 8001308:	d005      	beq.n	8001316 <__aeabi_dmul+0x3a6>
 800130a:	1d1a      	adds	r2, r3, #4
 800130c:	429a      	cmp	r2, r3
 800130e:	419b      	sbcs	r3, r3
 8001310:	425b      	negs	r3, r3
 8001312:	18e4      	adds	r4, r4, r3
 8001314:	0013      	movs	r3, r2
 8001316:	01e2      	lsls	r2, r4, #7
 8001318:	d504      	bpl.n	8001324 <__aeabi_dmul+0x3b4>
 800131a:	2080      	movs	r0, #128	; 0x80
 800131c:	4a51      	ldr	r2, [pc, #324]	; (8001464 <__aeabi_dmul+0x4f4>)
 800131e:	00c0      	lsls	r0, r0, #3
 8001320:	4014      	ands	r4, r2
 8001322:	4460      	add	r0, ip
 8001324:	4a50      	ldr	r2, [pc, #320]	; (8001468 <__aeabi_dmul+0x4f8>)
 8001326:	4290      	cmp	r0, r2
 8001328:	dd00      	ble.n	800132c <__aeabi_dmul+0x3bc>
 800132a:	e6e3      	b.n	80010f4 <__aeabi_dmul+0x184>
 800132c:	2501      	movs	r5, #1
 800132e:	08db      	lsrs	r3, r3, #3
 8001330:	0762      	lsls	r2, r4, #29
 8001332:	431a      	orrs	r2, r3
 8001334:	0264      	lsls	r4, r4, #9
 8001336:	9b01      	ldr	r3, [sp, #4]
 8001338:	4691      	mov	r9, r2
 800133a:	0b22      	lsrs	r2, r4, #12
 800133c:	0544      	lsls	r4, r0, #21
 800133e:	0d64      	lsrs	r4, r4, #21
 8001340:	401d      	ands	r5, r3
 8001342:	e67c      	b.n	800103e <__aeabi_dmul+0xce>
 8001344:	2280      	movs	r2, #128	; 0x80
 8001346:	4659      	mov	r1, fp
 8001348:	0312      	lsls	r2, r2, #12
 800134a:	4211      	tst	r1, r2
 800134c:	d008      	beq.n	8001360 <__aeabi_dmul+0x3f0>
 800134e:	4214      	tst	r4, r2
 8001350:	d106      	bne.n	8001360 <__aeabi_dmul+0x3f0>
 8001352:	4322      	orrs	r2, r4
 8001354:	0312      	lsls	r2, r2, #12
 8001356:	0b12      	lsrs	r2, r2, #12
 8001358:	4645      	mov	r5, r8
 800135a:	4699      	mov	r9, r3
 800135c:	4c43      	ldr	r4, [pc, #268]	; (800146c <__aeabi_dmul+0x4fc>)
 800135e:	e66e      	b.n	800103e <__aeabi_dmul+0xce>
 8001360:	465b      	mov	r3, fp
 8001362:	431a      	orrs	r2, r3
 8001364:	0312      	lsls	r2, r2, #12
 8001366:	0b12      	lsrs	r2, r2, #12
 8001368:	4c40      	ldr	r4, [pc, #256]	; (800146c <__aeabi_dmul+0x4fc>)
 800136a:	e668      	b.n	800103e <__aeabi_dmul+0xce>
 800136c:	0003      	movs	r3, r0
 800136e:	4654      	mov	r4, sl
 8001370:	3b28      	subs	r3, #40	; 0x28
 8001372:	409c      	lsls	r4, r3
 8001374:	2300      	movs	r3, #0
 8001376:	e6b9      	b.n	80010ec <__aeabi_dmul+0x17c>
 8001378:	f000 fc6c 	bl	8001c54 <__clzsi2>
 800137c:	3020      	adds	r0, #32
 800137e:	e6a6      	b.n	80010ce <__aeabi_dmul+0x15e>
 8001380:	0003      	movs	r3, r0
 8001382:	3b28      	subs	r3, #40	; 0x28
 8001384:	409f      	lsls	r7, r3
 8001386:	2300      	movs	r3, #0
 8001388:	46bb      	mov	fp, r7
 800138a:	4699      	mov	r9, r3
 800138c:	e68a      	b.n	80010a4 <__aeabi_dmul+0x134>
 800138e:	f000 fc61 	bl	8001c54 <__clzsi2>
 8001392:	3020      	adds	r0, #32
 8001394:	e674      	b.n	8001080 <__aeabi_dmul+0x110>
 8001396:	46b4      	mov	ip, r6
 8001398:	e7ad      	b.n	80012f6 <__aeabi_dmul+0x386>
 800139a:	2501      	movs	r5, #1
 800139c:	1a2a      	subs	r2, r5, r0
 800139e:	2a38      	cmp	r2, #56	; 0x38
 80013a0:	dd06      	ble.n	80013b0 <__aeabi_dmul+0x440>
 80013a2:	9b01      	ldr	r3, [sp, #4]
 80013a4:	2400      	movs	r4, #0
 80013a6:	401d      	ands	r5, r3
 80013a8:	2300      	movs	r3, #0
 80013aa:	2200      	movs	r2, #0
 80013ac:	4699      	mov	r9, r3
 80013ae:	e646      	b.n	800103e <__aeabi_dmul+0xce>
 80013b0:	2a1f      	cmp	r2, #31
 80013b2:	dc21      	bgt.n	80013f8 <__aeabi_dmul+0x488>
 80013b4:	2520      	movs	r5, #32
 80013b6:	0020      	movs	r0, r4
 80013b8:	1aad      	subs	r5, r5, r2
 80013ba:	001e      	movs	r6, r3
 80013bc:	40ab      	lsls	r3, r5
 80013be:	40a8      	lsls	r0, r5
 80013c0:	40d6      	lsrs	r6, r2
 80013c2:	1e5d      	subs	r5, r3, #1
 80013c4:	41ab      	sbcs	r3, r5
 80013c6:	4330      	orrs	r0, r6
 80013c8:	4318      	orrs	r0, r3
 80013ca:	40d4      	lsrs	r4, r2
 80013cc:	0743      	lsls	r3, r0, #29
 80013ce:	d009      	beq.n	80013e4 <__aeabi_dmul+0x474>
 80013d0:	230f      	movs	r3, #15
 80013d2:	4003      	ands	r3, r0
 80013d4:	2b04      	cmp	r3, #4
 80013d6:	d005      	beq.n	80013e4 <__aeabi_dmul+0x474>
 80013d8:	0003      	movs	r3, r0
 80013da:	1d18      	adds	r0, r3, #4
 80013dc:	4298      	cmp	r0, r3
 80013de:	419b      	sbcs	r3, r3
 80013e0:	425b      	negs	r3, r3
 80013e2:	18e4      	adds	r4, r4, r3
 80013e4:	0223      	lsls	r3, r4, #8
 80013e6:	d521      	bpl.n	800142c <__aeabi_dmul+0x4bc>
 80013e8:	2501      	movs	r5, #1
 80013ea:	9b01      	ldr	r3, [sp, #4]
 80013ec:	2401      	movs	r4, #1
 80013ee:	401d      	ands	r5, r3
 80013f0:	2300      	movs	r3, #0
 80013f2:	2200      	movs	r2, #0
 80013f4:	4699      	mov	r9, r3
 80013f6:	e622      	b.n	800103e <__aeabi_dmul+0xce>
 80013f8:	251f      	movs	r5, #31
 80013fa:	0021      	movs	r1, r4
 80013fc:	426d      	negs	r5, r5
 80013fe:	1a28      	subs	r0, r5, r0
 8001400:	40c1      	lsrs	r1, r0
 8001402:	0008      	movs	r0, r1
 8001404:	2a20      	cmp	r2, #32
 8001406:	d01d      	beq.n	8001444 <__aeabi_dmul+0x4d4>
 8001408:	355f      	adds	r5, #95	; 0x5f
 800140a:	1aaa      	subs	r2, r5, r2
 800140c:	4094      	lsls	r4, r2
 800140e:	4323      	orrs	r3, r4
 8001410:	1e5c      	subs	r4, r3, #1
 8001412:	41a3      	sbcs	r3, r4
 8001414:	2507      	movs	r5, #7
 8001416:	4303      	orrs	r3, r0
 8001418:	401d      	ands	r5, r3
 800141a:	2200      	movs	r2, #0
 800141c:	2d00      	cmp	r5, #0
 800141e:	d009      	beq.n	8001434 <__aeabi_dmul+0x4c4>
 8001420:	220f      	movs	r2, #15
 8001422:	2400      	movs	r4, #0
 8001424:	401a      	ands	r2, r3
 8001426:	0018      	movs	r0, r3
 8001428:	2a04      	cmp	r2, #4
 800142a:	d1d6      	bne.n	80013da <__aeabi_dmul+0x46a>
 800142c:	0003      	movs	r3, r0
 800142e:	0765      	lsls	r5, r4, #29
 8001430:	0264      	lsls	r4, r4, #9
 8001432:	0b22      	lsrs	r2, r4, #12
 8001434:	08db      	lsrs	r3, r3, #3
 8001436:	432b      	orrs	r3, r5
 8001438:	2501      	movs	r5, #1
 800143a:	4699      	mov	r9, r3
 800143c:	9b01      	ldr	r3, [sp, #4]
 800143e:	2400      	movs	r4, #0
 8001440:	401d      	ands	r5, r3
 8001442:	e5fc      	b.n	800103e <__aeabi_dmul+0xce>
 8001444:	2400      	movs	r4, #0
 8001446:	e7e2      	b.n	800140e <__aeabi_dmul+0x49e>
 8001448:	2280      	movs	r2, #128	; 0x80
 800144a:	2501      	movs	r5, #1
 800144c:	0312      	lsls	r2, r2, #12
 800144e:	4322      	orrs	r2, r4
 8001450:	9901      	ldr	r1, [sp, #4]
 8001452:	0312      	lsls	r2, r2, #12
 8001454:	0b12      	lsrs	r2, r2, #12
 8001456:	400d      	ands	r5, r1
 8001458:	4699      	mov	r9, r3
 800145a:	4c04      	ldr	r4, [pc, #16]	; (800146c <__aeabi_dmul+0x4fc>)
 800145c:	e5ef      	b.n	800103e <__aeabi_dmul+0xce>
 800145e:	46c0      	nop			; (mov r8, r8)
 8001460:	000003ff 	.word	0x000003ff
 8001464:	feffffff 	.word	0xfeffffff
 8001468:	000007fe 	.word	0x000007fe
 800146c:	000007ff 	.word	0x000007ff

08001470 <__aeabi_dsub>:
 8001470:	b5f0      	push	{r4, r5, r6, r7, lr}
 8001472:	4646      	mov	r6, r8
 8001474:	46d6      	mov	lr, sl
 8001476:	464f      	mov	r7, r9
 8001478:	030c      	lsls	r4, r1, #12
 800147a:	b5c0      	push	{r6, r7, lr}
 800147c:	0fcd      	lsrs	r5, r1, #31
 800147e:	004e      	lsls	r6, r1, #1
 8001480:	0a61      	lsrs	r1, r4, #9
 8001482:	0f44      	lsrs	r4, r0, #29
 8001484:	430c      	orrs	r4, r1
 8001486:	00c1      	lsls	r1, r0, #3
 8001488:	0058      	lsls	r0, r3, #1
 800148a:	0d40      	lsrs	r0, r0, #21
 800148c:	4684      	mov	ip, r0
 800148e:	468a      	mov	sl, r1
 8001490:	000f      	movs	r7, r1
 8001492:	0319      	lsls	r1, r3, #12
 8001494:	0f50      	lsrs	r0, r2, #29
 8001496:	0a49      	lsrs	r1, r1, #9
 8001498:	4301      	orrs	r1, r0
 800149a:	48c6      	ldr	r0, [pc, #792]	; (80017b4 <__aeabi_dsub+0x344>)
 800149c:	0d76      	lsrs	r6, r6, #21
 800149e:	46a8      	mov	r8, r5
 80014a0:	0fdb      	lsrs	r3, r3, #31
 80014a2:	00d2      	lsls	r2, r2, #3
 80014a4:	4584      	cmp	ip, r0
 80014a6:	d100      	bne.n	80014aa <__aeabi_dsub+0x3a>
 80014a8:	e0d8      	b.n	800165c <__aeabi_dsub+0x1ec>
 80014aa:	2001      	movs	r0, #1
 80014ac:	4043      	eors	r3, r0
 80014ae:	42ab      	cmp	r3, r5
 80014b0:	d100      	bne.n	80014b4 <__aeabi_dsub+0x44>
 80014b2:	e0a6      	b.n	8001602 <__aeabi_dsub+0x192>
 80014b4:	4660      	mov	r0, ip
 80014b6:	1a35      	subs	r5, r6, r0
 80014b8:	2d00      	cmp	r5, #0
 80014ba:	dc00      	bgt.n	80014be <__aeabi_dsub+0x4e>
 80014bc:	e105      	b.n	80016ca <__aeabi_dsub+0x25a>
 80014be:	2800      	cmp	r0, #0
 80014c0:	d110      	bne.n	80014e4 <__aeabi_dsub+0x74>
 80014c2:	000b      	movs	r3, r1
 80014c4:	4313      	orrs	r3, r2
 80014c6:	d100      	bne.n	80014ca <__aeabi_dsub+0x5a>
 80014c8:	e0d7      	b.n	800167a <__aeabi_dsub+0x20a>
 80014ca:	1e6b      	subs	r3, r5, #1
 80014cc:	2b00      	cmp	r3, #0
 80014ce:	d000      	beq.n	80014d2 <__aeabi_dsub+0x62>
 80014d0:	e14b      	b.n	800176a <__aeabi_dsub+0x2fa>
 80014d2:	4653      	mov	r3, sl
 80014d4:	1a9f      	subs	r7, r3, r2
 80014d6:	45ba      	cmp	sl, r7
 80014d8:	4180      	sbcs	r0, r0
 80014da:	1a64      	subs	r4, r4, r1
 80014dc:	4240      	negs	r0, r0
 80014de:	1a24      	subs	r4, r4, r0
 80014e0:	2601      	movs	r6, #1
 80014e2:	e01e      	b.n	8001522 <__aeabi_dsub+0xb2>
 80014e4:	4bb3      	ldr	r3, [pc, #716]	; (80017b4 <__aeabi_dsub+0x344>)
 80014e6:	429e      	cmp	r6, r3
 80014e8:	d048      	beq.n	800157c <__aeabi_dsub+0x10c>
 80014ea:	2380      	movs	r3, #128	; 0x80
 80014ec:	041b      	lsls	r3, r3, #16
 80014ee:	4319      	orrs	r1, r3
 80014f0:	2d38      	cmp	r5, #56	; 0x38
 80014f2:	dd00      	ble.n	80014f6 <__aeabi_dsub+0x86>
 80014f4:	e119      	b.n	800172a <__aeabi_dsub+0x2ba>
 80014f6:	2d1f      	cmp	r5, #31
 80014f8:	dd00      	ble.n	80014fc <__aeabi_dsub+0x8c>
 80014fa:	e14c      	b.n	8001796 <__aeabi_dsub+0x326>
 80014fc:	2320      	movs	r3, #32
 80014fe:	000f      	movs	r7, r1
 8001500:	1b5b      	subs	r3, r3, r5
 8001502:	0010      	movs	r0, r2
 8001504:	409a      	lsls	r2, r3
 8001506:	409f      	lsls	r7, r3
 8001508:	40e8      	lsrs	r0, r5
 800150a:	1e53      	subs	r3, r2, #1
 800150c:	419a      	sbcs	r2, r3
 800150e:	40e9      	lsrs	r1, r5
 8001510:	4307      	orrs	r7, r0
 8001512:	4317      	orrs	r7, r2
 8001514:	4653      	mov	r3, sl
 8001516:	1bdf      	subs	r7, r3, r7
 8001518:	1a61      	subs	r1, r4, r1
 800151a:	45ba      	cmp	sl, r7
 800151c:	41a4      	sbcs	r4, r4
 800151e:	4264      	negs	r4, r4
 8001520:	1b0c      	subs	r4, r1, r4
 8001522:	0223      	lsls	r3, r4, #8
 8001524:	d400      	bmi.n	8001528 <__aeabi_dsub+0xb8>
 8001526:	e0c5      	b.n	80016b4 <__aeabi_dsub+0x244>
 8001528:	0264      	lsls	r4, r4, #9
 800152a:	0a65      	lsrs	r5, r4, #9
 800152c:	2d00      	cmp	r5, #0
 800152e:	d100      	bne.n	8001532 <__aeabi_dsub+0xc2>
 8001530:	e0f6      	b.n	8001720 <__aeabi_dsub+0x2b0>
 8001532:	0028      	movs	r0, r5
 8001534:	f000 fb8e 	bl	8001c54 <__clzsi2>
 8001538:	0003      	movs	r3, r0
 800153a:	3b08      	subs	r3, #8
 800153c:	2b1f      	cmp	r3, #31
 800153e:	dd00      	ble.n	8001542 <__aeabi_dsub+0xd2>
 8001540:	e0e9      	b.n	8001716 <__aeabi_dsub+0x2a6>
 8001542:	2220      	movs	r2, #32
 8001544:	003c      	movs	r4, r7
 8001546:	1ad2      	subs	r2, r2, r3
 8001548:	409d      	lsls	r5, r3
 800154a:	40d4      	lsrs	r4, r2
 800154c:	409f      	lsls	r7, r3
 800154e:	4325      	orrs	r5, r4
 8001550:	429e      	cmp	r6, r3
 8001552:	dd00      	ble.n	8001556 <__aeabi_dsub+0xe6>
 8001554:	e0db      	b.n	800170e <__aeabi_dsub+0x29e>
 8001556:	1b9e      	subs	r6, r3, r6
 8001558:	1c73      	adds	r3, r6, #1
 800155a:	2b1f      	cmp	r3, #31
 800155c:	dd00      	ble.n	8001560 <__aeabi_dsub+0xf0>
 800155e:	e10a      	b.n	8001776 <__aeabi_dsub+0x306>
 8001560:	2220      	movs	r2, #32
 8001562:	0038      	movs	r0, r7
 8001564:	1ad2      	subs	r2, r2, r3
 8001566:	0029      	movs	r1, r5
 8001568:	4097      	lsls	r7, r2
 800156a:	002c      	movs	r4, r5
 800156c:	4091      	lsls	r1, r2
 800156e:	40d8      	lsrs	r0, r3
 8001570:	1e7a      	subs	r2, r7, #1
 8001572:	4197      	sbcs	r7, r2
 8001574:	40dc      	lsrs	r4, r3
 8001576:	2600      	movs	r6, #0
 8001578:	4301      	orrs	r1, r0
 800157a:	430f      	orrs	r7, r1
 800157c:	077b      	lsls	r3, r7, #29
 800157e:	d009      	beq.n	8001594 <__aeabi_dsub+0x124>
 8001580:	230f      	movs	r3, #15
 8001582:	403b      	ands	r3, r7
 8001584:	2b04      	cmp	r3, #4
 8001586:	d005      	beq.n	8001594 <__aeabi_dsub+0x124>
 8001588:	1d3b      	adds	r3, r7, #4
 800158a:	42bb      	cmp	r3, r7
 800158c:	41bf      	sbcs	r7, r7
 800158e:	427f      	negs	r7, r7
 8001590:	19e4      	adds	r4, r4, r7
 8001592:	001f      	movs	r7, r3
 8001594:	0223      	lsls	r3, r4, #8
 8001596:	d525      	bpl.n	80015e4 <__aeabi_dsub+0x174>
 8001598:	4b86      	ldr	r3, [pc, #536]	; (80017b4 <__aeabi_dsub+0x344>)
 800159a:	3601      	adds	r6, #1
 800159c:	429e      	cmp	r6, r3
 800159e:	d100      	bne.n	80015a2 <__aeabi_dsub+0x132>
 80015a0:	e0af      	b.n	8001702 <__aeabi_dsub+0x292>
 80015a2:	4b85      	ldr	r3, [pc, #532]	; (80017b8 <__aeabi_dsub+0x348>)
 80015a4:	2501      	movs	r5, #1
 80015a6:	401c      	ands	r4, r3
 80015a8:	4643      	mov	r3, r8
 80015aa:	0762      	lsls	r2, r4, #29
 80015ac:	08ff      	lsrs	r7, r7, #3
 80015ae:	0264      	lsls	r4, r4, #9
 80015b0:	0576      	lsls	r6, r6, #21
 80015b2:	4317      	orrs	r7, r2
 80015b4:	0b24      	lsrs	r4, r4, #12
 80015b6:	0d76      	lsrs	r6, r6, #21
 80015b8:	401d      	ands	r5, r3
 80015ba:	2100      	movs	r1, #0
 80015bc:	0324      	lsls	r4, r4, #12
 80015be:	0b23      	lsrs	r3, r4, #12
 80015c0:	0d0c      	lsrs	r4, r1, #20
 80015c2:	4a7e      	ldr	r2, [pc, #504]	; (80017bc <__aeabi_dsub+0x34c>)
 80015c4:	0524      	lsls	r4, r4, #20
 80015c6:	431c      	orrs	r4, r3
 80015c8:	4014      	ands	r4, r2
 80015ca:	0533      	lsls	r3, r6, #20
 80015cc:	4323      	orrs	r3, r4
 80015ce:	005b      	lsls	r3, r3, #1
 80015d0:	07ed      	lsls	r5, r5, #31
 80015d2:	085b      	lsrs	r3, r3, #1
 80015d4:	432b      	orrs	r3, r5
 80015d6:	0038      	movs	r0, r7
 80015d8:	0019      	movs	r1, r3
 80015da:	bc1c      	pop	{r2, r3, r4}
 80015dc:	4690      	mov	r8, r2
 80015de:	4699      	mov	r9, r3
 80015e0:	46a2      	mov	sl, r4
 80015e2:	bdf0      	pop	{r4, r5, r6, r7, pc}
 80015e4:	2501      	movs	r5, #1
 80015e6:	4643      	mov	r3, r8
 80015e8:	0762      	lsls	r2, r4, #29
 80015ea:	08ff      	lsrs	r7, r7, #3
 80015ec:	4317      	orrs	r7, r2
 80015ee:	08e4      	lsrs	r4, r4, #3
 80015f0:	401d      	ands	r5, r3
 80015f2:	4b70      	ldr	r3, [pc, #448]	; (80017b4 <__aeabi_dsub+0x344>)
 80015f4:	429e      	cmp	r6, r3
 80015f6:	d036      	beq.n	8001666 <__aeabi_dsub+0x1f6>
 80015f8:	0324      	lsls	r4, r4, #12
 80015fa:	0576      	lsls	r6, r6, #21
 80015fc:	0b24      	lsrs	r4, r4, #12
 80015fe:	0d76      	lsrs	r6, r6, #21
 8001600:	e7db      	b.n	80015ba <__aeabi_dsub+0x14a>
 8001602:	4663      	mov	r3, ip
 8001604:	1af3      	subs	r3, r6, r3
 8001606:	2b00      	cmp	r3, #0
 8001608:	dc00      	bgt.n	800160c <__aeabi_dsub+0x19c>
 800160a:	e094      	b.n	8001736 <__aeabi_dsub+0x2c6>
 800160c:	4660      	mov	r0, ip
 800160e:	2800      	cmp	r0, #0
 8001610:	d035      	beq.n	800167e <__aeabi_dsub+0x20e>
 8001612:	4868      	ldr	r0, [pc, #416]	; (80017b4 <__aeabi_dsub+0x344>)
 8001614:	4286      	cmp	r6, r0
 8001616:	d0b1      	beq.n	800157c <__aeabi_dsub+0x10c>
 8001618:	2780      	movs	r7, #128	; 0x80
 800161a:	043f      	lsls	r7, r7, #16
 800161c:	4339      	orrs	r1, r7
 800161e:	2b38      	cmp	r3, #56	; 0x38
 8001620:	dc00      	bgt.n	8001624 <__aeabi_dsub+0x1b4>
 8001622:	e0fd      	b.n	8001820 <__aeabi_dsub+0x3b0>
 8001624:	430a      	orrs	r2, r1
 8001626:	0017      	movs	r7, r2
 8001628:	2100      	movs	r1, #0
 800162a:	1e7a      	subs	r2, r7, #1
 800162c:	4197      	sbcs	r7, r2
 800162e:	4457      	add	r7, sl
 8001630:	4557      	cmp	r7, sl
 8001632:	4180      	sbcs	r0, r0
 8001634:	1909      	adds	r1, r1, r4
 8001636:	4244      	negs	r4, r0
 8001638:	190c      	adds	r4, r1, r4
 800163a:	0223      	lsls	r3, r4, #8
 800163c:	d53a      	bpl.n	80016b4 <__aeabi_dsub+0x244>
 800163e:	4b5d      	ldr	r3, [pc, #372]	; (80017b4 <__aeabi_dsub+0x344>)
 8001640:	3601      	adds	r6, #1
 8001642:	429e      	cmp	r6, r3
 8001644:	d100      	bne.n	8001648 <__aeabi_dsub+0x1d8>
 8001646:	e14b      	b.n	80018e0 <__aeabi_dsub+0x470>
 8001648:	2201      	movs	r2, #1
 800164a:	4b5b      	ldr	r3, [pc, #364]	; (80017b8 <__aeabi_dsub+0x348>)
 800164c:	401c      	ands	r4, r3
 800164e:	087b      	lsrs	r3, r7, #1
 8001650:	4017      	ands	r7, r2
 8001652:	431f      	orrs	r7, r3
 8001654:	07e2      	lsls	r2, r4, #31
 8001656:	4317      	orrs	r7, r2
 8001658:	0864      	lsrs	r4, r4, #1
 800165a:	e78f      	b.n	800157c <__aeabi_dsub+0x10c>
 800165c:	0008      	movs	r0, r1
 800165e:	4310      	orrs	r0, r2
 8001660:	d000      	beq.n	8001664 <__aeabi_dsub+0x1f4>
 8001662:	e724      	b.n	80014ae <__aeabi_dsub+0x3e>
 8001664:	e721      	b.n	80014aa <__aeabi_dsub+0x3a>
 8001666:	0023      	movs	r3, r4
 8001668:	433b      	orrs	r3, r7
 800166a:	d100      	bne.n	800166e <__aeabi_dsub+0x1fe>
 800166c:	e1b9      	b.n	80019e2 <__aeabi_dsub+0x572>
 800166e:	2280      	movs	r2, #128	; 0x80
 8001670:	0312      	lsls	r2, r2, #12
 8001672:	4314      	orrs	r4, r2
 8001674:	0324      	lsls	r4, r4, #12
 8001676:	0b24      	lsrs	r4, r4, #12
 8001678:	e79f      	b.n	80015ba <__aeabi_dsub+0x14a>
 800167a:	002e      	movs	r6, r5
 800167c:	e77e      	b.n	800157c <__aeabi_dsub+0x10c>
 800167e:	0008      	movs	r0, r1
 8001680:	4310      	orrs	r0, r2
 8001682:	d100      	bne.n	8001686 <__aeabi_dsub+0x216>
 8001684:	e0ca      	b.n	800181c <__aeabi_dsub+0x3ac>
 8001686:	1e58      	subs	r0, r3, #1
 8001688:	4684      	mov	ip, r0
 800168a:	2800      	cmp	r0, #0
 800168c:	d000      	beq.n	8001690 <__aeabi_dsub+0x220>
 800168e:	e0e7      	b.n	8001860 <__aeabi_dsub+0x3f0>
 8001690:	4452      	add	r2, sl
 8001692:	4552      	cmp	r2, sl
 8001694:	4180      	sbcs	r0, r0
 8001696:	1864      	adds	r4, r4, r1
 8001698:	4240      	negs	r0, r0
 800169a:	1824      	adds	r4, r4, r0
 800169c:	0017      	movs	r7, r2
 800169e:	2601      	movs	r6, #1
 80016a0:	0223      	lsls	r3, r4, #8
 80016a2:	d507      	bpl.n	80016b4 <__aeabi_dsub+0x244>
 80016a4:	2602      	movs	r6, #2
 80016a6:	e7cf      	b.n	8001648 <__aeabi_dsub+0x1d8>
 80016a8:	4664      	mov	r4, ip
 80016aa:	432c      	orrs	r4, r5
 80016ac:	d100      	bne.n	80016b0 <__aeabi_dsub+0x240>
 80016ae:	e1b3      	b.n	8001a18 <__aeabi_dsub+0x5a8>
 80016b0:	002c      	movs	r4, r5
 80016b2:	4667      	mov	r7, ip
 80016b4:	077b      	lsls	r3, r7, #29
 80016b6:	d000      	beq.n	80016ba <__aeabi_dsub+0x24a>
 80016b8:	e762      	b.n	8001580 <__aeabi_dsub+0x110>
 80016ba:	0763      	lsls	r3, r4, #29
 80016bc:	08ff      	lsrs	r7, r7, #3
 80016be:	431f      	orrs	r7, r3
 80016c0:	2501      	movs	r5, #1
 80016c2:	4643      	mov	r3, r8
 80016c4:	08e4      	lsrs	r4, r4, #3
 80016c6:	401d      	ands	r5, r3
 80016c8:	e793      	b.n	80015f2 <__aeabi_dsub+0x182>
 80016ca:	2d00      	cmp	r5, #0
 80016cc:	d178      	bne.n	80017c0 <__aeabi_dsub+0x350>
 80016ce:	1c75      	adds	r5, r6, #1
 80016d0:	056d      	lsls	r5, r5, #21
 80016d2:	0d6d      	lsrs	r5, r5, #21
 80016d4:	2d01      	cmp	r5, #1
 80016d6:	dc00      	bgt.n	80016da <__aeabi_dsub+0x26a>
 80016d8:	e0f2      	b.n	80018c0 <__aeabi_dsub+0x450>
 80016da:	4650      	mov	r0, sl
 80016dc:	1a80      	subs	r0, r0, r2
 80016de:	4582      	cmp	sl, r0
 80016e0:	41bf      	sbcs	r7, r7
 80016e2:	1a65      	subs	r5, r4, r1
 80016e4:	427f      	negs	r7, r7
 80016e6:	1bed      	subs	r5, r5, r7
 80016e8:	4684      	mov	ip, r0
 80016ea:	0228      	lsls	r0, r5, #8
 80016ec:	d400      	bmi.n	80016f0 <__aeabi_dsub+0x280>
 80016ee:	e08c      	b.n	800180a <__aeabi_dsub+0x39a>
 80016f0:	4650      	mov	r0, sl
 80016f2:	1a17      	subs	r7, r2, r0
 80016f4:	42ba      	cmp	r2, r7
 80016f6:	4192      	sbcs	r2, r2
 80016f8:	1b0c      	subs	r4, r1, r4
 80016fa:	4255      	negs	r5, r2
 80016fc:	1b65      	subs	r5, r4, r5
 80016fe:	4698      	mov	r8, r3
 8001700:	e714      	b.n	800152c <__aeabi_dsub+0xbc>
 8001702:	2501      	movs	r5, #1
 8001704:	4643      	mov	r3, r8
 8001706:	2400      	movs	r4, #0
 8001708:	401d      	ands	r5, r3
 800170a:	2700      	movs	r7, #0
 800170c:	e755      	b.n	80015ba <__aeabi_dsub+0x14a>
 800170e:	4c2a      	ldr	r4, [pc, #168]	; (80017b8 <__aeabi_dsub+0x348>)
 8001710:	1af6      	subs	r6, r6, r3
 8001712:	402c      	ands	r4, r5
 8001714:	e732      	b.n	800157c <__aeabi_dsub+0x10c>
 8001716:	003d      	movs	r5, r7
 8001718:	3828      	subs	r0, #40	; 0x28
 800171a:	4085      	lsls	r5, r0
 800171c:	2700      	movs	r7, #0
 800171e:	e717      	b.n	8001550 <__aeabi_dsub+0xe0>
 8001720:	0038      	movs	r0, r7
 8001722:	f000 fa97 	bl	8001c54 <__clzsi2>
 8001726:	3020      	adds	r0, #32
 8001728:	e706      	b.n	8001538 <__aeabi_dsub+0xc8>
 800172a:	430a      	orrs	r2, r1
 800172c:	0017      	movs	r7, r2
 800172e:	2100      	movs	r1, #0
 8001730:	1e7a      	subs	r2, r7, #1
 8001732:	4197      	sbcs	r7, r2
 8001734:	e6ee      	b.n	8001514 <__aeabi_dsub+0xa4>
 8001736:	2b00      	cmp	r3, #0
 8001738:	d000      	beq.n	800173c <__aeabi_dsub+0x2cc>
 800173a:	e0e5      	b.n	8001908 <__aeabi_dsub+0x498>
 800173c:	1c73      	adds	r3, r6, #1
 800173e:	469c      	mov	ip, r3
 8001740:	055b      	lsls	r3, r3, #21
 8001742:	0d5b      	lsrs	r3, r3, #21
 8001744:	2b01      	cmp	r3, #1
 8001746:	dc00      	bgt.n	800174a <__aeabi_dsub+0x2da>
 8001748:	e09f      	b.n	800188a <__aeabi_dsub+0x41a>
 800174a:	4b1a      	ldr	r3, [pc, #104]	; (80017b4 <__aeabi_dsub+0x344>)
 800174c:	459c      	cmp	ip, r3
 800174e:	d100      	bne.n	8001752 <__aeabi_dsub+0x2e2>
 8001750:	e0c5      	b.n	80018de <__aeabi_dsub+0x46e>
 8001752:	4452      	add	r2, sl
 8001754:	4552      	cmp	r2, sl
 8001756:	4180      	sbcs	r0, r0
 8001758:	1864      	adds	r4, r4, r1
 800175a:	4240      	negs	r0, r0
 800175c:	1824      	adds	r4, r4, r0
 800175e:	07e7      	lsls	r7, r4, #31
 8001760:	0852      	lsrs	r2, r2, #1
 8001762:	4317      	orrs	r7, r2
 8001764:	0864      	lsrs	r4, r4, #1
 8001766:	4666      	mov	r6, ip
 8001768:	e708      	b.n	800157c <__aeabi_dsub+0x10c>
 800176a:	4812      	ldr	r0, [pc, #72]	; (80017b4 <__aeabi_dsub+0x344>)
 800176c:	4285      	cmp	r5, r0
 800176e:	d100      	bne.n	8001772 <__aeabi_dsub+0x302>
 8001770:	e085      	b.n	800187e <__aeabi_dsub+0x40e>
 8001772:	001d      	movs	r5, r3
 8001774:	e6bc      	b.n	80014f0 <__aeabi_dsub+0x80>
 8001776:	0029      	movs	r1, r5
 8001778:	3e1f      	subs	r6, #31
 800177a:	40f1      	lsrs	r1, r6
 800177c:	2b20      	cmp	r3, #32
 800177e:	d100      	bne.n	8001782 <__aeabi_dsub+0x312>
 8001780:	e07f      	b.n	8001882 <__aeabi_dsub+0x412>
 8001782:	2240      	movs	r2, #64	; 0x40
 8001784:	1ad3      	subs	r3, r2, r3
 8001786:	409d      	lsls	r5, r3
 8001788:	432f      	orrs	r7, r5
 800178a:	1e7d      	subs	r5, r7, #1
 800178c:	41af      	sbcs	r7, r5
 800178e:	2400      	movs	r4, #0
 8001790:	430f      	orrs	r7, r1
 8001792:	2600      	movs	r6, #0
 8001794:	e78e      	b.n	80016b4 <__aeabi_dsub+0x244>
 8001796:	002b      	movs	r3, r5
 8001798:	000f      	movs	r7, r1
 800179a:	3b20      	subs	r3, #32
 800179c:	40df      	lsrs	r7, r3
 800179e:	2d20      	cmp	r5, #32
 80017a0:	d071      	beq.n	8001886 <__aeabi_dsub+0x416>
 80017a2:	2340      	movs	r3, #64	; 0x40
 80017a4:	1b5d      	subs	r5, r3, r5
 80017a6:	40a9      	lsls	r1, r5
 80017a8:	430a      	orrs	r2, r1
 80017aa:	1e51      	subs	r1, r2, #1
 80017ac:	418a      	sbcs	r2, r1
 80017ae:	2100      	movs	r1, #0
 80017b0:	4317      	orrs	r7, r2
 80017b2:	e6af      	b.n	8001514 <__aeabi_dsub+0xa4>
 80017b4:	000007ff 	.word	0x000007ff
 80017b8:	ff7fffff 	.word	0xff7fffff
 80017bc:	800fffff 	.word	0x800fffff
 80017c0:	2e00      	cmp	r6, #0
 80017c2:	d03e      	beq.n	8001842 <__aeabi_dsub+0x3d2>
 80017c4:	4eb3      	ldr	r6, [pc, #716]	; (8001a94 <__aeabi_dsub+0x624>)
 80017c6:	45b4      	cmp	ip, r6
 80017c8:	d045      	beq.n	8001856 <__aeabi_dsub+0x3e6>
 80017ca:	2680      	movs	r6, #128	; 0x80
 80017cc:	0436      	lsls	r6, r6, #16
 80017ce:	426d      	negs	r5, r5
 80017d0:	4334      	orrs	r4, r6
 80017d2:	2d38      	cmp	r5, #56	; 0x38
 80017d4:	dd00      	ble.n	80017d8 <__aeabi_dsub+0x368>
 80017d6:	e0a8      	b.n	800192a <__aeabi_dsub+0x4ba>
 80017d8:	2d1f      	cmp	r5, #31
 80017da:	dd00      	ble.n	80017de <__aeabi_dsub+0x36e>
 80017dc:	e11f      	b.n	8001a1e <__aeabi_dsub+0x5ae>
 80017de:	2620      	movs	r6, #32
 80017e0:	0027      	movs	r7, r4
 80017e2:	4650      	mov	r0, sl
 80017e4:	1b76      	subs	r6, r6, r5
 80017e6:	40b7      	lsls	r7, r6
 80017e8:	40e8      	lsrs	r0, r5
 80017ea:	4307      	orrs	r7, r0
 80017ec:	4650      	mov	r0, sl
 80017ee:	40b0      	lsls	r0, r6
 80017f0:	1e46      	subs	r6, r0, #1
 80017f2:	41b0      	sbcs	r0, r6
 80017f4:	40ec      	lsrs	r4, r5
 80017f6:	4338      	orrs	r0, r7
 80017f8:	1a17      	subs	r7, r2, r0
 80017fa:	42ba      	cmp	r2, r7
 80017fc:	4192      	sbcs	r2, r2
 80017fe:	1b0c      	subs	r4, r1, r4
 8001800:	4252      	negs	r2, r2
 8001802:	1aa4      	subs	r4, r4, r2
 8001804:	4666      	mov	r6, ip
 8001806:	4698      	mov	r8, r3
 8001808:	e68b      	b.n	8001522 <__aeabi_dsub+0xb2>
 800180a:	4664      	mov	r4, ip
 800180c:	4667      	mov	r7, ip
 800180e:	432c      	orrs	r4, r5
 8001810:	d000      	beq.n	8001814 <__aeabi_dsub+0x3a4>
 8001812:	e68b      	b.n	800152c <__aeabi_dsub+0xbc>
 8001814:	2500      	movs	r5, #0
 8001816:	2600      	movs	r6, #0
 8001818:	2700      	movs	r7, #0
 800181a:	e6ea      	b.n	80015f2 <__aeabi_dsub+0x182>
 800181c:	001e      	movs	r6, r3
 800181e:	e6ad      	b.n	800157c <__aeabi_dsub+0x10c>
 8001820:	2b1f      	cmp	r3, #31
 8001822:	dc60      	bgt.n	80018e6 <__aeabi_dsub+0x476>
 8001824:	2720      	movs	r7, #32
 8001826:	1af8      	subs	r0, r7, r3
 8001828:	000f      	movs	r7, r1
 800182a:	4684      	mov	ip, r0
 800182c:	4087      	lsls	r7, r0
 800182e:	0010      	movs	r0, r2
 8001830:	40d8      	lsrs	r0, r3
 8001832:	4307      	orrs	r7, r0
 8001834:	4660      	mov	r0, ip
 8001836:	4082      	lsls	r2, r0
 8001838:	1e50      	subs	r0, r2, #1
 800183a:	4182      	sbcs	r2, r0
 800183c:	40d9      	lsrs	r1, r3
 800183e:	4317      	orrs	r7, r2
 8001840:	e6f5      	b.n	800162e <__aeabi_dsub+0x1be>
 8001842:	0026      	movs	r6, r4
 8001844:	4650      	mov	r0, sl
 8001846:	4306      	orrs	r6, r0
 8001848:	d005      	beq.n	8001856 <__aeabi_dsub+0x3e6>
 800184a:	43ed      	mvns	r5, r5
 800184c:	2d00      	cmp	r5, #0
 800184e:	d0d3      	beq.n	80017f8 <__aeabi_dsub+0x388>
 8001850:	4e90      	ldr	r6, [pc, #576]	; (8001a94 <__aeabi_dsub+0x624>)
 8001852:	45b4      	cmp	ip, r6
 8001854:	d1bd      	bne.n	80017d2 <__aeabi_dsub+0x362>
 8001856:	000c      	movs	r4, r1
 8001858:	0017      	movs	r7, r2
 800185a:	4666      	mov	r6, ip
 800185c:	4698      	mov	r8, r3
 800185e:	e68d      	b.n	800157c <__aeabi_dsub+0x10c>
 8001860:	488c      	ldr	r0, [pc, #560]	; (8001a94 <__aeabi_dsub+0x624>)
 8001862:	4283      	cmp	r3, r0
 8001864:	d00b      	beq.n	800187e <__aeabi_dsub+0x40e>
 8001866:	4663      	mov	r3, ip
 8001868:	e6d9      	b.n	800161e <__aeabi_dsub+0x1ae>
 800186a:	2d00      	cmp	r5, #0
 800186c:	d000      	beq.n	8001870 <__aeabi_dsub+0x400>
 800186e:	e096      	b.n	800199e <__aeabi_dsub+0x52e>
 8001870:	0008      	movs	r0, r1
 8001872:	4310      	orrs	r0, r2
 8001874:	d100      	bne.n	8001878 <__aeabi_dsub+0x408>
 8001876:	e0e2      	b.n	8001a3e <__aeabi_dsub+0x5ce>
 8001878:	000c      	movs	r4, r1
 800187a:	0017      	movs	r7, r2
 800187c:	4698      	mov	r8, r3
 800187e:	4e85      	ldr	r6, [pc, #532]	; (8001a94 <__aeabi_dsub+0x624>)
 8001880:	e67c      	b.n	800157c <__aeabi_dsub+0x10c>
 8001882:	2500      	movs	r5, #0
 8001884:	e780      	b.n	8001788 <__aeabi_dsub+0x318>
 8001886:	2100      	movs	r1, #0
 8001888:	e78e      	b.n	80017a8 <__aeabi_dsub+0x338>
 800188a:	0023      	movs	r3, r4
 800188c:	4650      	mov	r0, sl
 800188e:	4303      	orrs	r3, r0
 8001890:	2e00      	cmp	r6, #0
 8001892:	d000      	beq.n	8001896 <__aeabi_dsub+0x426>
 8001894:	e0a8      	b.n	80019e8 <__aeabi_dsub+0x578>
 8001896:	2b00      	cmp	r3, #0
 8001898:	d100      	bne.n	800189c <__aeabi_dsub+0x42c>
 800189a:	e0de      	b.n	8001a5a <__aeabi_dsub+0x5ea>
 800189c:	000b      	movs	r3, r1
 800189e:	4313      	orrs	r3, r2
 80018a0:	d100      	bne.n	80018a4 <__aeabi_dsub+0x434>
 80018a2:	e66b      	b.n	800157c <__aeabi_dsub+0x10c>
 80018a4:	4452      	add	r2, sl
 80018a6:	4552      	cmp	r2, sl
 80018a8:	4180      	sbcs	r0, r0
 80018aa:	1864      	adds	r4, r4, r1
 80018ac:	4240      	negs	r0, r0
 80018ae:	1824      	adds	r4, r4, r0
 80018b0:	0017      	movs	r7, r2
 80018b2:	0223      	lsls	r3, r4, #8
 80018b4:	d400      	bmi.n	80018b8 <__aeabi_dsub+0x448>
 80018b6:	e6fd      	b.n	80016b4 <__aeabi_dsub+0x244>
 80018b8:	4b77      	ldr	r3, [pc, #476]	; (8001a98 <__aeabi_dsub+0x628>)
 80018ba:	4666      	mov	r6, ip
 80018bc:	401c      	ands	r4, r3
 80018be:	e65d      	b.n	800157c <__aeabi_dsub+0x10c>
 80018c0:	0025      	movs	r5, r4
 80018c2:	4650      	mov	r0, sl
 80018c4:	4305      	orrs	r5, r0
 80018c6:	2e00      	cmp	r6, #0
 80018c8:	d1cf      	bne.n	800186a <__aeabi_dsub+0x3fa>
 80018ca:	2d00      	cmp	r5, #0
 80018cc:	d14f      	bne.n	800196e <__aeabi_dsub+0x4fe>
 80018ce:	000c      	movs	r4, r1
 80018d0:	4314      	orrs	r4, r2
 80018d2:	d100      	bne.n	80018d6 <__aeabi_dsub+0x466>
 80018d4:	e0a0      	b.n	8001a18 <__aeabi_dsub+0x5a8>
 80018d6:	000c      	movs	r4, r1
 80018d8:	0017      	movs	r7, r2
 80018da:	4698      	mov	r8, r3
 80018dc:	e64e      	b.n	800157c <__aeabi_dsub+0x10c>
 80018de:	4666      	mov	r6, ip
 80018e0:	2400      	movs	r4, #0
 80018e2:	2700      	movs	r7, #0
 80018e4:	e685      	b.n	80015f2 <__aeabi_dsub+0x182>
 80018e6:	001f      	movs	r7, r3
 80018e8:	0008      	movs	r0, r1
 80018ea:	3f20      	subs	r7, #32
 80018ec:	40f8      	lsrs	r0, r7
 80018ee:	0007      	movs	r7, r0
 80018f0:	2b20      	cmp	r3, #32
 80018f2:	d100      	bne.n	80018f6 <__aeabi_dsub+0x486>
 80018f4:	e08e      	b.n	8001a14 <__aeabi_dsub+0x5a4>
 80018f6:	2040      	movs	r0, #64	; 0x40
 80018f8:	1ac3      	subs	r3, r0, r3
 80018fa:	4099      	lsls	r1, r3
 80018fc:	430a      	orrs	r2, r1
 80018fe:	1e51      	subs	r1, r2, #1
 8001900:	418a      	sbcs	r2, r1
 8001902:	2100      	movs	r1, #0
 8001904:	4317      	orrs	r7, r2
 8001906:	e692      	b.n	800162e <__aeabi_dsub+0x1be>
 8001908:	2e00      	cmp	r6, #0
 800190a:	d114      	bne.n	8001936 <__aeabi_dsub+0x4c6>
 800190c:	0026      	movs	r6, r4
 800190e:	4650      	mov	r0, sl
 8001910:	4306      	orrs	r6, r0
 8001912:	d062      	beq.n	80019da <__aeabi_dsub+0x56a>
 8001914:	43db      	mvns	r3, r3
 8001916:	2b00      	cmp	r3, #0
 8001918:	d15c      	bne.n	80019d4 <__aeabi_dsub+0x564>
 800191a:	1887      	adds	r7, r0, r2
 800191c:	4297      	cmp	r7, r2
 800191e:	4192      	sbcs	r2, r2
 8001920:	1864      	adds	r4, r4, r1
 8001922:	4252      	negs	r2, r2
 8001924:	18a4      	adds	r4, r4, r2
 8001926:	4666      	mov	r6, ip
 8001928:	e687      	b.n	800163a <__aeabi_dsub+0x1ca>
 800192a:	4650      	mov	r0, sl
 800192c:	4320      	orrs	r0, r4
 800192e:	1e44      	subs	r4, r0, #1
 8001930:	41a0      	sbcs	r0, r4
 8001932:	2400      	movs	r4, #0
 8001934:	e760      	b.n	80017f8 <__aeabi_dsub+0x388>
 8001936:	4e57      	ldr	r6, [pc, #348]	; (8001a94 <__aeabi_dsub+0x624>)
 8001938:	45b4      	cmp	ip, r6
 800193a:	d04e      	beq.n	80019da <__aeabi_dsub+0x56a>
 800193c:	2680      	movs	r6, #128	; 0x80
 800193e:	0436      	lsls	r6, r6, #16
 8001940:	425b      	negs	r3, r3
 8001942:	4334      	orrs	r4, r6
 8001944:	2b38      	cmp	r3, #56	; 0x38
 8001946:	dd00      	ble.n	800194a <__aeabi_dsub+0x4da>
 8001948:	e07f      	b.n	8001a4a <__aeabi_dsub+0x5da>
 800194a:	2b1f      	cmp	r3, #31
 800194c:	dd00      	ble.n	8001950 <__aeabi_dsub+0x4e0>
 800194e:	e08b      	b.n	8001a68 <__aeabi_dsub+0x5f8>
 8001950:	2620      	movs	r6, #32
 8001952:	0027      	movs	r7, r4
 8001954:	4650      	mov	r0, sl
 8001956:	1af6      	subs	r6, r6, r3
 8001958:	40b7      	lsls	r7, r6
 800195a:	40d8      	lsrs	r0, r3
 800195c:	4307      	orrs	r7, r0
 800195e:	4650      	mov	r0, sl
 8001960:	40b0      	lsls	r0, r6
 8001962:	1e46      	subs	r6, r0, #1
 8001964:	41b0      	sbcs	r0, r6
 8001966:	4307      	orrs	r7, r0
 8001968:	40dc      	lsrs	r4, r3
 800196a:	18bf      	adds	r7, r7, r2
 800196c:	e7d6      	b.n	800191c <__aeabi_dsub+0x4ac>
 800196e:	000d      	movs	r5, r1
 8001970:	4315      	orrs	r5, r2
 8001972:	d100      	bne.n	8001976 <__aeabi_dsub+0x506>
 8001974:	e602      	b.n	800157c <__aeabi_dsub+0x10c>
 8001976:	4650      	mov	r0, sl
 8001978:	1a80      	subs	r0, r0, r2
 800197a:	4582      	cmp	sl, r0
 800197c:	41bf      	sbcs	r7, r7
 800197e:	1a65      	subs	r5, r4, r1
 8001980:	427f      	negs	r7, r7
 8001982:	1bed      	subs	r5, r5, r7
 8001984:	4684      	mov	ip, r0
 8001986:	0228      	lsls	r0, r5, #8
 8001988:	d400      	bmi.n	800198c <__aeabi_dsub+0x51c>
 800198a:	e68d      	b.n	80016a8 <__aeabi_dsub+0x238>
 800198c:	4650      	mov	r0, sl
 800198e:	1a17      	subs	r7, r2, r0
 8001990:	42ba      	cmp	r2, r7
 8001992:	4192      	sbcs	r2, r2
 8001994:	1b0c      	subs	r4, r1, r4
 8001996:	4252      	negs	r2, r2
 8001998:	1aa4      	subs	r4, r4, r2
 800199a:	4698      	mov	r8, r3
 800199c:	e5ee      	b.n	800157c <__aeabi_dsub+0x10c>
 800199e:	000d      	movs	r5, r1
 80019a0:	4315      	orrs	r5, r2
 80019a2:	d100      	bne.n	80019a6 <__aeabi_dsub+0x536>
 80019a4:	e76b      	b.n	800187e <__aeabi_dsub+0x40e>
 80019a6:	4650      	mov	r0, sl
 80019a8:	0767      	lsls	r7, r4, #29
 80019aa:	08c0      	lsrs	r0, r0, #3
 80019ac:	4307      	orrs	r7, r0
 80019ae:	2080      	movs	r0, #128	; 0x80
 80019b0:	08e4      	lsrs	r4, r4, #3
 80019b2:	0300      	lsls	r0, r0, #12
 80019b4:	4204      	tst	r4, r0
 80019b6:	d007      	beq.n	80019c8 <__aeabi_dsub+0x558>
 80019b8:	08cd      	lsrs	r5, r1, #3
 80019ba:	4205      	tst	r5, r0
 80019bc:	d104      	bne.n	80019c8 <__aeabi_dsub+0x558>
 80019be:	002c      	movs	r4, r5
 80019c0:	4698      	mov	r8, r3
 80019c2:	08d7      	lsrs	r7, r2, #3
 80019c4:	0749      	lsls	r1, r1, #29
 80019c6:	430f      	orrs	r7, r1
 80019c8:	0f7b      	lsrs	r3, r7, #29
 80019ca:	00e4      	lsls	r4, r4, #3
 80019cc:	431c      	orrs	r4, r3
 80019ce:	00ff      	lsls	r7, r7, #3
 80019d0:	4e30      	ldr	r6, [pc, #192]	; (8001a94 <__aeabi_dsub+0x624>)
 80019d2:	e5d3      	b.n	800157c <__aeabi_dsub+0x10c>
 80019d4:	4e2f      	ldr	r6, [pc, #188]	; (8001a94 <__aeabi_dsub+0x624>)
 80019d6:	45b4      	cmp	ip, r6
 80019d8:	d1b4      	bne.n	8001944 <__aeabi_dsub+0x4d4>
 80019da:	000c      	movs	r4, r1
 80019dc:	0017      	movs	r7, r2
 80019de:	4666      	mov	r6, ip
 80019e0:	e5cc      	b.n	800157c <__aeabi_dsub+0x10c>
 80019e2:	2700      	movs	r7, #0
 80019e4:	2400      	movs	r4, #0
 80019e6:	e5e8      	b.n	80015ba <__aeabi_dsub+0x14a>
 80019e8:	2b00      	cmp	r3, #0
 80019ea:	d039      	beq.n	8001a60 <__aeabi_dsub+0x5f0>
 80019ec:	000b      	movs	r3, r1
 80019ee:	4313      	orrs	r3, r2
 80019f0:	d100      	bne.n	80019f4 <__aeabi_dsub+0x584>
 80019f2:	e744      	b.n	800187e <__aeabi_dsub+0x40e>
 80019f4:	08c0      	lsrs	r0, r0, #3
 80019f6:	0767      	lsls	r7, r4, #29
 80019f8:	4307      	orrs	r7, r0
 80019fa:	2080      	movs	r0, #128	; 0x80
 80019fc:	08e4      	lsrs	r4, r4, #3
 80019fe:	0300      	lsls	r0, r0, #12
 8001a00:	4204      	tst	r4, r0
 8001a02:	d0e1      	beq.n	80019c8 <__aeabi_dsub+0x558>
 8001a04:	08cb      	lsrs	r3, r1, #3
 8001a06:	4203      	tst	r3, r0
 8001a08:	d1de      	bne.n	80019c8 <__aeabi_dsub+0x558>
 8001a0a:	08d7      	lsrs	r7, r2, #3
 8001a0c:	0749      	lsls	r1, r1, #29
 8001a0e:	430f      	orrs	r7, r1
 8001a10:	001c      	movs	r4, r3
 8001a12:	e7d9      	b.n	80019c8 <__aeabi_dsub+0x558>
 8001a14:	2100      	movs	r1, #0
 8001a16:	e771      	b.n	80018fc <__aeabi_dsub+0x48c>
 8001a18:	2500      	movs	r5, #0
 8001a1a:	2700      	movs	r7, #0
 8001a1c:	e5e9      	b.n	80015f2 <__aeabi_dsub+0x182>
 8001a1e:	002e      	movs	r6, r5
 8001a20:	0027      	movs	r7, r4
 8001a22:	3e20      	subs	r6, #32
 8001a24:	40f7      	lsrs	r7, r6
 8001a26:	2d20      	cmp	r5, #32
 8001a28:	d02f      	beq.n	8001a8a <__aeabi_dsub+0x61a>
 8001a2a:	2640      	movs	r6, #64	; 0x40
 8001a2c:	1b75      	subs	r5, r6, r5
 8001a2e:	40ac      	lsls	r4, r5
 8001a30:	4650      	mov	r0, sl
 8001a32:	4320      	orrs	r0, r4
 8001a34:	1e44      	subs	r4, r0, #1
 8001a36:	41a0      	sbcs	r0, r4
 8001a38:	2400      	movs	r4, #0
 8001a3a:	4338      	orrs	r0, r7
 8001a3c:	e6dc      	b.n	80017f8 <__aeabi_dsub+0x388>
 8001a3e:	2480      	movs	r4, #128	; 0x80
 8001a40:	2500      	movs	r5, #0
 8001a42:	0324      	lsls	r4, r4, #12
 8001a44:	4e13      	ldr	r6, [pc, #76]	; (8001a94 <__aeabi_dsub+0x624>)
 8001a46:	2700      	movs	r7, #0
 8001a48:	e5d3      	b.n	80015f2 <__aeabi_dsub+0x182>
 8001a4a:	4650      	mov	r0, sl
 8001a4c:	4320      	orrs	r0, r4
 8001a4e:	0007      	movs	r7, r0
 8001a50:	1e78      	subs	r0, r7, #1
 8001a52:	4187      	sbcs	r7, r0
 8001a54:	2400      	movs	r4, #0
 8001a56:	18bf      	adds	r7, r7, r2
 8001a58:	e760      	b.n	800191c <__aeabi_dsub+0x4ac>
 8001a5a:	000c      	movs	r4, r1
 8001a5c:	0017      	movs	r7, r2
 8001a5e:	e58d      	b.n	800157c <__aeabi_dsub+0x10c>
 8001a60:	000c      	movs	r4, r1
 8001a62:	0017      	movs	r7, r2
 8001a64:	4e0b      	ldr	r6, [pc, #44]	; (8001a94 <__aeabi_dsub+0x624>)
 8001a66:	e589      	b.n	800157c <__aeabi_dsub+0x10c>
 8001a68:	001e      	movs	r6, r3
 8001a6a:	0027      	movs	r7, r4
 8001a6c:	3e20      	subs	r6, #32
 8001a6e:	40f7      	lsrs	r7, r6
 8001a70:	2b20      	cmp	r3, #32
 8001a72:	d00c      	beq.n	8001a8e <__aeabi_dsub+0x61e>
 8001a74:	2640      	movs	r6, #64	; 0x40
 8001a76:	1af3      	subs	r3, r6, r3
 8001a78:	409c      	lsls	r4, r3
 8001a7a:	4650      	mov	r0, sl
 8001a7c:	4320      	orrs	r0, r4
 8001a7e:	1e44      	subs	r4, r0, #1
 8001a80:	41a0      	sbcs	r0, r4
 8001a82:	4307      	orrs	r7, r0
 8001a84:	2400      	movs	r4, #0
 8001a86:	18bf      	adds	r7, r7, r2
 8001a88:	e748      	b.n	800191c <__aeabi_dsub+0x4ac>
 8001a8a:	2400      	movs	r4, #0
 8001a8c:	e7d0      	b.n	8001a30 <__aeabi_dsub+0x5c0>
 8001a8e:	2400      	movs	r4, #0
 8001a90:	e7f3      	b.n	8001a7a <__aeabi_dsub+0x60a>
 8001a92:	46c0      	nop			; (mov r8, r8)
 8001a94:	000007ff 	.word	0x000007ff
 8001a98:	ff7fffff 	.word	0xff7fffff

08001a9c <__aeabi_f2d>:
 8001a9c:	0041      	lsls	r1, r0, #1
 8001a9e:	0e09      	lsrs	r1, r1, #24
 8001aa0:	1c4b      	adds	r3, r1, #1
 8001aa2:	b570      	push	{r4, r5, r6, lr}
 8001aa4:	b2db      	uxtb	r3, r3
 8001aa6:	0246      	lsls	r6, r0, #9
 8001aa8:	0a75      	lsrs	r5, r6, #9
 8001aaa:	0fc4      	lsrs	r4, r0, #31
 8001aac:	2b01      	cmp	r3, #1
 8001aae:	dd14      	ble.n	8001ada <__aeabi_f2d+0x3e>
 8001ab0:	23e0      	movs	r3, #224	; 0xe0
 8001ab2:	009b      	lsls	r3, r3, #2
 8001ab4:	076d      	lsls	r5, r5, #29
 8001ab6:	0b36      	lsrs	r6, r6, #12
 8001ab8:	18cb      	adds	r3, r1, r3
 8001aba:	2100      	movs	r1, #0
 8001abc:	0d0a      	lsrs	r2, r1, #20
 8001abe:	0028      	movs	r0, r5
 8001ac0:	0512      	lsls	r2, r2, #20
 8001ac2:	4d1c      	ldr	r5, [pc, #112]	; (8001b34 <__aeabi_f2d+0x98>)
 8001ac4:	4332      	orrs	r2, r6
 8001ac6:	055b      	lsls	r3, r3, #21
 8001ac8:	402a      	ands	r2, r5
 8001aca:	085b      	lsrs	r3, r3, #1
 8001acc:	4313      	orrs	r3, r2
 8001ace:	005b      	lsls	r3, r3, #1
 8001ad0:	07e4      	lsls	r4, r4, #31
 8001ad2:	085b      	lsrs	r3, r3, #1
 8001ad4:	4323      	orrs	r3, r4
 8001ad6:	0019      	movs	r1, r3
 8001ad8:	bd70      	pop	{r4, r5, r6, pc}
 8001ada:	2900      	cmp	r1, #0
 8001adc:	d114      	bne.n	8001b08 <__aeabi_f2d+0x6c>
 8001ade:	2d00      	cmp	r5, #0
 8001ae0:	d01e      	beq.n	8001b20 <__aeabi_f2d+0x84>
 8001ae2:	0028      	movs	r0, r5
 8001ae4:	f000 f8b6 	bl	8001c54 <__clzsi2>
 8001ae8:	280a      	cmp	r0, #10
 8001aea:	dc1c      	bgt.n	8001b26 <__aeabi_f2d+0x8a>
 8001aec:	230b      	movs	r3, #11
 8001aee:	002a      	movs	r2, r5
 8001af0:	1a1b      	subs	r3, r3, r0
 8001af2:	40da      	lsrs	r2, r3
 8001af4:	0003      	movs	r3, r0
 8001af6:	3315      	adds	r3, #21
 8001af8:	409d      	lsls	r5, r3
 8001afa:	4b0f      	ldr	r3, [pc, #60]	; (8001b38 <__aeabi_f2d+0x9c>)
 8001afc:	0312      	lsls	r2, r2, #12
 8001afe:	1a1b      	subs	r3, r3, r0
 8001b00:	055b      	lsls	r3, r3, #21
 8001b02:	0b16      	lsrs	r6, r2, #12
 8001b04:	0d5b      	lsrs	r3, r3, #21
 8001b06:	e7d8      	b.n	8001aba <__aeabi_f2d+0x1e>
 8001b08:	2d00      	cmp	r5, #0
 8001b0a:	d006      	beq.n	8001b1a <__aeabi_f2d+0x7e>
 8001b0c:	0b32      	lsrs	r2, r6, #12
 8001b0e:	2680      	movs	r6, #128	; 0x80
 8001b10:	0336      	lsls	r6, r6, #12
 8001b12:	076d      	lsls	r5, r5, #29
 8001b14:	4316      	orrs	r6, r2
 8001b16:	4b09      	ldr	r3, [pc, #36]	; (8001b3c <__aeabi_f2d+0xa0>)
 8001b18:	e7cf      	b.n	8001aba <__aeabi_f2d+0x1e>
 8001b1a:	4b08      	ldr	r3, [pc, #32]	; (8001b3c <__aeabi_f2d+0xa0>)
 8001b1c:	2600      	movs	r6, #0
 8001b1e:	e7cc      	b.n	8001aba <__aeabi_f2d+0x1e>
 8001b20:	2300      	movs	r3, #0
 8001b22:	2600      	movs	r6, #0
 8001b24:	e7c9      	b.n	8001aba <__aeabi_f2d+0x1e>
 8001b26:	0003      	movs	r3, r0
 8001b28:	002a      	movs	r2, r5
 8001b2a:	3b0b      	subs	r3, #11
 8001b2c:	409a      	lsls	r2, r3
 8001b2e:	2500      	movs	r5, #0
 8001b30:	e7e3      	b.n	8001afa <__aeabi_f2d+0x5e>
 8001b32:	46c0      	nop			; (mov r8, r8)
 8001b34:	800fffff 	.word	0x800fffff
 8001b38:	00000389 	.word	0x00000389
 8001b3c:	000007ff 	.word	0x000007ff

08001b40 <__aeabi_d2f>:
 8001b40:	b5f0      	push	{r4, r5, r6, r7, lr}
 8001b42:	004c      	lsls	r4, r1, #1
 8001b44:	0d64      	lsrs	r4, r4, #21
 8001b46:	030b      	lsls	r3, r1, #12
 8001b48:	1c62      	adds	r2, r4, #1
 8001b4a:	0f45      	lsrs	r5, r0, #29
 8001b4c:	0a5b      	lsrs	r3, r3, #9
 8001b4e:	0552      	lsls	r2, r2, #21
 8001b50:	432b      	orrs	r3, r5
 8001b52:	0fc9      	lsrs	r1, r1, #31
 8001b54:	00c5      	lsls	r5, r0, #3
 8001b56:	0d52      	lsrs	r2, r2, #21
 8001b58:	2a01      	cmp	r2, #1
 8001b5a:	dd28      	ble.n	8001bae <__aeabi_d2f+0x6e>
 8001b5c:	4a3a      	ldr	r2, [pc, #232]	; (8001c48 <__aeabi_d2f+0x108>)
 8001b5e:	18a6      	adds	r6, r4, r2
 8001b60:	2efe      	cmp	r6, #254	; 0xfe
 8001b62:	dc1b      	bgt.n	8001b9c <__aeabi_d2f+0x5c>
 8001b64:	2e00      	cmp	r6, #0
 8001b66:	dd3e      	ble.n	8001be6 <__aeabi_d2f+0xa6>
 8001b68:	0180      	lsls	r0, r0, #6
 8001b6a:	0002      	movs	r2, r0
 8001b6c:	1e50      	subs	r0, r2, #1
 8001b6e:	4182      	sbcs	r2, r0
 8001b70:	0f6d      	lsrs	r5, r5, #29
 8001b72:	432a      	orrs	r2, r5
 8001b74:	00db      	lsls	r3, r3, #3
 8001b76:	4313      	orrs	r3, r2
 8001b78:	075a      	lsls	r2, r3, #29
 8001b7a:	d004      	beq.n	8001b86 <__aeabi_d2f+0x46>
 8001b7c:	220f      	movs	r2, #15
 8001b7e:	401a      	ands	r2, r3
 8001b80:	2a04      	cmp	r2, #4
 8001b82:	d000      	beq.n	8001b86 <__aeabi_d2f+0x46>
 8001b84:	3304      	adds	r3, #4
 8001b86:	2280      	movs	r2, #128	; 0x80
 8001b88:	04d2      	lsls	r2, r2, #19
 8001b8a:	401a      	ands	r2, r3
 8001b8c:	d05a      	beq.n	8001c44 <__aeabi_d2f+0x104>
 8001b8e:	3601      	adds	r6, #1
 8001b90:	2eff      	cmp	r6, #255	; 0xff
 8001b92:	d003      	beq.n	8001b9c <__aeabi_d2f+0x5c>
 8001b94:	019b      	lsls	r3, r3, #6
 8001b96:	0a5b      	lsrs	r3, r3, #9
 8001b98:	b2f4      	uxtb	r4, r6
 8001b9a:	e001      	b.n	8001ba0 <__aeabi_d2f+0x60>
 8001b9c:	24ff      	movs	r4, #255	; 0xff
 8001b9e:	2300      	movs	r3, #0
 8001ba0:	0258      	lsls	r0, r3, #9
 8001ba2:	05e4      	lsls	r4, r4, #23
 8001ba4:	0a40      	lsrs	r0, r0, #9
 8001ba6:	07c9      	lsls	r1, r1, #31
 8001ba8:	4320      	orrs	r0, r4
 8001baa:	4308      	orrs	r0, r1
 8001bac:	bdf0      	pop	{r4, r5, r6, r7, pc}
 8001bae:	2c00      	cmp	r4, #0
 8001bb0:	d007      	beq.n	8001bc2 <__aeabi_d2f+0x82>
 8001bb2:	431d      	orrs	r5, r3
 8001bb4:	d0f2      	beq.n	8001b9c <__aeabi_d2f+0x5c>
 8001bb6:	2080      	movs	r0, #128	; 0x80
 8001bb8:	00db      	lsls	r3, r3, #3
 8001bba:	0480      	lsls	r0, r0, #18
 8001bbc:	4303      	orrs	r3, r0
 8001bbe:	26ff      	movs	r6, #255	; 0xff
 8001bc0:	e7da      	b.n	8001b78 <__aeabi_d2f+0x38>
 8001bc2:	432b      	orrs	r3, r5
 8001bc4:	d003      	beq.n	8001bce <__aeabi_d2f+0x8e>
 8001bc6:	2305      	movs	r3, #5
 8001bc8:	08db      	lsrs	r3, r3, #3
 8001bca:	2cff      	cmp	r4, #255	; 0xff
 8001bcc:	d003      	beq.n	8001bd6 <__aeabi_d2f+0x96>
 8001bce:	025b      	lsls	r3, r3, #9
 8001bd0:	0a5b      	lsrs	r3, r3, #9
 8001bd2:	b2e4      	uxtb	r4, r4
 8001bd4:	e7e4      	b.n	8001ba0 <__aeabi_d2f+0x60>
 8001bd6:	2b00      	cmp	r3, #0
 8001bd8:	d032      	beq.n	8001c40 <__aeabi_d2f+0x100>
 8001bda:	2080      	movs	r0, #128	; 0x80
 8001bdc:	03c0      	lsls	r0, r0, #15
 8001bde:	4303      	orrs	r3, r0
 8001be0:	025b      	lsls	r3, r3, #9
 8001be2:	0a5b      	lsrs	r3, r3, #9
 8001be4:	e7dc      	b.n	8001ba0 <__aeabi_d2f+0x60>
 8001be6:	0032      	movs	r2, r6
 8001be8:	3217      	adds	r2, #23
 8001bea:	db14      	blt.n	8001c16 <__aeabi_d2f+0xd6>
 8001bec:	2280      	movs	r2, #128	; 0x80
 8001bee:	271e      	movs	r7, #30
 8001bf0:	0412      	lsls	r2, r2, #16
 8001bf2:	4313      	orrs	r3, r2
 8001bf4:	1bbf      	subs	r7, r7, r6
 8001bf6:	2f1f      	cmp	r7, #31
 8001bf8:	dc0f      	bgt.n	8001c1a <__aeabi_d2f+0xda>
 8001bfa:	4a14      	ldr	r2, [pc, #80]	; (8001c4c <__aeabi_d2f+0x10c>)
 8001bfc:	4694      	mov	ip, r2
 8001bfe:	4464      	add	r4, ip
 8001c00:	002a      	movs	r2, r5
 8001c02:	40a5      	lsls	r5, r4
 8001c04:	002e      	movs	r6, r5
 8001c06:	40a3      	lsls	r3, r4
 8001c08:	1e75      	subs	r5, r6, #1
 8001c0a:	41ae      	sbcs	r6, r5
 8001c0c:	40fa      	lsrs	r2, r7
 8001c0e:	4333      	orrs	r3, r6
 8001c10:	4313      	orrs	r3, r2
 8001c12:	2600      	movs	r6, #0
 8001c14:	e7b0      	b.n	8001b78 <__aeabi_d2f+0x38>
 8001c16:	2400      	movs	r4, #0
 8001c18:	e7d5      	b.n	8001bc6 <__aeabi_d2f+0x86>
 8001c1a:	2202      	movs	r2, #2
 8001c1c:	4252      	negs	r2, r2
 8001c1e:	1b96      	subs	r6, r2, r6
 8001c20:	001a      	movs	r2, r3
 8001c22:	40f2      	lsrs	r2, r6
 8001c24:	2f20      	cmp	r7, #32
 8001c26:	d009      	beq.n	8001c3c <__aeabi_d2f+0xfc>
 8001c28:	4809      	ldr	r0, [pc, #36]	; (8001c50 <__aeabi_d2f+0x110>)
 8001c2a:	4684      	mov	ip, r0
 8001c2c:	4464      	add	r4, ip
 8001c2e:	40a3      	lsls	r3, r4
 8001c30:	432b      	orrs	r3, r5
 8001c32:	1e5d      	subs	r5, r3, #1
 8001c34:	41ab      	sbcs	r3, r5
 8001c36:	2600      	movs	r6, #0
 8001c38:	4313      	orrs	r3, r2
 8001c3a:	e79d      	b.n	8001b78 <__aeabi_d2f+0x38>
 8001c3c:	2300      	movs	r3, #0
 8001c3e:	e7f7      	b.n	8001c30 <__aeabi_d2f+0xf0>
 8001c40:	2300      	movs	r3, #0
 8001c42:	e7ad      	b.n	8001ba0 <__aeabi_d2f+0x60>
 8001c44:	0034      	movs	r4, r6
 8001c46:	e7bf      	b.n	8001bc8 <__aeabi_d2f+0x88>
 8001c48:	fffffc80 	.word	0xfffffc80
 8001c4c:	fffffc82 	.word	0xfffffc82
 8001c50:	fffffca2 	.word	0xfffffca2

08001c54 <__clzsi2>:
 8001c54:	211c      	movs	r1, #28
 8001c56:	2301      	movs	r3, #1
 8001c58:	041b      	lsls	r3, r3, #16
 8001c5a:	4298      	cmp	r0, r3
 8001c5c:	d301      	bcc.n	8001c62 <__clzsi2+0xe>
 8001c5e:	0c00      	lsrs	r0, r0, #16
 8001c60:	3910      	subs	r1, #16
 8001c62:	0a1b      	lsrs	r3, r3, #8
 8001c64:	4298      	cmp	r0, r3
 8001c66:	d301      	bcc.n	8001c6c <__clzsi2+0x18>
 8001c68:	0a00      	lsrs	r0, r0, #8
 8001c6a:	3908      	subs	r1, #8
 8001c6c:	091b      	lsrs	r3, r3, #4
 8001c6e:	4298      	cmp	r0, r3
 8001c70:	d301      	bcc.n	8001c76 <__clzsi2+0x22>
 8001c72:	0900      	lsrs	r0, r0, #4
 8001c74:	3904      	subs	r1, #4
 8001c76:	a202      	add	r2, pc, #8	; (adr r2, 8001c80 <__clzsi2+0x2c>)
 8001c78:	5c10      	ldrb	r0, [r2, r0]
 8001c7a:	1840      	adds	r0, r0, r1
 8001c7c:	4770      	bx	lr
 8001c7e:	46c0      	nop			; (mov r8, r8)
 8001c80:	02020304 	.word	0x02020304
 8001c84:	01010101 	.word	0x01010101
	...

08001c90 <HAL_InitTick>:
__weak HAL_StatusTypeDef HAL_InitTick(uint32_t TickPriority)
{
  HAL_StatusTypeDef  status = HAL_OK;

  /*Configure the SysTick to have interrupt in 1ms time basis*/
  if (HAL_SYSTICK_Config(SystemCoreClock/1000UL) != 0U)
 8001c90:	21fa      	movs	r1, #250	; 0xfa
 8001c92:	4b0a      	ldr	r3, [pc, #40]	; (8001cbc <HAL_InitTick+0x2c>)
{
 8001c94:	b570      	push	{r4, r5, r6, lr}
  if (HAL_SYSTICK_Config(SystemCoreClock/1000UL) != 0U)
 8001c96:	0089      	lsls	r1, r1, #2
{
 8001c98:	0005      	movs	r5, r0
  if (HAL_SYSTICK_Config(SystemCoreClock/1000UL) != 0U)
 8001c9a:	6818      	ldr	r0, [r3, #0]
 8001c9c:	f7fe fa5a 	bl	8000154 <__udivsi3>
 8001ca0:	f000 f87a 	bl	8001d98 <HAL_SYSTICK_Config>
 8001ca4:	0004      	movs	r4, r0
  {
    status = HAL_ERROR;
 8001ca6:	2001      	movs	r0, #1
  if (HAL_SYSTICK_Config(SystemCoreClock/1000UL) != 0U)
 8001ca8:	2c00      	cmp	r4, #0
 8001caa:	d105      	bne.n	8001cb8 <HAL_InitTick+0x28>
  }
  else
  {
    /*Configure the SysTick IRQ priority */
    HAL_NVIC_SetPriority(SysTick_IRQn, TickPriority, 0);
 8001cac:	3802      	subs	r0, #2
 8001cae:	0022      	movs	r2, r4
 8001cb0:	0029      	movs	r1, r5
 8001cb2:	f000 f837 	bl	8001d24 <HAL_NVIC_SetPriority>
 8001cb6:	0020      	movs	r0, r4
  }

  /* Return function status */
  return status;
}
 8001cb8:	bd70      	pop	{r4, r5, r6, pc}
 8001cba:	46c0      	nop			; (mov r8, r8)
 8001cbc:	2000011c 	.word	0x2000011c

08001cc0 <HAL_Init>:
  __HAL_FLASH_PREREAD_BUFFER_ENABLE();
 8001cc0:	2340      	movs	r3, #64	; 0x40
 8001cc2:	4a08      	ldr	r2, [pc, #32]	; (8001ce4 <HAL_Init+0x24>)
{
 8001cc4:	b510      	push	{r4, lr}
  __HAL_FLASH_PREREAD_BUFFER_ENABLE();
 8001cc6:	6811      	ldr	r1, [r2, #0]
  if (HAL_InitTick(TICK_INT_PRIORITY) != HAL_OK)
 8001cc8:	2000      	movs	r0, #0
  __HAL_FLASH_PREREAD_BUFFER_ENABLE();
 8001cca:	430b      	orrs	r3, r1
 8001ccc:	6013      	str	r3, [r2, #0]
  if (HAL_InitTick(TICK_INT_PRIORITY) != HAL_OK)
 8001cce:	f7ff ffdf 	bl	8001c90 <HAL_InitTick>
 8001cd2:	1e04      	subs	r4, r0, #0
 8001cd4:	d103      	bne.n	8001cde <HAL_Init+0x1e>
    HAL_MspInit();
 8001cd6:	f003 ff11 	bl	8005afc <HAL_MspInit>
}
 8001cda:	0020      	movs	r0, r4
 8001cdc:	bd10      	pop	{r4, pc}
    status = HAL_ERROR;
 8001cde:	2401      	movs	r4, #1
 8001ce0:	e7fb      	b.n	8001cda <HAL_Init+0x1a>
 8001ce2:	46c0      	nop			; (mov r8, r8)
 8001ce4:	40022000 	.word	0x40022000

08001ce8 <HAL_IncTick>:
  *      implementations in user file.
  * @retval None
  */
__weak void HAL_IncTick(void)
{
  uwTick++;
 8001ce8:	4a02      	ldr	r2, [pc, #8]	; (8001cf4 <HAL_IncTick+0xc>)
 8001cea:	6813      	ldr	r3, [r2, #0]
 8001cec:	3301      	adds	r3, #1
 8001cee:	6013      	str	r3, [r2, #0]
}
 8001cf0:	4770      	bx	lr
 8001cf2:	46c0      	nop			; (mov r8, r8)
 8001cf4:	20000440 	.word	0x20000440

08001cf8 <HAL_GetTick>:
  *       implementations in user file.
  * @retval tick value
  */
__weak uint32_t HAL_GetTick(void)
{
  return uwTick;
 8001cf8:	4b01      	ldr	r3, [pc, #4]	; (8001d00 <HAL_GetTick+0x8>)
 8001cfa:	6818      	ldr	r0, [r3, #0]
}
 8001cfc:	4770      	bx	lr
 8001cfe:	46c0      	nop			; (mov r8, r8)
 8001d00:	20000440 	.word	0x20000440

08001d04 <HAL_Delay>:
  *       implementations in user file.
  * @param Delay specifies the delay time length, in milliseconds.
  * @retval None
  */
__weak void HAL_Delay(uint32_t Delay)
{
 8001d04:	b570      	push	{r4, r5, r6, lr}
 8001d06:	0004      	movs	r4, r0
  uint32_t tickstart = HAL_GetTick();
 8001d08:	f7ff fff6 	bl	8001cf8 <HAL_GetTick>
  uint32_t wait = Delay;

  /* Add a period to guaranty minimum wait */
  if (wait < HAL_MAX_DELAY)
  {
    wait++;
 8001d0c:	1c63      	adds	r3, r4, #1
 8001d0e:	1e5a      	subs	r2, r3, #1
 8001d10:	4193      	sbcs	r3, r2
  uint32_t tickstart = HAL_GetTick();
 8001d12:	0005      	movs	r5, r0
    wait++;
 8001d14:	18e4      	adds	r4, r4, r3
  }

  while((HAL_GetTick() - tickstart) < wait)
 8001d16:	f7ff ffef 	bl	8001cf8 <HAL_GetTick>
 8001d1a:	1b40      	subs	r0, r0, r5
 8001d1c:	4284      	cmp	r4, r0
 8001d1e:	d8fa      	bhi.n	8001d16 <HAL_Delay+0x12>
  {
  }
}
 8001d20:	bd70      	pop	{r4, r5, r6, pc}
	...

08001d24 <HAL_NVIC_SetPriority>:
  *         with stm32l0xx devices, this parameter is a dummy value and it is ignored, because 
  *         no subpriority supported in Cortex M0+ based products.   
  * @retval None
  */
void HAL_NVIC_SetPriority(IRQn_Type IRQn, uint32_t PreemptPriority, uint32_t SubPriority)
{ 
 8001d24:	b570      	push	{r4, r5, r6, lr}
 8001d26:	0189      	lsls	r1, r1, #6
  \param [in]      IRQn  Interrupt number.
  \param [in]  priority  Priority to set.
 */
__STATIC_INLINE void NVIC_SetPriority(IRQn_Type IRQn, uint32_t priority)
{
  if ((int32_t)(IRQn) < 0)
 8001d28:	2800      	cmp	r0, #0
 8001d2a:	da14      	bge.n	8001d56 <HAL_NVIC_SetPriority+0x32>
  {
    SCB->SHP[_SHP_IDX(IRQn)] = ((uint32_t)(SCB->SHP[_SHP_IDX(IRQn)] & ~(0xFFUL << _BIT_SHIFT(IRQn))) |
 8001d2c:	230f      	movs	r3, #15
 8001d2e:	b2c0      	uxtb	r0, r0
 8001d30:	4003      	ands	r3, r0
 8001d32:	3b08      	subs	r3, #8
 8001d34:	4a11      	ldr	r2, [pc, #68]	; (8001d7c <HAL_NVIC_SetPriority+0x58>)
 8001d36:	089b      	lsrs	r3, r3, #2
 8001d38:	009b      	lsls	r3, r3, #2
 8001d3a:	189b      	adds	r3, r3, r2
 8001d3c:	2203      	movs	r2, #3
 8001d3e:	4010      	ands	r0, r2
 8001d40:	4090      	lsls	r0, r2
 8001d42:	32fc      	adds	r2, #252	; 0xfc
 8001d44:	0015      	movs	r5, r2
       (((priority << (8U - __NVIC_PRIO_BITS)) & (uint32_t)0xFFUL) << _BIT_SHIFT(IRQn)));
 8001d46:	4011      	ands	r1, r2
    SCB->SHP[_SHP_IDX(IRQn)] = ((uint32_t)(SCB->SHP[_SHP_IDX(IRQn)] & ~(0xFFUL << _BIT_SHIFT(IRQn))) |
 8001d48:	4085      	lsls	r5, r0
       (((priority << (8U - __NVIC_PRIO_BITS)) & (uint32_t)0xFFUL) << _BIT_SHIFT(IRQn)));
 8001d4a:	4081      	lsls	r1, r0
    SCB->SHP[_SHP_IDX(IRQn)] = ((uint32_t)(SCB->SHP[_SHP_IDX(IRQn)] & ~(0xFFUL << _BIT_SHIFT(IRQn))) |
 8001d4c:	69dc      	ldr	r4, [r3, #28]
 8001d4e:	43ac      	bics	r4, r5
 8001d50:	4321      	orrs	r1, r4
 8001d52:	61d9      	str	r1, [r3, #28]
    /* Check the parameters */
  assert_param(IS_NVIC_PREEMPTION_PRIORITY(PreemptPriority));
  NVIC_SetPriority(IRQn,PreemptPriority);
}
 8001d54:	bd70      	pop	{r4, r5, r6, pc}
  }
  else
  {
    NVIC->IP[_IP_IDX(IRQn)]  = ((uint32_t)(NVIC->IP[_IP_IDX(IRQn)]  & ~(0xFFUL << _BIT_SHIFT(IRQn))) |
 8001d56:	2503      	movs	r5, #3
 8001d58:	0883      	lsrs	r3, r0, #2
 8001d5a:	4028      	ands	r0, r5
 8001d5c:	40a8      	lsls	r0, r5
 8001d5e:	35fc      	adds	r5, #252	; 0xfc
 8001d60:	002e      	movs	r6, r5
 8001d62:	4a07      	ldr	r2, [pc, #28]	; (8001d80 <HAL_NVIC_SetPriority+0x5c>)
 8001d64:	009b      	lsls	r3, r3, #2
 8001d66:	189b      	adds	r3, r3, r2
 8001d68:	22c0      	movs	r2, #192	; 0xc0
 8001d6a:	4086      	lsls	r6, r0
       (((priority << (8U - __NVIC_PRIO_BITS)) & (uint32_t)0xFFUL) << _BIT_SHIFT(IRQn)));
 8001d6c:	4029      	ands	r1, r5
 8001d6e:	4081      	lsls	r1, r0
    NVIC->IP[_IP_IDX(IRQn)]  = ((uint32_t)(NVIC->IP[_IP_IDX(IRQn)]  & ~(0xFFUL << _BIT_SHIFT(IRQn))) |
 8001d70:	0092      	lsls	r2, r2, #2
 8001d72:	589c      	ldr	r4, [r3, r2]
 8001d74:	43b4      	bics	r4, r6
 8001d76:	4321      	orrs	r1, r4
 8001d78:	5099      	str	r1, [r3, r2]
 8001d7a:	e7eb      	b.n	8001d54 <HAL_NVIC_SetPriority+0x30>
 8001d7c:	e000ed00 	.word	0xe000ed00
 8001d80:	e000e100 	.word	0xe000e100

08001d84 <HAL_NVIC_EnableIRQ>:
  NVIC->ISER[0U] = (uint32_t)(1UL << (((uint32_t)(int32_t)IRQn) & 0x1FUL));
 8001d84:	231f      	movs	r3, #31
 8001d86:	4018      	ands	r0, r3
 8001d88:	3b1e      	subs	r3, #30
 8001d8a:	4083      	lsls	r3, r0
 8001d8c:	4a01      	ldr	r2, [pc, #4]	; (8001d94 <HAL_NVIC_EnableIRQ+0x10>)
 8001d8e:	6013      	str	r3, [r2, #0]
  /* Check the parameters */
  assert_param(IS_NVIC_DEVICE_IRQ(IRQn));
  
  /* Enable interrupt */
  NVIC_EnableIRQ(IRQn);
}
 8001d90:	4770      	bx	lr
 8001d92:	46c0      	nop			; (mov r8, r8)
 8001d94:	e000e100 	.word	0xe000e100

08001d98 <HAL_SYSTICK_Config>:
           function <b>SysTick_Config</b> is not included. In this case, the file <b><i>device</i>.h</b>
           must contain a vendor-specific implementation of this function.
 */
__STATIC_INLINE uint32_t SysTick_Config(uint32_t ticks)
{
  if ((ticks - 1UL) > SysTick_LOAD_RELOAD_Msk)
 8001d98:	4a09      	ldr	r2, [pc, #36]	; (8001dc0 <HAL_SYSTICK_Config+0x28>)
 8001d9a:	1e43      	subs	r3, r0, #1
  {
    return (1UL);                                                   /* Reload value impossible */
 8001d9c:	2001      	movs	r0, #1
  if ((ticks - 1UL) > SysTick_LOAD_RELOAD_Msk)
 8001d9e:	4293      	cmp	r3, r2
 8001da0:	d80d      	bhi.n	8001dbe <HAL_SYSTICK_Config+0x26>
    SCB->SHP[_SHP_IDX(IRQn)] = ((uint32_t)(SCB->SHP[_SHP_IDX(IRQn)] & ~(0xFFUL << _BIT_SHIFT(IRQn))) |
 8001da2:	21c0      	movs	r1, #192	; 0xc0
  }

  SysTick->LOAD  = (uint32_t)(ticks - 1UL);                         /* set reload register */
 8001da4:	4a07      	ldr	r2, [pc, #28]	; (8001dc4 <HAL_SYSTICK_Config+0x2c>)
    SCB->SHP[_SHP_IDX(IRQn)] = ((uint32_t)(SCB->SHP[_SHP_IDX(IRQn)] & ~(0xFFUL << _BIT_SHIFT(IRQn))) |
 8001da6:	4808      	ldr	r0, [pc, #32]	; (8001dc8 <HAL_SYSTICK_Config+0x30>)
  SysTick->LOAD  = (uint32_t)(ticks - 1UL);                         /* set reload register */
 8001da8:	6053      	str	r3, [r2, #4]
    SCB->SHP[_SHP_IDX(IRQn)] = ((uint32_t)(SCB->SHP[_SHP_IDX(IRQn)] & ~(0xFFUL << _BIT_SHIFT(IRQn))) |
 8001daa:	6a03      	ldr	r3, [r0, #32]
 8001dac:	0609      	lsls	r1, r1, #24
 8001dae:	021b      	lsls	r3, r3, #8
 8001db0:	0a1b      	lsrs	r3, r3, #8
 8001db2:	430b      	orrs	r3, r1
 8001db4:	6203      	str	r3, [r0, #32]
  NVIC_SetPriority (SysTick_IRQn, (1UL << __NVIC_PRIO_BITS) - 1UL); /* set Priority for Systick Interrupt */
  SysTick->VAL   = 0UL;                                             /* Load the SysTick Counter Value */
 8001db6:	2000      	movs	r0, #0
  SysTick->CTRL  = SysTick_CTRL_CLKSOURCE_Msk |
 8001db8:	2307      	movs	r3, #7
  SysTick->VAL   = 0UL;                                             /* Load the SysTick Counter Value */
 8001dba:	6090      	str	r0, [r2, #8]
  SysTick->CTRL  = SysTick_CTRL_CLKSOURCE_Msk |
 8001dbc:	6013      	str	r3, [r2, #0]
  *                  - 1  Function failed.
  */
uint32_t HAL_SYSTICK_Config(uint32_t TicksNumb)
{
   return SysTick_Config(TicksNumb);
}
 8001dbe:	4770      	bx	lr
 8001dc0:	00ffffff 	.word	0x00ffffff
 8001dc4:	e000e010 	.word	0xe000e010
 8001dc8:	e000ed00 	.word	0xe000ed00

08001dcc <HAL_DMA_Abort_IT>:
  * @param  hdma pointer to a DMA_HandleTypeDef structure that contains
  *                 the configuration information for the specified DMA Channel.
  * @retval HAL status
  */
HAL_StatusTypeDef HAL_DMA_Abort_IT(DMA_HandleTypeDef *hdma)
{
 8001dcc:	b570      	push	{r4, r5, r6, lr}
  HAL_StatusTypeDef status = HAL_OK;

  if(HAL_DMA_STATE_BUSY != hdma->State)
 8001dce:	1d84      	adds	r4, r0, #6
 8001dd0:	7fe3      	ldrb	r3, [r4, #31]
 8001dd2:	2b02      	cmp	r3, #2
 8001dd4:	d004      	beq.n	8001de0 <HAL_DMA_Abort_IT+0x14>
  {
    /* no transfer ongoing */
    hdma->ErrorCode = HAL_DMA_ERROR_NO_XFER;
 8001dd6:	2304      	movs	r3, #4
 8001dd8:	63c3      	str	r3, [r0, #60]	; 0x3c

    status = HAL_ERROR;
 8001dda:	3b03      	subs	r3, #3
    {
      hdma->XferAbortCallback(hdma);
    }
  }
  return status;
}
 8001ddc:	0018      	movs	r0, r3
 8001dde:	bd70      	pop	{r4, r5, r6, pc}
    __HAL_DMA_DISABLE_IT(hdma, (DMA_IT_TC | DMA_IT_HT | DMA_IT_TE));
 8001de0:	210e      	movs	r1, #14
 8001de2:	6803      	ldr	r3, [r0, #0]
    hdma->DmaBaseAddress->IFCR = (DMA_ISR_GIF1 << (hdma->ChannelIndex & 0x1cU));
 8001de4:	6c45      	ldr	r5, [r0, #68]	; 0x44
    __HAL_DMA_DISABLE_IT(hdma, (DMA_IT_TC | DMA_IT_HT | DMA_IT_TE));
 8001de6:	681a      	ldr	r2, [r3, #0]
 8001de8:	438a      	bics	r2, r1
 8001dea:	601a      	str	r2, [r3, #0]
    __HAL_DMA_DISABLE(hdma);
 8001dec:	2201      	movs	r2, #1
 8001dee:	6819      	ldr	r1, [r3, #0]
 8001df0:	4391      	bics	r1, r2
 8001df2:	6019      	str	r1, [r3, #0]
    hdma->DmaBaseAddress->IFCR = (DMA_ISR_GIF1 << (hdma->ChannelIndex & 0x1cU));
 8001df4:	231c      	movs	r3, #28
 8001df6:	402b      	ands	r3, r5
 8001df8:	0015      	movs	r5, r2
 8001dfa:	409d      	lsls	r5, r3
 8001dfc:	6c01      	ldr	r1, [r0, #64]	; 0x40
    __HAL_UNLOCK(hdma);
 8001dfe:	1d43      	adds	r3, r0, #5
    hdma->DmaBaseAddress->IFCR = (DMA_ISR_GIF1 << (hdma->ChannelIndex & 0x1cU));
 8001e00:	604d      	str	r5, [r1, #4]
    hdma->State = HAL_DMA_STATE_READY;
 8001e02:	77e2      	strb	r2, [r4, #31]
    __HAL_UNLOCK(hdma);
 8001e04:	2400      	movs	r4, #0
    if(hdma->XferAbortCallback != NULL)
 8001e06:	6b82      	ldr	r2, [r0, #56]	; 0x38
    __HAL_UNLOCK(hdma);
 8001e08:	77dc      	strb	r4, [r3, #31]
  HAL_StatusTypeDef status = HAL_OK;
 8001e0a:	0013      	movs	r3, r2
    if(hdma->XferAbortCallback != NULL)
 8001e0c:	42a2      	cmp	r2, r4
 8001e0e:	d0e5      	beq.n	8001ddc <HAL_DMA_Abort_IT+0x10>
      hdma->XferAbortCallback(hdma);
 8001e10:	4790      	blx	r2
  HAL_StatusTypeDef status = HAL_OK;
 8001e12:	0023      	movs	r3, r4
 8001e14:	e7e2      	b.n	8001ddc <HAL_DMA_Abort_IT+0x10>
	...

08001e18 <FLASH_SetErrorCode>:
  */
static void FLASH_SetErrorCode(void)
{
  uint32_t flags = 0;
  
  if(__HAL_FLASH_GET_FLAG(FLASH_FLAG_WRPERR))
 8001e18:	2180      	movs	r1, #128	; 0x80
 8001e1a:	4a27      	ldr	r2, [pc, #156]	; (8001eb8 <FLASH_SetErrorCode+0xa0>)
 8001e1c:	0049      	lsls	r1, r1, #1
 8001e1e:	6990      	ldr	r0, [r2, #24]
{
 8001e20:	b530      	push	{r4, r5, lr}
  uint32_t flags = 0;
 8001e22:	2300      	movs	r3, #0
  if(__HAL_FLASH_GET_FLAG(FLASH_FLAG_WRPERR))
 8001e24:	4208      	tst	r0, r1
 8001e26:	d005      	beq.n	8001e34 <FLASH_SetErrorCode+0x1c>
  {
    pFlash.ErrorCode |= HAL_FLASH_ERROR_WRP;
 8001e28:	4824      	ldr	r0, [pc, #144]	; (8001ebc <FLASH_SetErrorCode+0xa4>)
 8001e2a:	3302      	adds	r3, #2
 8001e2c:	6944      	ldr	r4, [r0, #20]
 8001e2e:	4323      	orrs	r3, r4
 8001e30:	6143      	str	r3, [r0, #20]
    flags |= FLASH_FLAG_WRPERR;
 8001e32:	000b      	movs	r3, r1
  }
  if(__HAL_FLASH_GET_FLAG(FLASH_FLAG_PGAERR))
 8001e34:	2080      	movs	r0, #128	; 0x80
 8001e36:	6991      	ldr	r1, [r2, #24]
 8001e38:	0080      	lsls	r0, r0, #2
 8001e3a:	4201      	tst	r1, r0
 8001e3c:	d005      	beq.n	8001e4a <FLASH_SetErrorCode+0x32>
  {
    pFlash.ErrorCode |= HAL_FLASH_ERROR_PGA;
 8001e3e:	2101      	movs	r1, #1
 8001e40:	4c1e      	ldr	r4, [pc, #120]	; (8001ebc <FLASH_SetErrorCode+0xa4>)
    flags |= FLASH_FLAG_PGAERR;
 8001e42:	4303      	orrs	r3, r0
    pFlash.ErrorCode |= HAL_FLASH_ERROR_PGA;
 8001e44:	6965      	ldr	r5, [r4, #20]
 8001e46:	4329      	orrs	r1, r5
 8001e48:	6161      	str	r1, [r4, #20]
  }
  if(__HAL_FLASH_GET_FLAG(FLASH_FLAG_SIZERR))
 8001e4a:	2080      	movs	r0, #128	; 0x80
 8001e4c:	6991      	ldr	r1, [r2, #24]
 8001e4e:	00c0      	lsls	r0, r0, #3
 8001e50:	4201      	tst	r1, r0
 8001e52:	d005      	beq.n	8001e60 <FLASH_SetErrorCode+0x48>
  { 
    pFlash.ErrorCode |= HAL_FLASH_ERROR_SIZE;
 8001e54:	2108      	movs	r1, #8
 8001e56:	4c19      	ldr	r4, [pc, #100]	; (8001ebc <FLASH_SetErrorCode+0xa4>)
    flags |= FLASH_FLAG_SIZERR;
 8001e58:	4303      	orrs	r3, r0
    pFlash.ErrorCode |= HAL_FLASH_ERROR_SIZE;
 8001e5a:	6965      	ldr	r5, [r4, #20]
 8001e5c:	4329      	orrs	r1, r5
 8001e5e:	6161      	str	r1, [r4, #20]
  }
  if(__HAL_FLASH_GET_FLAG(FLASH_FLAG_OPTVERR))
 8001e60:	2080      	movs	r0, #128	; 0x80
 8001e62:	6991      	ldr	r1, [r2, #24]
 8001e64:	0100      	lsls	r0, r0, #4
 8001e66:	4201      	tst	r1, r0
 8001e68:	d005      	beq.n	8001e76 <FLASH_SetErrorCode+0x5e>
     *           cut of the STM32L031xx device or the first cut of the STM32L041xx
     *           device, this error should be ignored. The revId of the device
     *           can be retrieved via the HAL_GetREVID() function.
     *
     */
    pFlash.ErrorCode |= HAL_FLASH_ERROR_OPTV;
 8001e6a:	2104      	movs	r1, #4
 8001e6c:	4c13      	ldr	r4, [pc, #76]	; (8001ebc <FLASH_SetErrorCode+0xa4>)
    flags |= FLASH_FLAG_OPTVERR;
 8001e6e:	4303      	orrs	r3, r0
    pFlash.ErrorCode |= HAL_FLASH_ERROR_OPTV;
 8001e70:	6965      	ldr	r5, [r4, #20]
 8001e72:	4329      	orrs	r1, r5
 8001e74:	6161      	str	r1, [r4, #20]
  }

  if(__HAL_FLASH_GET_FLAG(FLASH_FLAG_RDERR))
 8001e76:	2080      	movs	r0, #128	; 0x80
 8001e78:	6991      	ldr	r1, [r2, #24]
 8001e7a:	0180      	lsls	r0, r0, #6
 8001e7c:	4201      	tst	r1, r0
 8001e7e:	d005      	beq.n	8001e8c <FLASH_SetErrorCode+0x74>
  {
    pFlash.ErrorCode |= HAL_FLASH_ERROR_RD;
 8001e80:	2110      	movs	r1, #16
 8001e82:	4c0e      	ldr	r4, [pc, #56]	; (8001ebc <FLASH_SetErrorCode+0xa4>)
    flags |= FLASH_FLAG_RDERR;
 8001e84:	4303      	orrs	r3, r0
    pFlash.ErrorCode |= HAL_FLASH_ERROR_RD;
 8001e86:	6965      	ldr	r5, [r4, #20]
 8001e88:	4329      	orrs	r1, r5
 8001e8a:	6161      	str	r1, [r4, #20]
  }
  if(__HAL_FLASH_GET_FLAG(FLASH_FLAG_FWWERR))
 8001e8c:	6991      	ldr	r1, [r2, #24]
 8001e8e:	0389      	lsls	r1, r1, #14
 8001e90:	d505      	bpl.n	8001e9e <FLASH_SetErrorCode+0x86>
  { 
    pFlash.ErrorCode |= HAL_FLASH_ERROR_FWWERR;
 8001e92:	2020      	movs	r0, #32
 8001e94:	4c09      	ldr	r4, [pc, #36]	; (8001ebc <FLASH_SetErrorCode+0xa4>)
    flags |= HAL_FLASH_ERROR_FWWERR;
 8001e96:	4303      	orrs	r3, r0
    pFlash.ErrorCode |= HAL_FLASH_ERROR_FWWERR;
 8001e98:	6961      	ldr	r1, [r4, #20]
 8001e9a:	4301      	orrs	r1, r0
 8001e9c:	6161      	str	r1, [r4, #20]
  }
  if(__HAL_FLASH_GET_FLAG(FLASH_FLAG_NOTZEROERR))
 8001e9e:	2080      	movs	r0, #128	; 0x80
 8001ea0:	6991      	ldr	r1, [r2, #24]
 8001ea2:	0240      	lsls	r0, r0, #9
 8001ea4:	4201      	tst	r1, r0
 8001ea6:	d005      	beq.n	8001eb4 <FLASH_SetErrorCode+0x9c>
  { 
    pFlash.ErrorCode |= HAL_FLASH_ERROR_NOTZERO;
 8001ea8:	2140      	movs	r1, #64	; 0x40
 8001eaa:	4c04      	ldr	r4, [pc, #16]	; (8001ebc <FLASH_SetErrorCode+0xa4>)
    flags |= FLASH_FLAG_NOTZEROERR;
 8001eac:	4303      	orrs	r3, r0
    pFlash.ErrorCode |= HAL_FLASH_ERROR_NOTZERO;
 8001eae:	6965      	ldr	r5, [r4, #20]
 8001eb0:	4329      	orrs	r1, r5
 8001eb2:	6161      	str	r1, [r4, #20]
  }

  /* Clear FLASH error pending bits */
  __HAL_FLASH_CLEAR_FLAG(flags);
 8001eb4:	6193      	str	r3, [r2, #24]
}  
 8001eb6:	bd30      	pop	{r4, r5, pc}
 8001eb8:	40022000 	.word	0x40022000
 8001ebc:	20000444 	.word	0x20000444

08001ec0 <HAL_FLASH_EndOfOperationCallback>:
 8001ec0:	4770      	bx	lr

08001ec2 <HAL_FLASH_OperationErrorCallback>:
}
 8001ec2:	4770      	bx	lr

08001ec4 <HAL_FLASH_IRQHandler>:
{
 8001ec4:	b570      	push	{r4, r5, r6, lr}
  if( __HAL_FLASH_GET_FLAG(FLASH_FLAG_WRPERR)     || 
 8001ec6:	4d32      	ldr	r5, [pc, #200]	; (8001f90 <HAL_FLASH_IRQHandler+0xcc>)
 8001ec8:	4c32      	ldr	r4, [pc, #200]	; (8001f94 <HAL_FLASH_IRQHandler+0xd0>)
 8001eca:	69ab      	ldr	r3, [r5, #24]
 8001ecc:	05db      	lsls	r3, r3, #23
 8001ece:	d411      	bmi.n	8001ef4 <HAL_FLASH_IRQHandler+0x30>
      __HAL_FLASH_GET_FLAG(FLASH_FLAG_PGAERR)     || 
 8001ed0:	69ab      	ldr	r3, [r5, #24]
  if( __HAL_FLASH_GET_FLAG(FLASH_FLAG_WRPERR)     || 
 8001ed2:	059b      	lsls	r3, r3, #22
 8001ed4:	d40e      	bmi.n	8001ef4 <HAL_FLASH_IRQHandler+0x30>
      __HAL_FLASH_GET_FLAG(FLASH_FLAG_SIZERR)     || 
 8001ed6:	69ab      	ldr	r3, [r5, #24]
      __HAL_FLASH_GET_FLAG(FLASH_FLAG_PGAERR)     || 
 8001ed8:	055b      	lsls	r3, r3, #21
 8001eda:	d40b      	bmi.n	8001ef4 <HAL_FLASH_IRQHandler+0x30>
      __HAL_FLASH_GET_FLAG(FLASH_FLAG_OPTVERR)    || 
 8001edc:	69ab      	ldr	r3, [r5, #24]
      __HAL_FLASH_GET_FLAG(FLASH_FLAG_SIZERR)     || 
 8001ede:	051b      	lsls	r3, r3, #20
 8001ee0:	d408      	bmi.n	8001ef4 <HAL_FLASH_IRQHandler+0x30>
      __HAL_FLASH_GET_FLAG(FLASH_FLAG_RDERR)      || 
 8001ee2:	69ab      	ldr	r3, [r5, #24]
      __HAL_FLASH_GET_FLAG(FLASH_FLAG_OPTVERR)    || 
 8001ee4:	049b      	lsls	r3, r3, #18
 8001ee6:	d405      	bmi.n	8001ef4 <HAL_FLASH_IRQHandler+0x30>
      __HAL_FLASH_GET_FLAG(FLASH_FLAG_FWWERR)     || 
 8001ee8:	69ab      	ldr	r3, [r5, #24]
      __HAL_FLASH_GET_FLAG(FLASH_FLAG_RDERR)      || 
 8001eea:	039b      	lsls	r3, r3, #14
 8001eec:	d402      	bmi.n	8001ef4 <HAL_FLASH_IRQHandler+0x30>
      __HAL_FLASH_GET_FLAG(FLASH_FLAG_NOTZEROERR) )
 8001eee:	69ab      	ldr	r3, [r5, #24]
      __HAL_FLASH_GET_FLAG(FLASH_FLAG_FWWERR)     || 
 8001ef0:	03db      	lsls	r3, r3, #15
 8001ef2:	d50c      	bpl.n	8001f0e <HAL_FLASH_IRQHandler+0x4a>
    if(pFlash.ProcedureOnGoing == FLASH_PROC_PAGEERASE)
 8001ef4:	7823      	ldrb	r3, [r4, #0]
 8001ef6:	2b01      	cmp	r3, #1
 8001ef8:	d134      	bne.n	8001f64 <HAL_FLASH_IRQHandler+0xa0>
      pFlash.Page = 0xFFFFFFFFU;
 8001efa:	3b02      	subs	r3, #2
      addresstmp = pFlash.Page;
 8001efc:	68e6      	ldr	r6, [r4, #12]
      pFlash.Page = 0xFFFFFFFFU;
 8001efe:	60e3      	str	r3, [r4, #12]
    FLASH_SetErrorCode();
 8001f00:	f7ff ff8a 	bl	8001e18 <FLASH_SetErrorCode>
    HAL_FLASH_OperationErrorCallback(addresstmp);
 8001f04:	0030      	movs	r0, r6
 8001f06:	f7ff ffdc 	bl	8001ec2 <HAL_FLASH_OperationErrorCallback>
    pFlash.ProcedureOnGoing = FLASH_PROC_NONE;
 8001f0a:	2300      	movs	r3, #0
 8001f0c:	7023      	strb	r3, [r4, #0]
  if(__HAL_FLASH_GET_FLAG(FLASH_FLAG_EOP))
 8001f0e:	2302      	movs	r3, #2
 8001f10:	69aa      	ldr	r2, [r5, #24]
 8001f12:	421a      	tst	r2, r3
 8001f14:	d018      	beq.n	8001f48 <HAL_FLASH_IRQHandler+0x84>
    __HAL_FLASH_CLEAR_FLAG(FLASH_FLAG_EOP);
 8001f16:	61ab      	str	r3, [r5, #24]
    if(pFlash.ProcedureOnGoing != FLASH_PROC_NONE)
 8001f18:	7823      	ldrb	r3, [r4, #0]
 8001f1a:	2b00      	cmp	r3, #0
 8001f1c:	d014      	beq.n	8001f48 <HAL_FLASH_IRQHandler+0x84>
      if(pFlash.ProcedureOnGoing == FLASH_PROC_PAGEERASE)
 8001f1e:	7823      	ldrb	r3, [r4, #0]
 8001f20:	2b01      	cmp	r3, #1
 8001f22:	d128      	bne.n	8001f76 <HAL_FLASH_IRQHandler+0xb2>
        pFlash.NbPagesToErase--;
 8001f24:	6863      	ldr	r3, [r4, #4]
 8001f26:	3b01      	subs	r3, #1
 8001f28:	6063      	str	r3, [r4, #4]
        if(pFlash.NbPagesToErase != 0U)
 8001f2a:	6863      	ldr	r3, [r4, #4]
 8001f2c:	2b00      	cmp	r3, #0
 8001f2e:	d01b      	beq.n	8001f68 <HAL_FLASH_IRQHandler+0xa4>
          addresstmp = pFlash.Page;
 8001f30:	68e0      	ldr	r0, [r4, #12]
          HAL_FLASH_EndOfOperationCallback(addresstmp);
 8001f32:	f7ff ffc5 	bl	8001ec0 <HAL_FLASH_EndOfOperationCallback>
          addresstmp = pFlash.Page + FLASH_PAGE_SIZE;
 8001f36:	68e0      	ldr	r0, [r4, #12]
          CLEAR_BIT(FLASH->PECR, FLASH_PECR_ERASE);
 8001f38:	4a17      	ldr	r2, [pc, #92]	; (8001f98 <HAL_FLASH_IRQHandler+0xd4>)
          addresstmp = pFlash.Page + FLASH_PAGE_SIZE;
 8001f3a:	3080      	adds	r0, #128	; 0x80
          pFlash.Page = addresstmp;
 8001f3c:	60e0      	str	r0, [r4, #12]
          CLEAR_BIT(FLASH->PECR, FLASH_PECR_ERASE);
 8001f3e:	686b      	ldr	r3, [r5, #4]
 8001f40:	4013      	ands	r3, r2
 8001f42:	606b      	str	r3, [r5, #4]
          FLASH_PageErase(addresstmp);
 8001f44:	f000 f82e 	bl	8001fa4 <FLASH_PageErase>
  if(pFlash.ProcedureOnGoing == FLASH_PROC_NONE)
 8001f48:	7823      	ldrb	r3, [r4, #0]
 8001f4a:	b2db      	uxtb	r3, r3
 8001f4c:	2b00      	cmp	r3, #0
 8001f4e:	d108      	bne.n	8001f62 <HAL_FLASH_IRQHandler+0x9e>
    CLEAR_BIT(FLASH->PECR, (FLASH_PECR_ERASE | FLASH_PECR_PROG));
 8001f50:	686a      	ldr	r2, [r5, #4]
 8001f52:	4912      	ldr	r1, [pc, #72]	; (8001f9c <HAL_FLASH_IRQHandler+0xd8>)
 8001f54:	400a      	ands	r2, r1
 8001f56:	606a      	str	r2, [r5, #4]
    __HAL_FLASH_DISABLE_IT(FLASH_IT_EOP | FLASH_IT_ERR);
 8001f58:	686a      	ldr	r2, [r5, #4]
 8001f5a:	4911      	ldr	r1, [pc, #68]	; (8001fa0 <HAL_FLASH_IRQHandler+0xdc>)
 8001f5c:	400a      	ands	r2, r1
 8001f5e:	606a      	str	r2, [r5, #4]
    __HAL_UNLOCK(&pFlash);
 8001f60:	7423      	strb	r3, [r4, #16]
}
 8001f62:	bd70      	pop	{r4, r5, r6, pc}
      addresstmp = pFlash.Address;
 8001f64:	68a6      	ldr	r6, [r4, #8]
 8001f66:	e7cb      	b.n	8001f00 <HAL_FLASH_IRQHandler+0x3c>
          pFlash.Page = addresstmp = 0xFFFFFFFFU;
 8001f68:	2001      	movs	r0, #1
 8001f6a:	4240      	negs	r0, r0
 8001f6c:	60e0      	str	r0, [r4, #12]
          pFlash.ProcedureOnGoing = FLASH_PROC_NONE;
 8001f6e:	7023      	strb	r3, [r4, #0]
          HAL_FLASH_EndOfOperationCallback(addresstmp);
 8001f70:	f7ff ffa6 	bl	8001ec0 <HAL_FLASH_EndOfOperationCallback>
 8001f74:	e7e8      	b.n	8001f48 <HAL_FLASH_IRQHandler+0x84>
          CLEAR_BIT(FLASH->PECR, FLASH_PECR_PROG);
 8001f76:	2208      	movs	r2, #8
 8001f78:	686b      	ldr	r3, [r5, #4]
 8001f7a:	4393      	bics	r3, r2
 8001f7c:	606b      	str	r3, [r5, #4]
          HAL_FLASH_EndOfOperationCallback(pFlash.Address);
 8001f7e:	68a0      	ldr	r0, [r4, #8]
 8001f80:	f7ff ff9e 	bl	8001ec0 <HAL_FLASH_EndOfOperationCallback>
          pFlash.Address = 0xFFFFFFFFU;
 8001f84:	2301      	movs	r3, #1
 8001f86:	425b      	negs	r3, r3
 8001f88:	60a3      	str	r3, [r4, #8]
          pFlash.ProcedureOnGoing = FLASH_PROC_NONE;
 8001f8a:	2300      	movs	r3, #0
 8001f8c:	7023      	strb	r3, [r4, #0]
 8001f8e:	e7db      	b.n	8001f48 <HAL_FLASH_IRQHandler+0x84>
 8001f90:	40022000 	.word	0x40022000
 8001f94:	20000444 	.word	0x20000444
 8001f98:	fffffdff 	.word	0xfffffdff
 8001f9c:	fffffdf7 	.word	0xfffffdf7
 8001fa0:	fffcffff 	.word	0xfffcffff

08001fa4 <FLASH_PageErase>:
  * @retval None
  */
void FLASH_PageErase(uint32_t PageAddress)
{
  /* Clean the error context */
  pFlash.ErrorCode = HAL_FLASH_ERROR_NONE;
 8001fa4:	2100      	movs	r1, #0

  /* Set the ERASE bit */
  SET_BIT(FLASH->PECR, FLASH_PECR_ERASE);
 8001fa6:	2280      	movs	r2, #128	; 0x80
  pFlash.ErrorCode = HAL_FLASH_ERROR_NONE;
 8001fa8:	4b07      	ldr	r3, [pc, #28]	; (8001fc8 <FLASH_PageErase+0x24>)
{
 8001faa:	b510      	push	{r4, lr}
  pFlash.ErrorCode = HAL_FLASH_ERROR_NONE;
 8001fac:	6159      	str	r1, [r3, #20]
  SET_BIT(FLASH->PECR, FLASH_PECR_ERASE);
 8001fae:	4b07      	ldr	r3, [pc, #28]	; (8001fcc <FLASH_PageErase+0x28>)
 8001fb0:	0092      	lsls	r2, r2, #2
 8001fb2:	685c      	ldr	r4, [r3, #4]
 8001fb4:	4322      	orrs	r2, r4
 8001fb6:	605a      	str	r2, [r3, #4]

  /* Set PROG bit */
  SET_BIT(FLASH->PECR, FLASH_PECR_PROG);
 8001fb8:	2208      	movs	r2, #8
 8001fba:	685c      	ldr	r4, [r3, #4]
 8001fbc:	4322      	orrs	r2, r4
 8001fbe:	605a      	str	r2, [r3, #4]

  /* Write 00000000h to the first word of the program page to erase */
  *(__IO uint32_t *)(uint32_t)(PageAddress & ~(FLASH_PAGE_SIZE - 1)) = 0x00000000;
 8001fc0:	237f      	movs	r3, #127	; 0x7f
 8001fc2:	4398      	bics	r0, r3
 8001fc4:	6001      	str	r1, [r0, #0]
}
 8001fc6:	bd10      	pop	{r4, pc}
 8001fc8:	20000444 	.word	0x20000444
 8001fcc:	40022000 	.word	0x40022000

08001fd0 <HAL_GPIO_Init>:
  * @param  GPIO_Init pointer to a GPIO_InitTypeDef structure that contains
  *                    the configuration information for the specified GPIO peripheral.
  * @retval None
  */
void HAL_GPIO_Init(GPIO_TypeDef  *GPIOx, GPIO_InitTypeDef *GPIO_Init)
{
 8001fd0:	b5f0      	push	{r4, r5, r6, r7, lr}
        /* Enable SYSCFG Clock */
        __HAL_RCC_SYSCFG_CLK_ENABLE();
        
        temp = SYSCFG->EXTICR[position >> 2U];
        CLEAR_BIT(temp, ((uint32_t)0x0FU) << (4U * (position & 0x03U)));
        SET_BIT(temp, (GPIO_GET_INDEX(GPIOx)) << (4 * (position & 0x03U)));
 8001fd2:	4a53      	ldr	r2, [pc, #332]	; (8002120 <HAL_GPIO_Init+0x150>)
  while (((GPIO_Init->Pin) >> position) != 0)
 8001fd4:	680b      	ldr	r3, [r1, #0]
        SET_BIT(temp, (GPIO_GET_INDEX(GPIOx)) << (4 * (position & 0x03U)));
 8001fd6:	1882      	adds	r2, r0, r2
 8001fd8:	1e54      	subs	r4, r2, #1
 8001fda:	41a2      	sbcs	r2, r4
{
 8001fdc:	b085      	sub	sp, #20
  while (((GPIO_Init->Pin) >> position) != 0)
 8001fde:	9301      	str	r3, [sp, #4]
  uint32_t position = 0x00U;
 8001fe0:	2300      	movs	r3, #0
        SET_BIT(temp, (GPIO_GET_INDEX(GPIOx)) << (4 * (position & 0x03U)));
 8001fe2:	3205      	adds	r2, #5
 8001fe4:	9203      	str	r2, [sp, #12]
  while (((GPIO_Init->Pin) >> position) != 0)
 8001fe6:	9a01      	ldr	r2, [sp, #4]
 8001fe8:	40da      	lsrs	r2, r3
 8001fea:	d101      	bne.n	8001ff0 <HAL_GPIO_Init+0x20>
        EXTI->FTSR = temp;
      }
    }
    position++;
  }
}
 8001fec:	b005      	add	sp, #20
 8001fee:	bdf0      	pop	{r4, r5, r6, r7, pc}
    iocurrent = (GPIO_Init->Pin) & (1U << position);
 8001ff0:	2501      	movs	r5, #1
 8001ff2:	409d      	lsls	r5, r3
 8001ff4:	9a01      	ldr	r2, [sp, #4]
 8001ff6:	402a      	ands	r2, r5
 8001ff8:	9200      	str	r2, [sp, #0]
    if(iocurrent)
 8001ffa:	d100      	bne.n	8001ffe <HAL_GPIO_Init+0x2e>
 8001ffc:	e08d      	b.n	800211a <HAL_GPIO_Init+0x14a>
      if((GPIO_Init->Mode == GPIO_MODE_AF_PP) || (GPIO_Init->Mode == GPIO_MODE_AF_OD)) 
 8001ffe:	684a      	ldr	r2, [r1, #4]
 8002000:	4694      	mov	ip, r2
 8002002:	2210      	movs	r2, #16
 8002004:	4664      	mov	r4, ip
 8002006:	4394      	bics	r4, r2
 8002008:	0022      	movs	r2, r4
 800200a:	3c01      	subs	r4, #1
 800200c:	2a02      	cmp	r2, #2
 800200e:	d11f      	bne.n	8002050 <HAL_GPIO_Init+0x80>
        temp &= ~((uint32_t)0xFU << ((uint32_t)(position & (uint32_t)0x07U) * 4U)) ;
 8002010:	2407      	movs	r4, #7
 8002012:	270f      	movs	r7, #15
 8002014:	401c      	ands	r4, r3
 8002016:	00a4      	lsls	r4, r4, #2
 8002018:	40a7      	lsls	r7, r4
        temp = GPIOx->AFR[position >> 3U];
 800201a:	08da      	lsrs	r2, r3, #3
 800201c:	0092      	lsls	r2, r2, #2
 800201e:	1882      	adds	r2, r0, r2
 8002020:	6a16      	ldr	r6, [r2, #32]
        temp &= ~((uint32_t)0xFU << ((uint32_t)(position & (uint32_t)0x07U) * 4U)) ;
 8002022:	43be      	bics	r6, r7
        temp |= ((uint32_t)(GPIO_Init->Alternate) << (((uint32_t)position & (uint32_t)0x07U) * 4U)) ;
 8002024:	690f      	ldr	r7, [r1, #16]
 8002026:	40a7      	lsls	r7, r4
 8002028:	433e      	orrs	r6, r7
        GPIOx->AFR[position >> 3U] = temp;
 800202a:	6216      	str	r6, [r2, #32]
        temp &= ~(GPIO_OSPEEDER_OSPEED0 << (position * 2U));
 800202c:	2403      	movs	r4, #3
 800202e:	005e      	lsls	r6, r3, #1
 8002030:	40b4      	lsls	r4, r6
        temp = GPIOx->OSPEEDR;
 8002032:	6882      	ldr	r2, [r0, #8]
        temp &= ~(GPIO_OSPEEDER_OSPEED0 << (position * 2U));
 8002034:	43a2      	bics	r2, r4
        temp |= (GPIO_Init->Speed << (position * 2U));
 8002036:	68cc      	ldr	r4, [r1, #12]
 8002038:	40b4      	lsls	r4, r6
 800203a:	4322      	orrs	r2, r4
        GPIOx->OSPEEDR = temp;
 800203c:	6082      	str	r2, [r0, #8]
        temp |= (((GPIO_Init->Mode & GPIO_OUTPUT_TYPE) >> 4U) << position);
 800203e:	4662      	mov	r2, ip
 8002040:	06d2      	lsls	r2, r2, #27
 8002042:	0fd2      	lsrs	r2, r2, #31
 8002044:	409a      	lsls	r2, r3
        temp= GPIOx->OTYPER;
 8002046:	6844      	ldr	r4, [r0, #4]
        temp &= ~(GPIO_OTYPER_OT_0 << position) ;
 8002048:	43ac      	bics	r4, r5
        temp |= (((GPIO_Init->Mode & GPIO_OUTPUT_TYPE) >> 4U) << position);
 800204a:	4322      	orrs	r2, r4
        GPIOx->OTYPER = temp;
 800204c:	6042      	str	r2, [r0, #4]
 800204e:	e001      	b.n	8002054 <HAL_GPIO_Init+0x84>
      if((GPIO_Init->Mode == GPIO_MODE_OUTPUT_PP) || (GPIO_Init->Mode == GPIO_MODE_AF_PP) ||
 8002050:	2c01      	cmp	r4, #1
 8002052:	d9eb      	bls.n	800202c <HAL_GPIO_Init+0x5c>
      temp &= ~(GPIO_MODER_MODE0 << (position * 2U));
 8002054:	2603      	movs	r6, #3
 8002056:	0034      	movs	r4, r6
 8002058:	005d      	lsls	r5, r3, #1
 800205a:	40ac      	lsls	r4, r5
      temp |= ((GPIO_Init->Mode & GPIO_MODE) << (position * 2U));
 800205c:	4662      	mov	r2, ip
      temp &= ~(GPIO_MODER_MODE0 << (position * 2U));
 800205e:	43e4      	mvns	r4, r4
      temp |= ((GPIO_Init->Mode & GPIO_MODE) << (position * 2U));
 8002060:	4032      	ands	r2, r6
 8002062:	40aa      	lsls	r2, r5
      temp = GPIOx->MODER;
 8002064:	6807      	ldr	r7, [r0, #0]
      temp &= ~(GPIO_MODER_MODE0 << (position * 2U));
 8002066:	4027      	ands	r7, r4
      temp |= ((GPIO_Init->Mode & GPIO_MODE) << (position * 2U));
 8002068:	433a      	orrs	r2, r7
      GPIOx->MODER = temp;
 800206a:	6002      	str	r2, [r0, #0]
      temp = GPIOx->PUPDR;
 800206c:	68c2      	ldr	r2, [r0, #12]
      temp &= ~(GPIO_PUPDR_PUPD0 << (position * 2U));
 800206e:	4014      	ands	r4, r2
      temp |= ((GPIO_Init->Pull) << (position * 2U)); 
 8002070:	688a      	ldr	r2, [r1, #8]
 8002072:	40aa      	lsls	r2, r5
 8002074:	4314      	orrs	r4, r2
      if((GPIO_Init->Mode & EXTI_MODE) == EXTI_MODE) 
 8002076:	4662      	mov	r2, ip
      GPIOx->PUPDR = temp;
 8002078:	60c4      	str	r4, [r0, #12]
      if((GPIO_Init->Mode & EXTI_MODE) == EXTI_MODE) 
 800207a:	00d2      	lsls	r2, r2, #3
 800207c:	d54d      	bpl.n	800211a <HAL_GPIO_Init+0x14a>
        __HAL_RCC_SYSCFG_CLK_ENABLE();
 800207e:	2501      	movs	r5, #1
 8002080:	4c28      	ldr	r4, [pc, #160]	; (8002124 <HAL_GPIO_Init+0x154>)
        CLEAR_BIT(temp, ((uint32_t)0x0FU) << (4U * (position & 0x03U)));
 8002082:	270f      	movs	r7, #15
        __HAL_RCC_SYSCFG_CLK_ENABLE();
 8002084:	6b62      	ldr	r2, [r4, #52]	; 0x34
 8002086:	432a      	orrs	r2, r5
        CLEAR_BIT(temp, ((uint32_t)0x0FU) << (4U * (position & 0x03U)));
 8002088:	001d      	movs	r5, r3
 800208a:	4035      	ands	r5, r6
 800208c:	00ad      	lsls	r5, r5, #2
 800208e:	40af      	lsls	r7, r5
        __HAL_RCC_SYSCFG_CLK_ENABLE();
 8002090:	6362      	str	r2, [r4, #52]	; 0x34
 8002092:	4a25      	ldr	r2, [pc, #148]	; (8002128 <HAL_GPIO_Init+0x158>)
        temp = SYSCFG->EXTICR[position >> 2U];
 8002094:	089c      	lsrs	r4, r3, #2
 8002096:	00a4      	lsls	r4, r4, #2
 8002098:	18a4      	adds	r4, r4, r2
 800209a:	68a2      	ldr	r2, [r4, #8]
        CLEAR_BIT(temp, ((uint32_t)0x0FU) << (4U * (position & 0x03U)));
 800209c:	43ba      	bics	r2, r7
        SET_BIT(temp, (GPIO_GET_INDEX(GPIOx)) << (4 * (position & 0x03U)));
 800209e:	27a0      	movs	r7, #160	; 0xa0
        CLEAR_BIT(temp, ((uint32_t)0x0FU) << (4U * (position & 0x03U)));
 80020a0:	9202      	str	r2, [sp, #8]
        SET_BIT(temp, (GPIO_GET_INDEX(GPIOx)) << (4 * (position & 0x03U)));
 80020a2:	05ff      	lsls	r7, r7, #23
 80020a4:	2200      	movs	r2, #0
 80020a6:	42b8      	cmp	r0, r7
 80020a8:	d00c      	beq.n	80020c4 <HAL_GPIO_Init+0xf4>
 80020aa:	4f20      	ldr	r7, [pc, #128]	; (800212c <HAL_GPIO_Init+0x15c>)
 80020ac:	3201      	adds	r2, #1
 80020ae:	42b8      	cmp	r0, r7
 80020b0:	d008      	beq.n	80020c4 <HAL_GPIO_Init+0xf4>
 80020b2:	4f1f      	ldr	r7, [pc, #124]	; (8002130 <HAL_GPIO_Init+0x160>)
 80020b4:	3201      	adds	r2, #1
 80020b6:	42b8      	cmp	r0, r7
 80020b8:	d004      	beq.n	80020c4 <HAL_GPIO_Init+0xf4>
 80020ba:	4f1e      	ldr	r7, [pc, #120]	; (8002134 <HAL_GPIO_Init+0x164>)
 80020bc:	0032      	movs	r2, r6
 80020be:	42b8      	cmp	r0, r7
 80020c0:	d000      	beq.n	80020c4 <HAL_GPIO_Init+0xf4>
 80020c2:	9a03      	ldr	r2, [sp, #12]
 80020c4:	40aa      	lsls	r2, r5
        if((GPIO_Init->Mode & GPIO_MODE_IT) == GPIO_MODE_IT)
 80020c6:	4667      	mov	r7, ip
        SET_BIT(temp, (GPIO_GET_INDEX(GPIOx)) << (4 * (position & 0x03U)));
 80020c8:	9d02      	ldr	r5, [sp, #8]
 80020ca:	432a      	orrs	r2, r5
        SYSCFG->EXTICR[position >> 2U] = temp;
 80020cc:	60a2      	str	r2, [r4, #8]
        temp = EXTI->IMR;
 80020ce:	4a1a      	ldr	r2, [pc, #104]	; (8002138 <HAL_GPIO_Init+0x168>)
        temp &= ~((uint32_t)iocurrent);
 80020d0:	9c00      	ldr	r4, [sp, #0]
        temp = EXTI->IMR;
 80020d2:	6816      	ldr	r6, [r2, #0]
          temp |= iocurrent;
 80020d4:	9d00      	ldr	r5, [sp, #0]
        temp &= ~((uint32_t)iocurrent);
 80020d6:	43e4      	mvns	r4, r4
          temp |= iocurrent;
 80020d8:	4335      	orrs	r5, r6
        if((GPIO_Init->Mode & GPIO_MODE_IT) == GPIO_MODE_IT)
 80020da:	03ff      	lsls	r7, r7, #15
 80020dc:	d401      	bmi.n	80020e2 <HAL_GPIO_Init+0x112>
        temp &= ~((uint32_t)iocurrent);
 80020de:	0035      	movs	r5, r6
 80020e0:	4025      	ands	r5, r4
        if((GPIO_Init->Mode & GPIO_MODE_EVT) == GPIO_MODE_EVT)
 80020e2:	4667      	mov	r7, ip
        EXTI->IMR = temp;
 80020e4:	6015      	str	r5, [r2, #0]
        temp = EXTI->EMR;
 80020e6:	6856      	ldr	r6, [r2, #4]
          temp |= iocurrent;
 80020e8:	9d00      	ldr	r5, [sp, #0]
 80020ea:	4335      	orrs	r5, r6
        if((GPIO_Init->Mode & GPIO_MODE_EVT) == GPIO_MODE_EVT)
 80020ec:	03bf      	lsls	r7, r7, #14
 80020ee:	d401      	bmi.n	80020f4 <HAL_GPIO_Init+0x124>
        temp &= ~((uint32_t)iocurrent);
 80020f0:	0035      	movs	r5, r6
 80020f2:	4025      	ands	r5, r4
        if((GPIO_Init->Mode & RISING_EDGE) == RISING_EDGE)
 80020f4:	4667      	mov	r7, ip
        EXTI->EMR = temp;
 80020f6:	6055      	str	r5, [r2, #4]
        temp = EXTI->RTSR;
 80020f8:	6896      	ldr	r6, [r2, #8]
          temp |= iocurrent;
 80020fa:	9d00      	ldr	r5, [sp, #0]
 80020fc:	4335      	orrs	r5, r6
        if((GPIO_Init->Mode & RISING_EDGE) == RISING_EDGE)
 80020fe:	02ff      	lsls	r7, r7, #11
 8002100:	d401      	bmi.n	8002106 <HAL_GPIO_Init+0x136>
        temp &= ~((uint32_t)iocurrent);
 8002102:	0035      	movs	r5, r6
 8002104:	4025      	ands	r5, r4
        if((GPIO_Init->Mode & FALLING_EDGE) == FALLING_EDGE)
 8002106:	4667      	mov	r7, ip
        EXTI->RTSR = temp;
 8002108:	6095      	str	r5, [r2, #8]
        temp = EXTI->FTSR;
 800210a:	68d5      	ldr	r5, [r2, #12]
          temp |= iocurrent;
 800210c:	9e00      	ldr	r6, [sp, #0]
 800210e:	432e      	orrs	r6, r5
        if((GPIO_Init->Mode & FALLING_EDGE) == FALLING_EDGE)
 8002110:	02bf      	lsls	r7, r7, #10
 8002112:	d401      	bmi.n	8002118 <HAL_GPIO_Init+0x148>
        temp &= ~((uint32_t)iocurrent);
 8002114:	4025      	ands	r5, r4
 8002116:	002e      	movs	r6, r5
        EXTI->FTSR = temp;
 8002118:	60d6      	str	r6, [r2, #12]
    position++;
 800211a:	3301      	adds	r3, #1
 800211c:	e763      	b.n	8001fe6 <HAL_GPIO_Init+0x16>
 800211e:	46c0      	nop			; (mov r8, r8)
 8002120:	afffe400 	.word	0xafffe400
 8002124:	40021000 	.word	0x40021000
 8002128:	40010000 	.word	0x40010000
 800212c:	50000400 	.word	0x50000400
 8002130:	50000800 	.word	0x50000800
 8002134:	50000c00 	.word	0x50000c00
 8002138:	40010400 	.word	0x40010400

0800213c <HAL_GPIO_ReadPin>:
  GPIO_PinState bitstatus;
  
  /* Check the parameters */
  assert_param(IS_GPIO_PIN_AVAILABLE(GPIOx,GPIO_Pin));
  
  if((GPIOx->IDR & GPIO_Pin) != (uint32_t)GPIO_PIN_RESET)
 800213c:	6900      	ldr	r0, [r0, #16]
 800213e:	4008      	ands	r0, r1
 8002140:	1e41      	subs	r1, r0, #1
 8002142:	4188      	sbcs	r0, r1
  }
  else
  {
    bitstatus = GPIO_PIN_RESET;
  }
  return bitstatus;
 8002144:	b2c0      	uxtb	r0, r0
}
 8002146:	4770      	bx	lr

08002148 <HAL_GPIO_WritePin>:
{
  /* Check the parameters */
  assert_param(IS_GPIO_PIN_AVAILABLE(GPIOx,GPIO_Pin));
  assert_param(IS_GPIO_PIN_ACTION(PinState));
  
  if(PinState != GPIO_PIN_RESET)
 8002148:	2a00      	cmp	r2, #0
 800214a:	d001      	beq.n	8002150 <HAL_GPIO_WritePin+0x8>
  {
    GPIOx->BSRR = GPIO_Pin;
 800214c:	6181      	str	r1, [r0, #24]
  }
  else
  {
    GPIOx->BRR = GPIO_Pin ;
  }
}
 800214e:	4770      	bx	lr
    GPIOx->BRR = GPIO_Pin ;
 8002150:	6281      	str	r1, [r0, #40]	; 0x28
}
 8002152:	e7fc      	b.n	800214e <HAL_GPIO_WritePin+0x6>

08002154 <HAL_GPIO_TogglePin>:
void HAL_GPIO_TogglePin(GPIO_TypeDef* GPIOx, uint16_t GPIO_Pin)
{
  /* Check the parameters */
  assert_param(IS_GPIO_PIN_AVAILABLE(GPIOx,GPIO_Pin));

  GPIOx->ODR ^= GPIO_Pin;
 8002154:	6943      	ldr	r3, [r0, #20]
 8002156:	4059      	eors	r1, r3
 8002158:	6141      	str	r1, [r0, #20]
}
 800215a:	4770      	bx	lr

0800215c <I2C_Flush_TXDR>:
  */
static void I2C_Flush_TXDR(I2C_HandleTypeDef *hi2c)
{
  /* If a pending TXIS flag is set */
  /* Write a dummy data in TXDR to clear it */
  if (__HAL_I2C_GET_FLAG(hi2c, I2C_FLAG_TXIS) != RESET)
 800215c:	6803      	ldr	r3, [r0, #0]
 800215e:	699a      	ldr	r2, [r3, #24]
 8002160:	0792      	lsls	r2, r2, #30
 8002162:	d501      	bpl.n	8002168 <I2C_Flush_TXDR+0xc>
  {
    hi2c->Instance->TXDR = 0x00U;
 8002164:	2200      	movs	r2, #0
 8002166:	629a      	str	r2, [r3, #40]	; 0x28
  }

  /* Flush TX register if not empty */
  if (__HAL_I2C_GET_FLAG(hi2c, I2C_FLAG_TXE) == RESET)
 8002168:	2201      	movs	r2, #1
 800216a:	6999      	ldr	r1, [r3, #24]
 800216c:	4211      	tst	r1, r2
 800216e:	d102      	bne.n	8002176 <I2C_Flush_TXDR+0x1a>
  {
    __HAL_I2C_CLEAR_FLAG(hi2c, I2C_FLAG_TXE);
 8002170:	6999      	ldr	r1, [r3, #24]
 8002172:	430a      	orrs	r2, r1
 8002174:	619a      	str	r2, [r3, #24]
  }
}
 8002176:	4770      	bx	lr

08002178 <I2C_TransferConfig>:
  *     @arg @ref I2C_GENERATE_START_READ Generate Restart for read request.
  *     @arg @ref I2C_GENERATE_START_WRITE Generate Restart for write request.
  * @retval None
  */
static void I2C_TransferConfig(I2C_HandleTypeDef *hi2c, uint16_t DevAddress, uint8_t Size, uint32_t Mode, uint32_t Request)
{
 8002178:	b570      	push	{r4, r5, r6, lr}
 800217a:	9e04      	ldr	r6, [sp, #16]
  assert_param(IS_I2C_ALL_INSTANCE(hi2c->Instance));
  assert_param(IS_TRANSFER_MODE(Mode));
  assert_param(IS_TRANSFER_REQUEST(Request));

  /* update CR2 register */
  MODIFY_REG(hi2c->Instance->CR2, ((I2C_CR2_SADD | I2C_CR2_NBYTES | I2C_CR2_RELOAD | I2C_CR2_AUTOEND | (I2C_CR2_RD_WRN & (uint32_t)(Request >> (31U - I2C_CR2_RD_WRN_Pos))) | I2C_CR2_START | I2C_CR2_STOP)), \
 800217c:	0589      	lsls	r1, r1, #22
 800217e:	4333      	orrs	r3, r6
 8002180:	0d89      	lsrs	r1, r1, #22
 8002182:	4319      	orrs	r1, r3
 8002184:	2380      	movs	r3, #128	; 0x80
 8002186:	6804      	ldr	r4, [r0, #0]
 8002188:	00db      	lsls	r3, r3, #3
 800218a:	0d70      	lsrs	r0, r6, #21
 800218c:	4018      	ands	r0, r3
 800218e:	4b04      	ldr	r3, [pc, #16]	; (80021a0 <I2C_TransferConfig+0x28>)
 8002190:	6865      	ldr	r5, [r4, #4]
 8002192:	0412      	lsls	r2, r2, #16
 8002194:	4318      	orrs	r0, r3
 8002196:	4385      	bics	r5, r0
 8002198:	4311      	orrs	r1, r2
 800219a:	4329      	orrs	r1, r5
 800219c:	6061      	str	r1, [r4, #4]
             (uint32_t)(((uint32_t)DevAddress & I2C_CR2_SADD) | (((uint32_t)Size << I2C_CR2_NBYTES_Pos) & I2C_CR2_NBYTES) | (uint32_t)Mode | (uint32_t)Request));
}
 800219e:	bd70      	pop	{r4, r5, r6, pc}
 80021a0:	03ff63ff 	.word	0x03ff63ff

080021a4 <I2C_Disable_IRQ>:
  *                the configuration information for the specified I2C.
  * @param  InterruptRequest Value of @ref I2C_Interrupt_configuration_definition.
  * @retval None
  */
static void I2C_Disable_IRQ(I2C_HandleTypeDef *hi2c, uint16_t InterruptRequest)
{
 80021a4:	b510      	push	{r4, lr}
  uint32_t tmpisr = 0U;
 80021a6:	2300      	movs	r3, #0

  if ((InterruptRequest & I2C_XFER_TX_IT) == I2C_XFER_TX_IT)
 80021a8:	07ca      	lsls	r2, r1, #31
 80021aa:	d508      	bpl.n	80021be <I2C_Disable_IRQ+0x1a>
  {
    /* Disable TC and TXI interrupts */
    tmpisr |= I2C_IT_TCI | I2C_IT_TXI;

    if (((uint32_t)hi2c->State & (uint32_t)HAL_I2C_STATE_LISTEN) != (uint32_t)HAL_I2C_STATE_LISTEN)
 80021ac:	0003      	movs	r3, r0
 80021ae:	3341      	adds	r3, #65	; 0x41
 80021b0:	781a      	ldrb	r2, [r3, #0]
 80021b2:	2328      	movs	r3, #40	; 0x28
 80021b4:	401a      	ands	r2, r3
    tmpisr |= I2C_IT_TCI | I2C_IT_TXI;
 80021b6:	331a      	adds	r3, #26
    if (((uint32_t)hi2c->State & (uint32_t)HAL_I2C_STATE_LISTEN) != (uint32_t)HAL_I2C_STATE_LISTEN)
 80021b8:	2a28      	cmp	r2, #40	; 0x28
 80021ba:	d000      	beq.n	80021be <I2C_Disable_IRQ+0x1a>
    {
      /* Disable NACK and STOP interrupts */
      tmpisr |= I2C_IT_STOPI | I2C_IT_NACKI | I2C_IT_ERRI;
 80021bc:	33b0      	adds	r3, #176	; 0xb0
    }
  }

  if ((InterruptRequest & I2C_XFER_RX_IT) == I2C_XFER_RX_IT)
 80021be:	078a      	lsls	r2, r1, #30
 80021c0:	d508      	bpl.n	80021d4 <I2C_Disable_IRQ+0x30>
  {
    /* Disable TC and RXI interrupts */
    tmpisr |= I2C_IT_TCI | I2C_IT_RXI;

    if (((uint32_t)hi2c->State & (uint32_t)HAL_I2C_STATE_LISTEN) != (uint32_t)HAL_I2C_STATE_LISTEN)
 80021c2:	0002      	movs	r2, r0
 80021c4:	2428      	movs	r4, #40	; 0x28
 80021c6:	3241      	adds	r2, #65	; 0x41
 80021c8:	7812      	ldrb	r2, [r2, #0]
 80021ca:	4022      	ands	r2, r4
 80021cc:	42a2      	cmp	r2, r4
 80021ce:	d116      	bne.n	80021fe <I2C_Disable_IRQ+0x5a>
    tmpisr |= I2C_IT_TCI | I2C_IT_RXI;
 80021d0:	2244      	movs	r2, #68	; 0x44
    {
      /* Disable NACK and STOP interrupts */
      tmpisr |= I2C_IT_STOPI | I2C_IT_NACKI | I2C_IT_ERRI;
 80021d2:	4313      	orrs	r3, r2
    }
  }

  if ((InterruptRequest & I2C_XFER_LISTEN_IT) == I2C_XFER_LISTEN_IT)
 80021d4:	074a      	lsls	r2, r1, #29
 80021d6:	d501      	bpl.n	80021dc <I2C_Disable_IRQ+0x38>
  {
    /* Disable ADDR, NACK and STOP interrupts */
    tmpisr |= I2C_IT_ADDRI | I2C_IT_STOPI | I2C_IT_NACKI | I2C_IT_ERRI;
 80021d8:	22b8      	movs	r2, #184	; 0xb8
 80021da:	4313      	orrs	r3, r2
  }

  if ((InterruptRequest & I2C_XFER_ERROR_IT) == I2C_XFER_ERROR_IT)
 80021dc:	2211      	movs	r2, #17
 80021de:	400a      	ands	r2, r1
 80021e0:	2a11      	cmp	r2, #17
 80021e2:	d101      	bne.n	80021e8 <I2C_Disable_IRQ+0x44>
  {
    /* Enable ERR and NACK interrupts */
    tmpisr |= I2C_IT_ERRI | I2C_IT_NACKI;
 80021e4:	327f      	adds	r2, #127	; 0x7f
 80021e6:	4313      	orrs	r3, r2
  }

  if ((InterruptRequest & I2C_XFER_CPLT_IT) == I2C_XFER_CPLT_IT)
 80021e8:	2212      	movs	r2, #18
 80021ea:	4011      	ands	r1, r2
 80021ec:	4291      	cmp	r1, r2
 80021ee:	d101      	bne.n	80021f4 <I2C_Disable_IRQ+0x50>
  }

  if ((InterruptRequest & I2C_XFER_RELOAD_IT) == I2C_XFER_RELOAD_IT)
  {
    /* Enable TC interrupts */
    tmpisr |= I2C_IT_TCI;
 80021f0:	324e      	adds	r2, #78	; 0x4e
 80021f2:	4313      	orrs	r3, r2
  }

  /* Disable interrupts only at the end */
  /* to avoid a breaking situation like at "t" time */
  /* all disable interrupts request are not done */
  __HAL_I2C_DISABLE_IT(hi2c, tmpisr);
 80021f4:	6801      	ldr	r1, [r0, #0]
 80021f6:	680a      	ldr	r2, [r1, #0]
 80021f8:	439a      	bics	r2, r3
 80021fa:	600a      	str	r2, [r1, #0]
}
 80021fc:	bd10      	pop	{r4, pc}
      tmpisr |= I2C_IT_STOPI | I2C_IT_NACKI | I2C_IT_ERRI;
 80021fe:	22f4      	movs	r2, #244	; 0xf4
 8002200:	e7e7      	b.n	80021d2 <I2C_Disable_IRQ+0x2e>

08002202 <I2C_WaitOnFlagUntilTimeout>:
{
 8002202:	b5f8      	push	{r3, r4, r5, r6, r7, lr}
 8002204:	0004      	movs	r4, r0
 8002206:	000e      	movs	r6, r1
 8002208:	0017      	movs	r7, r2
 800220a:	001d      	movs	r5, r3
  while (__HAL_I2C_GET_FLAG(hi2c, Flag) == Status)
 800220c:	6822      	ldr	r2, [r4, #0]
 800220e:	6993      	ldr	r3, [r2, #24]
 8002210:	4033      	ands	r3, r6
 8002212:	1b9b      	subs	r3, r3, r6
 8002214:	4259      	negs	r1, r3
 8002216:	414b      	adcs	r3, r1
 8002218:	42bb      	cmp	r3, r7
 800221a:	d001      	beq.n	8002220 <I2C_WaitOnFlagUntilTimeout+0x1e>
  return HAL_OK;
 800221c:	2000      	movs	r0, #0
 800221e:	e017      	b.n	8002250 <I2C_WaitOnFlagUntilTimeout+0x4e>
    if (Timeout != HAL_MAX_DELAY)
 8002220:	1c6b      	adds	r3, r5, #1
 8002222:	d0f4      	beq.n	800220e <I2C_WaitOnFlagUntilTimeout+0xc>
      if (((HAL_GetTick() - Tickstart) > Timeout) || (Timeout == 0U))
 8002224:	f7ff fd68 	bl	8001cf8 <HAL_GetTick>
 8002228:	9b06      	ldr	r3, [sp, #24]
 800222a:	1ac0      	subs	r0, r0, r3
 800222c:	4285      	cmp	r5, r0
 800222e:	d301      	bcc.n	8002234 <I2C_WaitOnFlagUntilTimeout+0x32>
 8002230:	2d00      	cmp	r5, #0
 8002232:	d1eb      	bne.n	800220c <I2C_WaitOnFlagUntilTimeout+0xa>
      hi2c->ErrorCode |= HAL_I2C_ERROR_TIMEOUT;
 8002234:	2220      	movs	r2, #32
 8002236:	6c63      	ldr	r3, [r4, #68]	; 0x44
      __HAL_UNLOCK(hi2c);
 8002238:	2001      	movs	r0, #1
      hi2c->ErrorCode |= HAL_I2C_ERROR_TIMEOUT;
 800223a:	4313      	orrs	r3, r2
 800223c:	6463      	str	r3, [r4, #68]	; 0x44
      hi2c->State = HAL_I2C_STATE_READY;
 800223e:	0023      	movs	r3, r4
 8002240:	3341      	adds	r3, #65	; 0x41
 8002242:	701a      	strb	r2, [r3, #0]
      hi2c->Mode = HAL_I2C_MODE_NONE;
 8002244:	0022      	movs	r2, r4
 8002246:	2300      	movs	r3, #0
 8002248:	3242      	adds	r2, #66	; 0x42
      __HAL_UNLOCK(hi2c);
 800224a:	3440      	adds	r4, #64	; 0x40
      hi2c->Mode = HAL_I2C_MODE_NONE;
 800224c:	7013      	strb	r3, [r2, #0]
      __HAL_UNLOCK(hi2c);
 800224e:	7023      	strb	r3, [r4, #0]
}
 8002250:	bdf8      	pop	{r3, r4, r5, r6, r7, pc}
	...

08002254 <I2C_IsAcknowledgeFailed>:
{
 8002254:	b5f8      	push	{r3, r4, r5, r6, r7, lr}
  if (__HAL_I2C_GET_FLAG(hi2c, I2C_FLAG_AF) == SET)
 8002256:	6803      	ldr	r3, [r0, #0]
{
 8002258:	0004      	movs	r4, r0
  if (__HAL_I2C_GET_FLAG(hi2c, I2C_FLAG_AF) == SET)
 800225a:	6998      	ldr	r0, [r3, #24]
 800225c:	2310      	movs	r3, #16
{
 800225e:	000e      	movs	r6, r1
 8002260:	0017      	movs	r7, r2
  if (__HAL_I2C_GET_FLAG(hi2c, I2C_FLAG_AF) == SET)
 8002262:	4018      	ands	r0, r3
    while (__HAL_I2C_GET_FLAG(hi2c, I2C_FLAG_STOPF) == RESET)
 8002264:	2520      	movs	r5, #32
  if (__HAL_I2C_GET_FLAG(hi2c, I2C_FLAG_AF) == SET)
 8002266:	2800      	cmp	r0, #0
 8002268:	d118      	bne.n	800229c <I2C_IsAcknowledgeFailed+0x48>
}
 800226a:	bdf8      	pop	{r3, r4, r5, r6, r7, pc}
      if (Timeout != HAL_MAX_DELAY)
 800226c:	1c72      	adds	r2, r6, #1
 800226e:	d016      	beq.n	800229e <I2C_IsAcknowledgeFailed+0x4a>
        if (((HAL_GetTick() - Tickstart) > Timeout) || (Timeout == 0U))
 8002270:	f7ff fd42 	bl	8001cf8 <HAL_GetTick>
 8002274:	1bc0      	subs	r0, r0, r7
 8002276:	4286      	cmp	r6, r0
 8002278:	d301      	bcc.n	800227e <I2C_IsAcknowledgeFailed+0x2a>
 800227a:	2e00      	cmp	r6, #0
 800227c:	d10e      	bne.n	800229c <I2C_IsAcknowledgeFailed+0x48>
      hi2c->ErrorCode |= HAL_I2C_ERROR_TIMEOUT;
 800227e:	2220      	movs	r2, #32
 8002280:	6c63      	ldr	r3, [r4, #68]	; 0x44
 8002282:	4313      	orrs	r3, r2
 8002284:	6463      	str	r3, [r4, #68]	; 0x44
      hi2c->State = HAL_I2C_STATE_READY;
 8002286:	0023      	movs	r3, r4
 8002288:	3341      	adds	r3, #65	; 0x41
 800228a:	701a      	strb	r2, [r3, #0]
    hi2c->Mode = HAL_I2C_MODE_NONE;
 800228c:	0022      	movs	r2, r4
 800228e:	2300      	movs	r3, #0
 8002290:	3242      	adds	r2, #66	; 0x42
    __HAL_UNLOCK(hi2c);
 8002292:	3440      	adds	r4, #64	; 0x40
    hi2c->Mode = HAL_I2C_MODE_NONE;
 8002294:	7013      	strb	r3, [r2, #0]
    return HAL_ERROR;
 8002296:	2001      	movs	r0, #1
    __HAL_UNLOCK(hi2c);
 8002298:	7023      	strb	r3, [r4, #0]
    return HAL_ERROR;
 800229a:	e7e6      	b.n	800226a <I2C_IsAcknowledgeFailed+0x16>
    while (__HAL_I2C_GET_FLAG(hi2c, I2C_FLAG_STOPF) == RESET)
 800229c:	6823      	ldr	r3, [r4, #0]
 800229e:	699a      	ldr	r2, [r3, #24]
 80022a0:	422a      	tst	r2, r5
 80022a2:	d0e3      	beq.n	800226c <I2C_IsAcknowledgeFailed+0x18>
    __HAL_I2C_CLEAR_FLAG(hi2c, I2C_FLAG_AF);
 80022a4:	2210      	movs	r2, #16
    I2C_Flush_TXDR(hi2c);
 80022a6:	0020      	movs	r0, r4
    __HAL_I2C_CLEAR_FLAG(hi2c, I2C_FLAG_AF);
 80022a8:	61da      	str	r2, [r3, #28]
    __HAL_I2C_CLEAR_FLAG(hi2c, I2C_FLAG_STOPF);
 80022aa:	61dd      	str	r5, [r3, #28]
    I2C_Flush_TXDR(hi2c);
 80022ac:	f7ff ff56 	bl	800215c <I2C_Flush_TXDR>
    I2C_RESET_CR2(hi2c);
 80022b0:	6822      	ldr	r2, [r4, #0]
 80022b2:	4906      	ldr	r1, [pc, #24]	; (80022cc <I2C_IsAcknowledgeFailed+0x78>)
 80022b4:	6853      	ldr	r3, [r2, #4]
 80022b6:	400b      	ands	r3, r1
 80022b8:	6053      	str	r3, [r2, #4]
    hi2c->ErrorCode |= HAL_I2C_ERROR_AF;
 80022ba:	2304      	movs	r3, #4
 80022bc:	6c62      	ldr	r2, [r4, #68]	; 0x44
 80022be:	4313      	orrs	r3, r2
 80022c0:	6463      	str	r3, [r4, #68]	; 0x44
    hi2c->State = HAL_I2C_STATE_READY;
 80022c2:	0023      	movs	r3, r4
 80022c4:	3341      	adds	r3, #65	; 0x41
 80022c6:	701d      	strb	r5, [r3, #0]
 80022c8:	e7e0      	b.n	800228c <I2C_IsAcknowledgeFailed+0x38>
 80022ca:	46c0      	nop			; (mov r8, r8)
 80022cc:	fe00e800 	.word	0xfe00e800

080022d0 <I2C_WaitOnTXISFlagUntilTimeout>:
{
 80022d0:	b5f8      	push	{r3, r4, r5, r6, r7, lr}
 80022d2:	0004      	movs	r4, r0
 80022d4:	000d      	movs	r5, r1
 80022d6:	0016      	movs	r6, r2
  while (__HAL_I2C_GET_FLAG(hi2c, I2C_FLAG_TXIS) == RESET)
 80022d8:	2702      	movs	r7, #2
 80022da:	6823      	ldr	r3, [r4, #0]
 80022dc:	699b      	ldr	r3, [r3, #24]
 80022de:	423b      	tst	r3, r7
 80022e0:	d001      	beq.n	80022e6 <I2C_WaitOnTXISFlagUntilTimeout+0x16>
  return HAL_OK;
 80022e2:	2000      	movs	r0, #0
}
 80022e4:	bdf8      	pop	{r3, r4, r5, r6, r7, pc}
    if (I2C_IsAcknowledgeFailed(hi2c, Timeout, Tickstart) != HAL_OK)
 80022e6:	0032      	movs	r2, r6
 80022e8:	0029      	movs	r1, r5
 80022ea:	0020      	movs	r0, r4
 80022ec:	f7ff ffb2 	bl	8002254 <I2C_IsAcknowledgeFailed>
 80022f0:	2800      	cmp	r0, #0
 80022f2:	d115      	bne.n	8002320 <I2C_WaitOnTXISFlagUntilTimeout+0x50>
    if (Timeout != HAL_MAX_DELAY)
 80022f4:	1c6b      	adds	r3, r5, #1
 80022f6:	d0f0      	beq.n	80022da <I2C_WaitOnTXISFlagUntilTimeout+0xa>
      if (((HAL_GetTick() - Tickstart) > Timeout) || (Timeout == 0U))
 80022f8:	f7ff fcfe 	bl	8001cf8 <HAL_GetTick>
 80022fc:	1b80      	subs	r0, r0, r6
 80022fe:	4285      	cmp	r5, r0
 8002300:	d301      	bcc.n	8002306 <I2C_WaitOnTXISFlagUntilTimeout+0x36>
 8002302:	2d00      	cmp	r5, #0
 8002304:	d1e9      	bne.n	80022da <I2C_WaitOnTXISFlagUntilTimeout+0xa>
      hi2c->ErrorCode |= HAL_I2C_ERROR_TIMEOUT;
 8002306:	2220      	movs	r2, #32
 8002308:	6c63      	ldr	r3, [r4, #68]	; 0x44
 800230a:	4313      	orrs	r3, r2
 800230c:	6463      	str	r3, [r4, #68]	; 0x44
      hi2c->State = HAL_I2C_STATE_READY;
 800230e:	0023      	movs	r3, r4
 8002310:	3341      	adds	r3, #65	; 0x41
 8002312:	701a      	strb	r2, [r3, #0]
      hi2c->Mode = HAL_I2C_MODE_NONE;
 8002314:	0022      	movs	r2, r4
 8002316:	2300      	movs	r3, #0
 8002318:	3242      	adds	r2, #66	; 0x42
      __HAL_UNLOCK(hi2c);
 800231a:	3440      	adds	r4, #64	; 0x40
      hi2c->Mode = HAL_I2C_MODE_NONE;
 800231c:	7013      	strb	r3, [r2, #0]
      __HAL_UNLOCK(hi2c);
 800231e:	7023      	strb	r3, [r4, #0]
      return HAL_ERROR;
 8002320:	2001      	movs	r0, #1
 8002322:	e7df      	b.n	80022e4 <I2C_WaitOnTXISFlagUntilTimeout+0x14>

08002324 <I2C_WaitOnSTOPFlagUntilTimeout>:
{
 8002324:	b5f8      	push	{r3, r4, r5, r6, r7, lr}
 8002326:	0004      	movs	r4, r0
 8002328:	000d      	movs	r5, r1
 800232a:	0016      	movs	r6, r2
  while (__HAL_I2C_GET_FLAG(hi2c, I2C_FLAG_STOPF) == RESET)
 800232c:	2720      	movs	r7, #32
 800232e:	6823      	ldr	r3, [r4, #0]
 8002330:	699b      	ldr	r3, [r3, #24]
 8002332:	423b      	tst	r3, r7
 8002334:	d001      	beq.n	800233a <I2C_WaitOnSTOPFlagUntilTimeout+0x16>
  return HAL_OK;
 8002336:	2000      	movs	r0, #0
}
 8002338:	bdf8      	pop	{r3, r4, r5, r6, r7, pc}
    if (I2C_IsAcknowledgeFailed(hi2c, Timeout, Tickstart) != HAL_OK)
 800233a:	0032      	movs	r2, r6
 800233c:	0029      	movs	r1, r5
 800233e:	0020      	movs	r0, r4
 8002340:	f7ff ff88 	bl	8002254 <I2C_IsAcknowledgeFailed>
 8002344:	2800      	cmp	r0, #0
 8002346:	d113      	bne.n	8002370 <I2C_WaitOnSTOPFlagUntilTimeout+0x4c>
    if (((HAL_GetTick() - Tickstart) > Timeout) || (Timeout == 0U))
 8002348:	f7ff fcd6 	bl	8001cf8 <HAL_GetTick>
 800234c:	1b80      	subs	r0, r0, r6
 800234e:	4285      	cmp	r5, r0
 8002350:	d301      	bcc.n	8002356 <I2C_WaitOnSTOPFlagUntilTimeout+0x32>
 8002352:	2d00      	cmp	r5, #0
 8002354:	d1eb      	bne.n	800232e <I2C_WaitOnSTOPFlagUntilTimeout+0xa>
      hi2c->ErrorCode |= HAL_I2C_ERROR_TIMEOUT;
 8002356:	2220      	movs	r2, #32
 8002358:	6c63      	ldr	r3, [r4, #68]	; 0x44
 800235a:	4313      	orrs	r3, r2
 800235c:	6463      	str	r3, [r4, #68]	; 0x44
      hi2c->State = HAL_I2C_STATE_READY;
 800235e:	0023      	movs	r3, r4
 8002360:	3341      	adds	r3, #65	; 0x41
 8002362:	701a      	strb	r2, [r3, #0]
      hi2c->Mode = HAL_I2C_MODE_NONE;
 8002364:	0022      	movs	r2, r4
 8002366:	2300      	movs	r3, #0
 8002368:	3242      	adds	r2, #66	; 0x42
      __HAL_UNLOCK(hi2c);
 800236a:	3440      	adds	r4, #64	; 0x40
      hi2c->Mode = HAL_I2C_MODE_NONE;
 800236c:	7013      	strb	r3, [r2, #0]
      __HAL_UNLOCK(hi2c);
 800236e:	7023      	strb	r3, [r4, #0]
      return HAL_ERROR;
 8002370:	2001      	movs	r0, #1
 8002372:	e7e1      	b.n	8002338 <I2C_WaitOnSTOPFlagUntilTimeout+0x14>

08002374 <I2C_WaitOnRXNEFlagUntilTimeout>:
{
 8002374:	b5f8      	push	{r3, r4, r5, r6, r7, lr}
 8002376:	0004      	movs	r4, r0
 8002378:	000d      	movs	r5, r1
 800237a:	0017      	movs	r7, r2
  while (__HAL_I2C_GET_FLAG(hi2c, I2C_FLAG_RXNE) == RESET)
 800237c:	2604      	movs	r6, #4
 800237e:	6823      	ldr	r3, [r4, #0]
 8002380:	699b      	ldr	r3, [r3, #24]
 8002382:	4233      	tst	r3, r6
 8002384:	d111      	bne.n	80023aa <I2C_WaitOnRXNEFlagUntilTimeout+0x36>
    if (I2C_IsAcknowledgeFailed(hi2c, Timeout, Tickstart) != HAL_OK)
 8002386:	003a      	movs	r2, r7
 8002388:	0029      	movs	r1, r5
 800238a:	0020      	movs	r0, r4
 800238c:	f7ff ff62 	bl	8002254 <I2C_IsAcknowledgeFailed>
 8002390:	2800      	cmp	r0, #0
 8002392:	d11a      	bne.n	80023ca <I2C_WaitOnRXNEFlagUntilTimeout+0x56>
    if (__HAL_I2C_GET_FLAG(hi2c, I2C_FLAG_STOPF) == SET)
 8002394:	2120      	movs	r1, #32
 8002396:	6823      	ldr	r3, [r4, #0]
 8002398:	699a      	ldr	r2, [r3, #24]
 800239a:	420a      	tst	r2, r1
 800239c:	d017      	beq.n	80023ce <I2C_WaitOnRXNEFlagUntilTimeout+0x5a>
      if ((__HAL_I2C_GET_FLAG(hi2c, I2C_FLAG_RXNE) == SET) && (hi2c->XferSize > 0U))
 800239e:	699a      	ldr	r2, [r3, #24]
 80023a0:	4232      	tst	r2, r6
 80023a2:	d004      	beq.n	80023ae <I2C_WaitOnRXNEFlagUntilTimeout+0x3a>
 80023a4:	8d22      	ldrh	r2, [r4, #40]	; 0x28
 80023a6:	2a00      	cmp	r2, #0
 80023a8:	d001      	beq.n	80023ae <I2C_WaitOnRXNEFlagUntilTimeout+0x3a>
        return HAL_OK;
 80023aa:	2000      	movs	r0, #0
}
 80023ac:	bdf8      	pop	{r3, r4, r5, r6, r7, pc}
        __HAL_I2C_CLEAR_FLAG(hi2c, I2C_FLAG_STOPF);
 80023ae:	2120      	movs	r1, #32
 80023b0:	61d9      	str	r1, [r3, #28]
        I2C_RESET_CR2(hi2c);
 80023b2:	685a      	ldr	r2, [r3, #4]
 80023b4:	480e      	ldr	r0, [pc, #56]	; (80023f0 <I2C_WaitOnRXNEFlagUntilTimeout+0x7c>)
 80023b6:	4002      	ands	r2, r0
 80023b8:	605a      	str	r2, [r3, #4]
        hi2c->State = HAL_I2C_STATE_READY;
 80023ba:	0022      	movs	r2, r4
        hi2c->ErrorCode = HAL_I2C_ERROR_NONE;
 80023bc:	2300      	movs	r3, #0
        hi2c->State = HAL_I2C_STATE_READY;
 80023be:	3241      	adds	r2, #65	; 0x41
        hi2c->ErrorCode = HAL_I2C_ERROR_NONE;
 80023c0:	6463      	str	r3, [r4, #68]	; 0x44
        hi2c->State = HAL_I2C_STATE_READY;
 80023c2:	7011      	strb	r1, [r2, #0]
        __HAL_UNLOCK(hi2c);
 80023c4:	3440      	adds	r4, #64	; 0x40
        hi2c->Mode = HAL_I2C_MODE_NONE;
 80023c6:	7053      	strb	r3, [r2, #1]
      __HAL_UNLOCK(hi2c);
 80023c8:	7023      	strb	r3, [r4, #0]
      return HAL_ERROR;
 80023ca:	2001      	movs	r0, #1
 80023cc:	e7ee      	b.n	80023ac <I2C_WaitOnRXNEFlagUntilTimeout+0x38>
    if (((HAL_GetTick() - Tickstart) > Timeout) || (Timeout == 0U))
 80023ce:	f7ff fc93 	bl	8001cf8 <HAL_GetTick>
 80023d2:	1bc0      	subs	r0, r0, r7
 80023d4:	4285      	cmp	r5, r0
 80023d6:	d301      	bcc.n	80023dc <I2C_WaitOnRXNEFlagUntilTimeout+0x68>
 80023d8:	2d00      	cmp	r5, #0
 80023da:	d1d0      	bne.n	800237e <I2C_WaitOnRXNEFlagUntilTimeout+0xa>
